{
  "contractName": "EmployeeRouter",
  "abi": [
    {
      "inputs": [],
      "payable": false,
      "stateMutability": "nonpayable",
      "type": "constructor",
      "signature": "constructor"
    },
    {
      "anonymous": false,
      "inputs": [
        {
          "indexed": false,
          "name": "employee",
          "type": "address"
        }
      ],
      "name": "CreatedEmployee",
      "type": "event",
      "signature": "0xa3016ab20fc7191063f0a0c4f80402efc19b294421625c0564afe57379a2fdd4"
    },
    {
      "anonymous": false,
      "inputs": [
        {
          "indexed": false,
          "name": "employee",
          "type": "address"
        }
      ],
      "name": "UpdatedEmployee",
      "type": "event",
      "signature": "0xad32e6541c1f22868c3e1f9d6842b6a0e6a6f9d8ce50df32118b9cbdceca121d"
    },
    {
      "anonymous": false,
      "inputs": [
        {
          "indexed": false,
          "name": "employee",
          "type": "address"
        }
      ],
      "name": "DeletedEmployee",
      "type": "event",
      "signature": "0x25eb2102325c2e781a3640da7ca93ed0ba2d259cce9b60806932dac087c60c2c"
    },
    {
      "constant": false,
      "inputs": [
        {
          "name": "_id",
          "type": "uint256"
        },
        {
          "name": "_active",
          "type": "bool"
        },
        {
          "name": "_skills",
          "type": "string"
        }
      ],
      "name": "addNewEmployee",
      "outputs": [],
      "payable": false,
      "stateMutability": "nonpayable",
      "type": "function",
      "signature": "0xc23e5842"
    },
    {
      "constant": false,
      "inputs": [
        {
          "name": "_address",
          "type": "address"
        },
        {
          "name": "_id",
          "type": "uint256"
        },
        {
          "name": "_active",
          "type": "bool"
        },
        {
          "name": "_skills",
          "type": "string"
        }
      ],
      "name": "updateEmployee",
      "outputs": [],
      "payable": false,
      "stateMutability": "nonpayable",
      "type": "function",
      "signature": "0x2b7b6e19"
    },
    {
      "constant": true,
      "inputs": [],
      "name": "getAllEmployees",
      "outputs": [
        {
          "name": "",
          "type": "address[]"
        }
      ],
      "payable": false,
      "stateMutability": "view",
      "type": "function",
      "signature": "0xe3366fed"
    },
    {
      "constant": true,
      "inputs": [
        {
          "name": "_address",
          "type": "address"
        }
      ],
      "name": "getEmployeeByAddress",
      "outputs": [
        {
          "components": [
            {
              "name": "id",
              "type": "uint256"
            },
            {
              "name": "active",
              "type": "bool"
            },
            {
              "name": "skills",
              "type": "string"
            }
          ],
          "name": "",
          "type": "tuple"
        }
      ],
      "payable": false,
      "stateMutability": "view",
      "type": "function",
      "signature": "0x0615477d"
    },
    {
      "constant": true,
      "inputs": [
        {
          "name": "_id",
          "type": "uint256"
        }
      ],
      "name": "getEmployeeById",
      "outputs": [
        {
          "components": [
            {
              "name": "id",
              "type": "uint256"
            },
            {
              "name": "active",
              "type": "bool"
            },
            {
              "name": "skills",
              "type": "string"
            }
          ],
          "name": "",
          "type": "tuple"
        }
      ],
      "payable": false,
      "stateMutability": "view",
      "type": "function",
      "signature": "0xceed5f5a"
    },
    {
      "constant": true,
      "inputs": [],
      "name": "countEmployees",
      "outputs": [
        {
          "name": "",
          "type": "uint256"
        }
      ],
      "payable": false,
      "stateMutability": "view",
      "type": "function",
      "signature": "0x988c0bce"
    }
  ],
  "bytecode": "0x608060405234801561001057600080fd5b50336000806101000a81548173ffffffffffffffffffffffffffffffffffffffff021916908373ffffffffffffffffffffffffffffffffffffffff1602179055506123f3806100606000396000f3fe60806040523480156200001157600080fd5b506004361062000087576000357c0100000000000000000000000000000000000000000000000000000000900480630615477d146200008c5780632b7b6e1914620000c2578063988c0bce14620000e2578063c23e58421462000104578063ceed5f5a1462000124578063e3366fed146200015a575b600080fd5b620000aa6004803603620000a4919081019062000d50565b6200017c565b604051620000b99190620011ac565b60405180910390f35b620000e06004803603620000da919081019062000d7c565b6200028f565b005b620000ec6200073e565b604051620000fb9190620011d0565b60405180910390f35b6200012260048036036200011c919081019062000e72565b6200074b565b005b6200014260048036036200013c919081019062000e46565b6200099c565b604051620001519190620011ac565b60405180910390f35b6200016462000ae2565b60405162000173919062001127565b60405180910390f35b6200018662000b72565b600160008373ffffffffffffffffffffffffffffffffffffffff1673ffffffffffffffffffffffffffffffffffffffff16815260200190815260200160002060009054906101000a900473ffffffffffffffffffffffffffffffffffffffff1673ffffffffffffffffffffffffffffffffffffffff166397d6a5e06040518163ffffffff167c010000000000000000000000000000000000000000000000000000000002815260040160006040518083038186803b1580156200024857600080fd5b505afa1580156200025d573d6000803e3d6000fd5b505050506040513d6000823e3d601f19601f8201168201806040525062000288919081019062000e01565b9050919050565b836000600160008373ffffffffffffffffffffffffffffffffffffffff1673ffffffffffffffffffffffffffffffffffffffff16815260200190815260200160002060009054906101000a900473ffffffffffffffffffffffffffffffffffffffff1673ffffffffffffffffffffffffffffffffffffffff166397d6a5e06040518163ffffffff167c010000000000000000000000000000000000000000000000000000000002815260040160006040518083038186803b1580156200035457600080fd5b505afa15801562000369573d6000803e3d6000fd5b505050506040513d6000823e3d601f19601f8201168201806040525062000394919081019062000e01565b600001511415620003dc576040517f08c379a0000000000000000000000000000000000000000000000000000000008152600401620003d39062001168565b60405180910390fd5b3373ffffffffffffffffffffffffffffffffffffffff166000809054906101000a900473ffffffffffffffffffffffffffffffffffffffff1673ffffffffffffffffffffffffffffffffffffffff16146200046e576040517f08c379a000000000000000000000000000000000000000000000000000000000815260040162000465906200118a565b60405180910390fd5b6000600160008773ffffffffffffffffffffffffffffffffffffffff1673ffffffffffffffffffffffffffffffffffffffff16815260200190815260200160002060009054906101000a900473ffffffffffffffffffffffffffffffffffffffff16905060008173ffffffffffffffffffffffffffffffffffffffff166397d6a5e06040518163ffffffff167c010000000000000000000000000000000000000000000000000000000002815260040160006040518083038186803b1580156200053757600080fd5b505afa1580156200054c573d6000803e3d6000fd5b505050506040513d6000823e3d601f19601f8201168201806040525062000577919081019062000e01565b60000151905060008290508273ffffffffffffffffffffffffffffffffffffffff1663b98348868888886040518463ffffffff167c0100000000000000000000000000000000000000000000000000000000028152600401620005dd93929190620011ed565b600060405180830381600087803b158015620005f857600080fd5b505af11580156200060d573d6000803e3d6000fd5b5050505082600160008a73ffffffffffffffffffffffffffffffffffffffff1673ffffffffffffffffffffffffffffffffffffffff16815260200190815260200160002060006101000a81548173ffffffffffffffffffffffffffffffffffffffff021916908373ffffffffffffffffffffffffffffffffffffffff16021790555060006002600084815260200190815260200160002060006101000a81548173ffffffffffffffffffffffffffffffffffffffff021916908373ffffffffffffffffffffffffffffffffffffffff160217905550806002600089815260200190815260200160002060006101000a81548173ffffffffffffffffffffffffffffffffffffffff021916908373ffffffffffffffffffffffffffffffffffffffff1602179055505050505050505050565b6000600380549050905090565b3373ffffffffffffffffffffffffffffffffffffffff166000809054906101000a900473ffffffffffffffffffffffffffffffffffffffff1673ffffffffffffffffffffffffffffffffffffffff1614620007dd576040517f08c379a0000000000000000000000000000000000000000000000000000000008152600401620007d4906200118a565b60405180910390fd5b6000838383604051620007f09062000b95565b620007fe93929190620011ed565b604051809103906000f0801580156200081b573d6000803e3d6000fd5b5090506000819050600160038290806001815401808255809150509060018203906000526020600020016000909192909190916101000a81548173ffffffffffffffffffffffffffffffffffffffff021916908373ffffffffffffffffffffffffffffffffffffffff160217905550505081600160008373ffffffffffffffffffffffffffffffffffffffff1673ffffffffffffffffffffffffffffffffffffffff16815260200190815260200160002060006101000a81548173ffffffffffffffffffffffffffffffffffffffff021916908373ffffffffffffffffffffffffffffffffffffffff160217905550806002600087815260200190815260200160002060006101000a81548173ffffffffffffffffffffffffffffffffffffffff021916908373ffffffffffffffffffffffffffffffffffffffff1602179055507fa3016ab20fc7191063f0a0c4f80402efc19b294421625c0564afe57379a2fdd4826040516200098d91906200114b565b60405180910390a15050505050565b620009a662000b72565b600160006002600085815260200190815260200160002060009054906101000a900473ffffffffffffffffffffffffffffffffffffffff1673ffffffffffffffffffffffffffffffffffffffff1673ffffffffffffffffffffffffffffffffffffffff16815260200190815260200160002060009054906101000a900473ffffffffffffffffffffffffffffffffffffffff1673ffffffffffffffffffffffffffffffffffffffff166397d6a5e06040518163ffffffff167c010000000000000000000000000000000000000000000000000000000002815260040160006040518083038186803b15801562000a9b57600080fd5b505afa15801562000ab0573d6000803e3d6000fd5b505050506040513d6000823e3d601f19601f8201168201806040525062000adb919081019062000e01565b9050919050565b6060600380548060200260200160405190810160405280929190818152602001828054801562000b6857602002820191906000526020600020905b8160009054906101000a900473ffffffffffffffffffffffffffffffffffffffff1673ffffffffffffffffffffffffffffffffffffffff168152602001906001019080831162000b1d575b5050505050905090565b604051806060016040528060008152602001600015158152602001606081525090565b610f70806200144183390190565b60008135905062000bb481620013f2565b92915050565b60008135905062000bcb816200140c565b92915050565b60008151905062000be2816200140c565b92915050565b600082601f83011262000bfa57600080fd5b815162000c1162000c0b826200125f565b62001231565b9150808252602083016020830185838301111562000c2e57600080fd5b62000c3b838284620013ab565b50505092915050565b600082601f83011262000c5657600080fd5b813562000c6d62000c67826200128c565b62001231565b9150808252602083016020830185838301111562000c8a57600080fd5b62000c978382846200139c565b50505092915050565b60006060828403121562000cb357600080fd5b62000cbf606062001231565b9050600062000cd18482850162000d39565b600083015250602062000ce78482850162000bd1565b602083015250604082015167ffffffffffffffff81111562000d0857600080fd5b62000d168482850162000be8565b60408301525092915050565b60008135905062000d338162001426565b92915050565b60008151905062000d4a8162001426565b92915050565b60006020828403121562000d6357600080fd5b600062000d738482850162000ba3565b91505092915050565b6000806000806080858703121562000d9357600080fd5b600062000da38782880162000ba3565b945050602062000db68782880162000d22565b935050604062000dc98782880162000bba565b925050606085013567ffffffffffffffff81111562000de757600080fd5b62000df58782880162000c44565b91505092959194509250565b60006020828403121562000e1457600080fd5b600082015167ffffffffffffffff81111562000e2f57600080fd5b62000e3d8482850162000ca0565b91505092915050565b60006020828403121562000e5957600080fd5b600062000e698482850162000d22565b91505092915050565b60008060006060848603121562000e8857600080fd5b600062000e988682870162000d22565b935050602062000eab8682870162000bba565b925050604084013567ffffffffffffffff81111562000ec957600080fd5b62000ed78682870162000c44565b9150509250925092565b600062000eef838362000efb565b60208301905092915050565b62000f06816200132a565b82525050565b600062000f1982620012c9565b62000f258185620012f7565b935062000f3283620012b9565b8060005b8381101562000f6957815162000f4d888262000ee1565b975062000f5a83620012ea565b92505060018101905062000f36565b5085935050505092915050565b62000f81816200133e565b82525050565b62000f92816200133e565b82525050565b62000fa38162001374565b82525050565b600062000fb682620012df565b62000fc2818562001319565b935062000fd4818560208601620013ab565b62000fdf81620013e1565b840191505092915050565b600062000ff782620012d4565b62001003818562001308565b935062001015818560208601620013ab565b6200102081620013e1565b840191505092915050565b60006200103a60168362001319565b91507f456d706c6f7965652068617320746f20657869737421000000000000000000006000830152602082019050919050565b60006200107c60208362001319565b91507f4f776e61626c653a2063616c6c6572206973206e6f7420746865206f776e65726000830152602082019050919050565b6000606083016000830151620010c9600086018262001105565b506020830151620010de602086018262000f76565b5060408301518482036040860152620010f8828262000fea565b9150508091505092915050565b62001110816200136a565b82525050565b62001121816200136a565b82525050565b6000602082019050818103600083015262001143818462000f0c565b905092915050565b600060208201905062001162600083018462000f98565b92915050565b6000602082019050818103600083015262001183816200102b565b9050919050565b60006020820190508181036000830152620011a5816200106d565b9050919050565b60006020820190508181036000830152620011c88184620010af565b905092915050565b6000602082019050620011e7600083018462001116565b92915050565b600060608201905062001204600083018662001116565b62001213602083018562000f87565b818103604083015262001227818462000fa9565b9050949350505050565b6000604051905081810181811067ffffffffffffffff821117156200125557600080fd5b8060405250919050565b600067ffffffffffffffff8211156200127757600080fd5b601f19601f8301169050602081019050919050565b600067ffffffffffffffff821115620012a457600080fd5b601f19601f8301169050602081019050919050565b6000819050602082019050919050565b600081519050919050565b600081519050919050565b600081519050919050565b6000602082019050919050565b600082825260208201905092915050565b600082825260208201905092915050565b600082825260208201905092915050565b600062001337826200134a565b9050919050565b60008115159050919050565b600073ffffffffffffffffffffffffffffffffffffffff82169050919050565b6000819050919050565b6000620013818262001388565b9050919050565b600062001395826200134a565b9050919050565b82818337600083830152505050565b60005b83811015620013cb578082015181840152602081019050620013ae565b83811115620013db576000848401525b50505050565b6000601f19601f8301169050919050565b620013fd816200132a565b81146200140957600080fd5b50565b62001417816200133e565b81146200142357600080fd5b50565b62001431816200136a565b81146200143d57600080fd5b5056fe60806040523480156200001157600080fd5b5060405162000f7038038062000f7083398181016040526200003791908101906200025e565b336000806101000a81548173ffffffffffffffffffffffffffffffffffffffff021916908373ffffffffffffffffffffffffffffffffffffffff160217905550604051806060016040528084815260200183151581526020018281525060016000820151816000015560208201518160010160006101000a81548160ff0219169083151502179055506040820151816002019080519060200190620000de92919062000125565b509050507fab01c77628db722f9bee598738589abf28e3878c23787c9467e0e75c800653e56001604051620001149190620003fb565b60405180910390a150505062000580565b828054600181600116156101000203166002900490600052602060002090601f016020900481019282601f106200016857805160ff191683800117855562000199565b8280016001018555821562000199579182015b82811115620001985782518255916020019190600101906200017b565b5b509050620001a89190620001ac565b5090565b620001d191905b80821115620001cd576000816000905550600101620001b3565b5090565b90565b600081519050620001e5816200054c565b92915050565b600082601f830112620001fd57600080fd5b8151620002146200020e826200044d565b6200041f565b915080825260208301602083018583830111156200023157600080fd5b6200023e838284620004cd565b50505092915050565b600081519050620002588162000566565b92915050565b6000806000606084860312156200027457600080fd5b6000620002848682870162000247565b93505060206200029786828701620001d4565b925050604084015167ffffffffffffffff811115620002b557600080fd5b620002c386828701620001eb565b9150509250925092565b620002d881620004b7565b82525050565b600081546001811660008114620002fe5760018114620003275762000371565b607f60028304166200031181876200048f565b955060ff19831686526020860193505062000371565b600282046200033781876200048f565b955062000344856200047a565b60005b82811015620003685781548189015260018201915060208101905062000347565b80880195505050505b505092915050565b6000606083016000808401549050620003928162000521565b620003a16000870182620003ea565b5060018401549050620003b48162000503565b620003c36020870182620002cd565b50600284018583036040870152620003dc8382620002de565b925050819250505092915050565b620003f581620004c3565b82525050565b6000602082019050818103600083015262000417818462000379565b905092915050565b6000604051905081810181811067ffffffffffffffff821117156200044357600080fd5b8060405250919050565b600067ffffffffffffffff8211156200046557600080fd5b601f19601f8301169050602081019050919050565b60008190508160005260206000209050919050565b600082825260208201905092915050565b600060ff82169050919050565b6000819050919050565b60008115159050919050565b6000819050919050565b60005b83811015620004ed578082015181840152602081019050620004d0565b83811115620004fd576000848401525b50505050565b60006200051a62000514836200053f565b620004a0565b9050919050565b60006200053862000532836200053f565b620004ad565b9050919050565b6000600182049050919050565b6200055781620004b7565b81146200056357600080fd5b50565b6200057181620004c3565b81146200057d57600080fd5b50565b6109e080620005906000396000f3fe608060405234801561001057600080fd5b506004361061005e576000357c01000000000000000000000000000000000000000000000000000000009004806397d6a5e014610063578063b983488614610081578063e3e2e6921461009d575b600080fd5b61006b6100bd565b6040516100789190610791565b60405180910390f35b61009b600480360361009691908101906104d6565b61019e565b005b6100a56102d3565b6040516100b4939291906107d5565b60405180910390f35b6100c5610390565b6001604051806060016040529081600082015481526020016001820160009054906101000a900460ff16151515158152602001600282018054600181600116156101000203166002900480601f0160208091040260200160405190810160405280929190818152602001828054600181600116156101000203166002900480156101905780601f1061016557610100808354040283529160200191610190565b820191906000526020600020905b81548152906001019060200180831161017357829003601f168201915b505050505081525050905090565b3373ffffffffffffffffffffffffffffffffffffffff166000809054906101000a900473ffffffffffffffffffffffffffffffffffffffff1673ffffffffffffffffffffffffffffffffffffffff161461022d576040517f08c379a000000000000000000000000000000000000000000000000000000000815260040161022490610771565b60405180910390fd5b604051806060016040528084815260200183151581526020018281525060016000820151816000015560208201518160010160006101000a81548160ff02191690831515021790555060408201518160020190805190602001906102929291906103b3565b509050507fa7b8deb5e1c3251e0a08b8ae887f23970beb70cec1244ee40e64005c5b8e77ce60016040516102c691906107b3565b60405180910390a1505050565b60018060000154908060010160009054906101000a900460ff1690806002018054600181600116156101000203166002900480601f0160208091040260200160405190810160405280929190818152602001828054600181600116156101000203166002900480156103865780601f1061035b57610100808354040283529160200191610386565b820191906000526020600020905b81548152906001019060200180831161036957829003601f168201915b5050505050905083565b604051806060016040528060008152602001600015158152602001606081525090565b828054600181600116156101000203166002900490600052602060002090601f016020900481019282601f106103f457805160ff1916838001178555610422565b82800160010185558215610422579182015b82811115610421578251825591602001919060010190610406565b5b50905061042f9190610433565b5090565b61045591905b80821115610451576000816000905550600101610439565b5090565b90565b6000813590506104678161096f565b92915050565b600082601f83011261047e57600080fd5b813561049161048c82610840565b610813565b915080825260208301602083018583830111156104ad57600080fd5b6104b88382846108db565b50505092915050565b6000813590506104d081610986565b92915050565b6000806000606084860312156104eb57600080fd5b60006104f9868287016104c1565b935050602061050a86828701610458565b925050604084013567ffffffffffffffff81111561052757600080fd5b6105338682870161046d565b9150509250925092565b610546816108c5565b82525050565b610555816108c5565b82525050565b600061056682610881565b610570818561088c565b93506105808185602086016108ea565b61058981610951565b840191505092915050565b600061059f82610881565b6105a9818561089d565b93506105b98185602086016108ea565b6105c281610951565b840191505092915050565b6000815460018116600081146105ea576001811461061057610654565b607f60028304166105fb818761088c565b955060ff198316865260208601935050610654565b6002820461061e818761088c565b95506106298561086c565b60005b8281101561064b5781548189015260018201915060208101905061062c565b80880195505050505b505092915050565b600061066960208361089d565b91507f4f776e61626c653a2063616c6c6572206973206e6f7420746865206f776e65726000830152602082019050919050565b60006060830160008301516106b46000860182610753565b5060208301516106c7602086018261053d565b50604083015184820360408601526106df828261055b565b9150508091505092915050565b600060608301600080840154905061070381610937565b6107106000870182610753565b50600184015490506107218161091d565b61072e602087018261053d565b5060028401858303604087015261074583826105cd565b925050819250505092915050565b61075c816108d1565b82525050565b61076b816108d1565b82525050565b6000602082019050818103600083015261078a8161065c565b9050919050565b600060208201905081810360008301526107ab818461069c565b905092915050565b600060208201905081810360008301526107cd81846106ec565b905092915050565b60006060820190506107ea6000830186610762565b6107f7602083018561054c565b81810360408301526108098184610594565b9050949350505050565b6000604051905081810181811067ffffffffffffffff8211171561083657600080fd5b8060405250919050565b600067ffffffffffffffff82111561085757600080fd5b601f19601f8301169050602081019050919050565b60008190508160005260206000209050919050565b600081519050919050565b600082825260208201905092915050565b600082825260208201905092915050565b600060ff82169050919050565b6000819050919050565b60008115159050919050565b6000819050919050565b82818337600083830152505050565b60005b838110156109085780820151818401526020810190506108ed565b83811115610917576000848401525b50505050565b600061093061092b83610962565b6108ae565b9050919050565b600061094a61094583610962565b6108bb565b9050919050565b6000601f19601f8301169050919050565b6000600182049050919050565b610978816108c5565b811461098357600080fd5b50565b61098f816108d1565b811461099a57600080fd5b5056fea365627a7a7230582058e8ccff9b4b20b8cd24cc74b6235ef2c0bc426a3419ec042931721e289b1acf6c6578706572696d656e74616cf564736f6c63430005090040a365627a7a7230582065237e8c6875733691fc6011e2e91e5d356b849c4a1a92ccc0aa4c79e30b8a666c6578706572696d656e74616cf564736f6c63430005090040",
  "source": "pragma solidity ^0.5.9;\npragma experimental ABIEncoderV2;\n\nimport \"../entity/Employee.sol\";\n\ncontract EmployeeRouter {\n\n    address manager;\n\n    modifier onlyOwner() {\n        require(manager == msg.sender, \"Ownable: caller is not the owner\");\n        _;\n    }\n\n    constructor() public {\n        manager = msg.sender;\n    }\n\n    //=================================================================================\n    // Employee handler\n    //=================================================================================\n\n    mapping(address => Employee) private employees;\n    mapping(uint => address) private employeeIDs;\n    address[] private employeeList;\n\n    event CreatedEmployee(Employee employee);\n    event UpdatedEmployee(Employee employee);\n    event DeletedEmployee(Employee employee);\n\n\n    modifier employeeExists(address _address){\n        require(employees[_address].getEmployeeData().id != 0, 'Employee has to exist!');\n        _;\n    }\n\n    function addNewEmployee(uint _id, bool _active, string memory _skills) public onlyOwner {\n        Employee employee = new Employee(_id, _active, _skills);\n        address employeeAddress = address(employee);\n        employeeList.push(employeeAddress) - 1;\n        employees[employeeAddress] = employee;\n        employeeIDs[_id] = employeeAddress;\n        emit CreatedEmployee(employee);\n    }\n\n    function updateEmployee(address _address, uint _id, bool _active, string memory _skills) public employeeExists(_address) onlyOwner {\n        Employee employee = employees[_address];\n        uint oldID = employee.getEmployeeData().id;\n        address employeeAddress = address(employee);\n        employee.update(_id, _active, _skills);\n        employees[_address] = employee;\n        employeeIDs[oldID] = address(0); //Remove old reference\n        employeeIDs[_id] = employeeAddress;\n    }\n\n    function getAllEmployees() public view returns (address[] memory)  {\n        return employeeList;\n    }\n\n    function getEmployeeByAddress(address _address) public view returns (Employee.employee memory){\n        return employees[_address].getEmployeeData();\n    }\n\n    function getEmployeeById(uint _id) public view returns (Employee.employee memory) {\n        return employees[employeeIDs[_id]].getEmployeeData();\n    }\n\n    function countEmployees() public view returns (uint) {\n        return employeeList.length;\n    }\n}",
  "sourcePath": "/home/user/Programming/FIRME/PHD/factory-work-optimisation-nfc-raspberrypi-ethererum/blockchain/contracts/router/EmployeeRouter.sol",
  "compiler": {
    "name": "solc",
    "version": "0.5.9+commit.e560f70d.Emscripten.clang"
  },
  "schemaVersion": "3.0.2",
  "updatedAt": "2019-06-20T22:45:15.441Z",
  "devdoc": {
    "methods": {}
  },
  "userdoc": {
    "methods": {}
  }
}