{
  "contractName": "Employee",
  "abi": [
    {
      "constant": true,
      "inputs": [],
      "name": "employeeData",
      "outputs": [
        {
          "name": "id",
          "type": "uint256"
        },
        {
          "name": "active",
          "type": "bool"
        },
        {
          "name": "skills",
          "type": "string"
        }
      ],
      "payable": false,
      "stateMutability": "view",
      "type": "function"
    },
    {
      "inputs": [
        {
          "name": "_id",
          "type": "uint256"
        },
        {
          "name": "_active",
          "type": "bool"
        },
        {
          "name": "_skills",
          "type": "string"
        }
      ],
      "payable": false,
      "stateMutability": "nonpayable",
      "type": "constructor"
    },
    {
      "anonymous": false,
      "inputs": [
        {
          "components": [
            {
              "name": "id",
              "type": "uint256"
            },
            {
              "name": "active",
              "type": "bool"
            },
            {
              "name": "skills",
              "type": "string"
            }
          ],
          "indexed": false,
          "name": "_value",
          "type": "tuple"
        }
      ],
      "name": "CreatedEmployee",
      "type": "event"
    },
    {
      "anonymous": false,
      "inputs": [
        {
          "components": [
            {
              "name": "id",
              "type": "uint256"
            },
            {
              "name": "active",
              "type": "bool"
            },
            {
              "name": "skills",
              "type": "string"
            }
          ],
          "indexed": false,
          "name": "_value",
          "type": "tuple"
        }
      ],
      "name": "UpdatedEmployee",
      "type": "event"
    },
    {
      "constant": false,
      "inputs": [
        {
          "name": "_id",
          "type": "uint256"
        },
        {
          "name": "_active",
          "type": "bool"
        },
        {
          "name": "_skills",
          "type": "string"
        }
      ],
      "name": "update",
      "outputs": [],
      "payable": false,
      "stateMutability": "nonpayable",
      "type": "function"
    },
    {
      "constant": true,
      "inputs": [],
      "name": "getEmployeeData",
      "outputs": [
        {
          "components": [
            {
              "name": "id",
              "type": "uint256"
            },
            {
              "name": "active",
              "type": "bool"
            },
            {
              "name": "skills",
              "type": "string"
            }
          ],
          "name": "",
          "type": "tuple"
        }
      ],
      "payable": false,
      "stateMutability": "view",
      "type": "function"
    }
  ],
  "bytecode": "0x60806040523480156200001157600080fd5b5060405162000f7038038062000f7083398181016040526200003791908101906200025e565b336000806101000a81548173ffffffffffffffffffffffffffffffffffffffff021916908373ffffffffffffffffffffffffffffffffffffffff160217905550604051806060016040528084815260200183151581526020018281525060016000820151816000015560208201518160010160006101000a81548160ff0219169083151502179055506040820151816002019080519060200190620000de92919062000125565b509050507fab01c77628db722f9bee598738589abf28e3878c23787c9467e0e75c800653e56001604051620001149190620003fb565b60405180910390a150505062000580565b828054600181600116156101000203166002900490600052602060002090601f016020900481019282601f106200016857805160ff191683800117855562000199565b8280016001018555821562000199579182015b82811115620001985782518255916020019190600101906200017b565b5b509050620001a89190620001ac565b5090565b620001d191905b80821115620001cd576000816000905550600101620001b3565b5090565b90565b600081519050620001e5816200054c565b92915050565b600082601f830112620001fd57600080fd5b8151620002146200020e826200044d565b6200041f565b915080825260208301602083018583830111156200023157600080fd5b6200023e838284620004cd565b50505092915050565b600081519050620002588162000566565b92915050565b6000806000606084860312156200027457600080fd5b6000620002848682870162000247565b93505060206200029786828701620001d4565b925050604084015167ffffffffffffffff811115620002b557600080fd5b620002c386828701620001eb565b9150509250925092565b620002d881620004b7565b82525050565b600081546001811660008114620002fe5760018114620003275762000371565b607f60028304166200031181876200048f565b955060ff19831686526020860193505062000371565b600282046200033781876200048f565b955062000344856200047a565b60005b82811015620003685781548189015260018201915060208101905062000347565b80880195505050505b505092915050565b6000606083016000808401549050620003928162000521565b620003a16000870182620003ea565b5060018401549050620003b48162000503565b620003c36020870182620002cd565b50600284018583036040870152620003dc8382620002de565b925050819250505092915050565b620003f581620004c3565b82525050565b6000602082019050818103600083015262000417818462000379565b905092915050565b6000604051905081810181811067ffffffffffffffff821117156200044357600080fd5b8060405250919050565b600067ffffffffffffffff8211156200046557600080fd5b601f19601f8301169050602081019050919050565b60008190508160005260206000209050919050565b600082825260208201905092915050565b600060ff82169050919050565b6000819050919050565b60008115159050919050565b6000819050919050565b60005b83811015620004ed578082015181840152602081019050620004d0565b83811115620004fd576000848401525b50505050565b60006200051a62000514836200053f565b620004a0565b9050919050565b60006200053862000532836200053f565b620004ad565b9050919050565b6000600182049050919050565b6200055781620004b7565b81146200056357600080fd5b50565b6200057181620004c3565b81146200057d57600080fd5b50565b6109e080620005906000396000f3fe608060405234801561001057600080fd5b506004361061005e576000357c01000000000000000000000000000000000000000000000000000000009004806397d6a5e014610063578063b983488614610081578063e3e2e6921461009d575b600080fd5b61006b6100bd565b6040516100789190610791565b60405180910390f35b61009b600480360361009691908101906104d6565b61019e565b005b6100a56102d3565b6040516100b4939291906107d5565b60405180910390f35b6100c5610390565b6001604051806060016040529081600082015481526020016001820160009054906101000a900460ff16151515158152602001600282018054600181600116156101000203166002900480601f0160208091040260200160405190810160405280929190818152602001828054600181600116156101000203166002900480156101905780601f1061016557610100808354040283529160200191610190565b820191906000526020600020905b81548152906001019060200180831161017357829003601f168201915b505050505081525050905090565b3373ffffffffffffffffffffffffffffffffffffffff166000809054906101000a900473ffffffffffffffffffffffffffffffffffffffff1673ffffffffffffffffffffffffffffffffffffffff161461022d576040517f08c379a000000000000000000000000000000000000000000000000000000000815260040161022490610771565b60405180910390fd5b604051806060016040528084815260200183151581526020018281525060016000820151816000015560208201518160010160006101000a81548160ff02191690831515021790555060408201518160020190805190602001906102929291906103b3565b509050507fa7b8deb5e1c3251e0a08b8ae887f23970beb70cec1244ee40e64005c5b8e77ce60016040516102c691906107b3565b60405180910390a1505050565b60018060000154908060010160009054906101000a900460ff1690806002018054600181600116156101000203166002900480601f0160208091040260200160405190810160405280929190818152602001828054600181600116156101000203166002900480156103865780601f1061035b57610100808354040283529160200191610386565b820191906000526020600020905b81548152906001019060200180831161036957829003601f168201915b5050505050905083565b604051806060016040528060008152602001600015158152602001606081525090565b828054600181600116156101000203166002900490600052602060002090601f016020900481019282601f106103f457805160ff1916838001178555610422565b82800160010185558215610422579182015b82811115610421578251825591602001919060010190610406565b5b50905061042f9190610433565b5090565b61045591905b80821115610451576000816000905550600101610439565b5090565b90565b6000813590506104678161096f565b92915050565b600082601f83011261047e57600080fd5b813561049161048c82610840565b610813565b915080825260208301602083018583830111156104ad57600080fd5b6104b88382846108db565b50505092915050565b6000813590506104d081610986565b92915050565b6000806000606084860312156104eb57600080fd5b60006104f9868287016104c1565b935050602061050a86828701610458565b925050604084013567ffffffffffffffff81111561052757600080fd5b6105338682870161046d565b9150509250925092565b610546816108c5565b82525050565b610555816108c5565b82525050565b600061056682610881565b610570818561088c565b93506105808185602086016108ea565b61058981610951565b840191505092915050565b600061059f82610881565b6105a9818561089d565b93506105b98185602086016108ea565b6105c281610951565b840191505092915050565b6000815460018116600081146105ea576001811461061057610654565b607f60028304166105fb818761088c565b955060ff198316865260208601935050610654565b6002820461061e818761088c565b95506106298561086c565b60005b8281101561064b5781548189015260018201915060208101905061062c565b80880195505050505b505092915050565b600061066960208361089d565b91507f4f776e61626c653a2063616c6c6572206973206e6f7420746865206f776e65726000830152602082019050919050565b60006060830160008301516106b46000860182610753565b5060208301516106c7602086018261053d565b50604083015184820360408601526106df828261055b565b9150508091505092915050565b600060608301600080840154905061070381610937565b6107106000870182610753565b50600184015490506107218161091d565b61072e602087018261053d565b5060028401858303604087015261074583826105cd565b925050819250505092915050565b61075c816108d1565b82525050565b61076b816108d1565b82525050565b6000602082019050818103600083015261078a8161065c565b9050919050565b600060208201905081810360008301526107ab818461069c565b905092915050565b600060208201905081810360008301526107cd81846106ec565b905092915050565b60006060820190506107ea6000830186610762565b6107f7602083018561054c565b81810360408301526108098184610594565b9050949350505050565b6000604051905081810181811067ffffffffffffffff8211171561083657600080fd5b8060405250919050565b600067ffffffffffffffff82111561085757600080fd5b601f19601f8301169050602081019050919050565b60008190508160005260206000209050919050565b600081519050919050565b600082825260208201905092915050565b600082825260208201905092915050565b600060ff82169050919050565b6000819050919050565b60008115159050919050565b6000819050919050565b82818337600083830152505050565b60005b838110156109085780820151818401526020810190506108ed565b83811115610917576000848401525b50505050565b600061093061092b83610962565b6108ae565b9050919050565b600061094a61094583610962565b6108bb565b9050919050565b6000601f19601f8301169050919050565b6000600182049050919050565b610978816108c5565b811461098357600080fd5b50565b61098f816108d1565b811461099a57600080fd5b5056fea365627a7a7230582058e8ccff9b4b20b8cd24cc74b6235ef2c0bc426a3419ec042931721e289b1acf6c6578706572696d656e74616cf564736f6c63430005090040",
  "source": "pragma solidity ^0.5.9;\npragma experimental ABIEncoderV2;\n\ncontract Employee {\n\n    address manager;\n    employee public employeeData;\n\n    modifier onlyOwner() {\n        require(manager == msg.sender, \"Ownable: caller is not the owner\");\n        _;\n    }\n\n    struct employee {\n        uint id;\n        bool active;\n        string skills;\n    }\n\n    event CreatedEmployee(\n        employee _value\n    );\n\n    event UpdatedEmployee(\n        employee _value\n    );\n\n    constructor(uint _id, bool _active, string memory _skills) public {\n        manager = msg.sender;\n        employeeData = employee({\n            id : _id,\n            active : _active,\n            skills : _skills\n            });\n\n        emit CreatedEmployee(employeeData);\n    }\n\n    function update(uint _id, bool _active, string memory _skills) public onlyOwner {\n        employeeData = employee({\n            id : _id,\n            active : _active,\n            skills : _skills\n            });\n        emit UpdatedEmployee(employeeData);\n    }\n\n    function getEmployeeData() public view returns (employee memory) {\n        return employeeData;\n    }\n}\n",
  "sourcePath": "/home/user/Programming/FIRME/PHD/factory-work-optimisation-nfc-raspberrypi-ethererum/blockchain/contracts/entity/Employee.sol",
  "compiler": {
    "name": "solc",
    "version": "0.5.9+commit.e560f70d.Emscripten.clang"
  },
  "schemaVersion": "3.0.2",
  "updatedAt": "2019-06-20T21:46:22.677Z",
  "devdoc": {
    "methods": {}
  },
  "userdoc": {
    "methods": {}
  }
}