{
  "contractName": "Handler",
  "abi": [
    {
      "constant": true,
      "inputs": [
        {
          "name": "_address",
          "type": "address"
        }
      ],
      "name": "getEmployeeByAddress",
      "outputs": [
        {
          "components": [
            {
              "name": "id",
              "type": "uint256"
            },
            {
              "name": "active",
              "type": "bool"
            },
            {
              "name": "skills",
              "type": "string"
            }
          ],
          "name": "",
          "type": "tuple"
        }
      ],
      "payable": false,
      "stateMutability": "view",
      "type": "function"
    },
    {
      "constant": true,
      "inputs": [],
      "name": "countWorkingOrders",
      "outputs": [
        {
          "name": "",
          "type": "uint256"
        }
      ],
      "payable": false,
      "stateMutability": "view",
      "type": "function"
    },
    {
      "constant": true,
      "inputs": [
        {
          "name": "_id",
          "type": "uint256"
        }
      ],
      "name": "getWorkStationById",
      "outputs": [
        {
          "components": [
            {
              "name": "id",
              "type": "uint256"
            },
            {
              "name": "description",
              "type": "string"
            },
            {
              "name": "active",
              "type": "bool"
            }
          ],
          "name": "",
          "type": "tuple"
        }
      ],
      "payable": false,
      "stateMutability": "view",
      "type": "function"
    },
    {
      "constant": true,
      "inputs": [
        {
          "name": "_address",
          "type": "address"
        }
      ],
      "name": "getWorkStationEmployeeByAddress",
      "outputs": [
        {
          "components": [
            {
              "name": "id",
              "type": "uint256"
            },
            {
              "name": "employeeAddress",
              "type": "address"
            },
            {
              "name": "workStationAddress",
              "type": "address"
            },
            {
              "name": "timeStart",
              "type": "string"
            },
            {
              "name": "timeEnd",
              "type": "string"
            }
          ],
          "name": "",
          "type": "tuple"
        }
      ],
      "payable": false,
      "stateMutability": "view",
      "type": "function"
    },
    {
      "constant": false,
      "inputs": [
        {
          "name": "_address",
          "type": "address"
        },
        {
          "name": "_id",
          "type": "uint256"
        },
        {
          "name": "_active",
          "type": "bool"
        },
        {
          "name": "_skills",
          "type": "string"
        }
      ],
      "name": "updateEmployee",
      "outputs": [],
      "payable": false,
      "stateMutability": "nonpayable",
      "type": "function"
    },
    {
      "constant": true,
      "inputs": [
        {
          "name": "_address",
          "type": "address"
        }
      ],
      "name": "getTagByAddress",
      "outputs": [
        {
          "components": [
            {
              "name": "id",
              "type": "uint256"
            },
            {
              "name": "description",
              "type": "string"
            },
            {
              "name": "active",
              "type": "bool"
            }
          ],
          "name": "",
          "type": "tuple"
        }
      ],
      "payable": false,
      "stateMutability": "view",
      "type": "function"
    },
    {
      "constant": true,
      "inputs": [],
      "name": "countWorkStationEmployees",
      "outputs": [
        {
          "name": "",
          "type": "uint256"
        }
      ],
      "payable": false,
      "stateMutability": "view",
      "type": "function"
    },
    {
      "constant": true,
      "inputs": [
        {
          "name": "_id",
          "type": "uint256"
        }
      ],
      "name": "getTagById",
      "outputs": [
        {
          "components": [
            {
              "name": "id",
              "type": "uint256"
            },
            {
              "name": "description",
              "type": "string"
            },
            {
              "name": "active",
              "type": "bool"
            }
          ],
          "name": "",
          "type": "tuple"
        }
      ],
      "payable": false,
      "stateMutability": "view",
      "type": "function"
    },
    {
      "constant": true,
      "inputs": [],
      "name": "getAllWorkStationEmployees",
      "outputs": [
        {
          "name": "",
          "type": "address[]"
        }
      ],
      "payable": false,
      "stateMutability": "view",
      "type": "function"
    },
    {
      "constant": true,
      "inputs": [],
      "name": "getAllWorkStations",
      "outputs": [
        {
          "name": "",
          "type": "address[]"
        }
      ],
      "payable": false,
      "stateMutability": "view",
      "type": "function"
    },
    {
      "constant": true,
      "inputs": [],
      "name": "getAllWorkingOrders",
      "outputs": [
        {
          "name": "",
          "type": "address[]"
        }
      ],
      "payable": false,
      "stateMutability": "view",
      "type": "function"
    },
    {
      "constant": true,
      "inputs": [],
      "name": "getAllTags",
      "outputs": [
        {
          "name": "",
          "type": "address[]"
        }
      ],
      "payable": false,
      "stateMutability": "view",
      "type": "function"
    },
    {
      "constant": false,
      "inputs": [
        {
          "name": "_id",
          "type": "uint256"
        },
        {
          "name": "_description",
          "type": "string"
        },
        {
          "name": "_active",
          "type": "bool"
        }
      ],
      "name": "addNewWorkStation",
      "outputs": [],
      "payable": false,
      "stateMutability": "nonpayable",
      "type": "function"
    },
    {
      "constant": false,
      "inputs": [
        {
          "name": "_id",
          "type": "uint256"
        },
        {
          "name": "_inputTags",
          "type": "address[]"
        },
        {
          "name": "_outputTag",
          "type": "address"
        },
        {
          "name": "_status",
          "type": "string"
        },
        {
          "name": "_statusDescription",
          "type": "string"
        }
      ],
      "name": "addNewWorkingOrder",
      "outputs": [],
      "payable": false,
      "stateMutability": "nonpayable",
      "type": "function"
    },
    {
      "constant": true,
      "inputs": [
        {
          "name": "_address",
          "type": "address"
        }
      ],
      "name": "getWorkingOrderByAddress",
      "outputs": [
        {
          "components": [
            {
              "name": "id",
              "type": "uint256"
            },
            {
              "name": "inputTags",
              "type": "address[]"
            },
            {
              "name": "outputTag",
              "type": "address"
            },
            {
              "name": "status",
              "type": "string"
            },
            {
              "name": "statusDescription",
              "type": "string"
            }
          ],
          "name": "",
          "type": "tuple"
        }
      ],
      "payable": false,
      "stateMutability": "view",
      "type": "function"
    },
    {
      "constant": true,
      "inputs": [],
      "name": "countEmployees",
      "outputs": [
        {
          "name": "",
          "type": "uint256"
        }
      ],
      "payable": false,
      "stateMutability": "view",
      "type": "function"
    },
    {
      "constant": true,
      "inputs": [
        {
          "name": "_address",
          "type": "address"
        }
      ],
      "name": "getWorkStationByAddress",
      "outputs": [
        {
          "components": [
            {
              "name": "id",
              "type": "uint256"
            },
            {
              "name": "description",
              "type": "string"
            },
            {
              "name": "active",
              "type": "bool"
            }
          ],
          "name": "",
          "type": "tuple"
        }
      ],
      "payable": false,
      "stateMutability": "view",
      "type": "function"
    },
    {
      "constant": true,
      "inputs": [
        {
          "name": "_id",
          "type": "uint256"
        }
      ],
      "name": "getWorkStationEmployeeById",
      "outputs": [
        {
          "components": [
            {
              "name": "id",
              "type": "uint256"
            },
            {
              "name": "employeeAddress",
              "type": "address"
            },
            {
              "name": "workStationAddress",
              "type": "address"
            },
            {
              "name": "timeStart",
              "type": "string"
            },
            {
              "name": "timeEnd",
              "type": "string"
            }
          ],
          "name": "",
          "type": "tuple"
        }
      ],
      "payable": false,
      "stateMutability": "view",
      "type": "function"
    },
    {
      "constant": true,
      "inputs": [],
      "name": "countTags",
      "outputs": [
        {
          "name": "",
          "type": "uint256"
        }
      ],
      "payable": false,
      "stateMutability": "view",
      "type": "function"
    },
    {
      "constant": false,
      "inputs": [
        {
          "name": "_id",
          "type": "uint256"
        },
        {
          "name": "_active",
          "type": "bool"
        },
        {
          "name": "_skills",
          "type": "string"
        }
      ],
      "name": "addNewEmployee",
      "outputs": [],
      "payable": false,
      "stateMutability": "nonpayable",
      "type": "function"
    },
    {
      "constant": false,
      "inputs": [
        {
          "name": "_id",
          "type": "uint256"
        },
        {
          "name": "_employeeAddress",
          "type": "address"
        },
        {
          "name": "_workStationAddress",
          "type": "address"
        },
        {
          "name": "_timeStart",
          "type": "string"
        },
        {
          "name": "_timeEnd",
          "type": "string"
        }
      ],
      "name": "addNewWorkStationEmployee",
      "outputs": [],
      "payable": false,
      "stateMutability": "nonpayable",
      "type": "function"
    },
    {
      "constant": true,
      "inputs": [
        {
          "name": "_id",
          "type": "uint256"
        }
      ],
      "name": "getEmployeeById",
      "outputs": [
        {
          "components": [
            {
              "name": "id",
              "type": "uint256"
            },
            {
              "name": "active",
              "type": "bool"
            },
            {
              "name": "skills",
              "type": "string"
            }
          ],
          "name": "",
          "type": "tuple"
        }
      ],
      "payable": false,
      "stateMutability": "view",
      "type": "function"
    },
    {
      "constant": true,
      "inputs": [],
      "name": "countWorkStations",
      "outputs": [
        {
          "name": "",
          "type": "uint256"
        }
      ],
      "payable": false,
      "stateMutability": "view",
      "type": "function"
    },
    {
      "constant": false,
      "inputs": [
        {
          "name": "_address",
          "type": "address"
        },
        {
          "name": "_id",
          "type": "uint256"
        },
        {
          "name": "_description",
          "type": "string"
        },
        {
          "name": "_active",
          "type": "bool"
        }
      ],
      "name": "updateTag",
      "outputs": [],
      "payable": false,
      "stateMutability": "nonpayable",
      "type": "function"
    },
    {
      "constant": true,
      "inputs": [],
      "name": "getAllEmployees",
      "outputs": [
        {
          "name": "",
          "type": "address[]"
        }
      ],
      "payable": false,
      "stateMutability": "view",
      "type": "function"
    },
    {
      "constant": false,
      "inputs": [
        {
          "name": "_address",
          "type": "address"
        },
        {
          "name": "_id",
          "type": "uint256"
        },
        {
          "name": "_description",
          "type": "string"
        },
        {
          "name": "_active",
          "type": "bool"
        }
      ],
      "name": "updateWorkStation",
      "outputs": [],
      "payable": false,
      "stateMutability": "nonpayable",
      "type": "function"
    },
    {
      "constant": false,
      "inputs": [
        {
          "name": "_address",
          "type": "address"
        },
        {
          "name": "_id",
          "type": "uint256"
        },
        {
          "name": "_inputTags",
          "type": "address[]"
        },
        {
          "name": "_outputTag",
          "type": "address"
        },
        {
          "name": "_status",
          "type": "string"
        },
        {
          "name": "_statusDescription",
          "type": "string"
        }
      ],
      "name": "updateWorkingOrder",
      "outputs": [],
      "payable": false,
      "stateMutability": "nonpayable",
      "type": "function"
    },
    {
      "constant": false,
      "inputs": [
        {
          "name": "_id",
          "type": "uint256"
        },
        {
          "name": "_description",
          "type": "string"
        },
        {
          "name": "_active",
          "type": "bool"
        }
      ],
      "name": "addNewTag",
      "outputs": [],
      "payable": false,
      "stateMutability": "nonpayable",
      "type": "function"
    },
    {
      "constant": true,
      "inputs": [
        {
          "name": "_id",
          "type": "uint256"
        }
      ],
      "name": "getWorkingOrderById",
      "outputs": [
        {
          "components": [
            {
              "name": "id",
              "type": "uint256"
            },
            {
              "name": "inputTags",
              "type": "address[]"
            },
            {
              "name": "outputTag",
              "type": "address"
            },
            {
              "name": "status",
              "type": "string"
            },
            {
              "name": "statusDescription",
              "type": "string"
            }
          ],
          "name": "",
          "type": "tuple"
        }
      ],
      "payable": false,
      "stateMutability": "view",
      "type": "function"
    },
    {
      "constant": false,
      "inputs": [
        {
          "name": "_address",
          "type": "address"
        },
        {
          "name": "_id",
          "type": "uint256"
        },
        {
          "name": "_employeeAddress",
          "type": "address"
        },
        {
          "name": "_workStationAddress",
          "type": "address"
        },
        {
          "name": "_timeStart",
          "type": "string"
        },
        {
          "name": "_timeEnd",
          "type": "string"
        }
      ],
      "name": "updateWorkStationEmployee",
      "outputs": [],
      "payable": false,
      "stateMutability": "nonpayable",
      "type": "function"
    },
    {
      "inputs": [],
      "payable": false,
      "stateMutability": "nonpayable",
      "type": "constructor"
    },
    {
      "anonymous": false,
      "inputs": [
        {
          "indexed": false,
          "name": "workStation",
          "type": "address"
        }
      ],
      "name": "CreatedWorkStation",
      "type": "event"
    },
    {
      "anonymous": false,
      "inputs": [
        {
          "indexed": false,
          "name": "workStation",
          "type": "address"
        }
      ],
      "name": "UpdatedWorkStation",
      "type": "event"
    },
    {
      "anonymous": false,
      "inputs": [
        {
          "indexed": false,
          "name": "workStation",
          "type": "address"
        }
      ],
      "name": "DeletedWorkStation",
      "type": "event"
    },
    {
      "anonymous": false,
      "inputs": [
        {
          "indexed": false,
          "name": "workStationEmployee",
          "type": "address"
        }
      ],
      "name": "CreatedWorkStationEmployee",
      "type": "event"
    },
    {
      "anonymous": false,
      "inputs": [
        {
          "indexed": false,
          "name": "workStationEmployee",
          "type": "address"
        }
      ],
      "name": "UpdatedWorkStationEmployee",
      "type": "event"
    },
    {
      "anonymous": false,
      "inputs": [
        {
          "indexed": false,
          "name": "workStationEmployee",
          "type": "address"
        }
      ],
      "name": "DeletedWorkStationEmployee",
      "type": "event"
    },
    {
      "anonymous": false,
      "inputs": [
        {
          "indexed": false,
          "name": "workOrder",
          "type": "address"
        }
      ],
      "name": "CreatedWorkingOrder",
      "type": "event"
    },
    {
      "anonymous": false,
      "inputs": [
        {
          "indexed": false,
          "name": "workOrder",
          "type": "address"
        }
      ],
      "name": "UpdatedWorkingOrder",
      "type": "event"
    },
    {
      "anonymous": false,
      "inputs": [
        {
          "indexed": false,
          "name": "workOrder",
          "type": "address"
        }
      ],
      "name": "DeletedWorkingOrder",
      "type": "event"
    },
    {
      "anonymous": false,
      "inputs": [
        {
          "indexed": false,
          "name": "tag",
          "type": "address"
        }
      ],
      "name": "CreatedTag",
      "type": "event"
    },
    {
      "anonymous": false,
      "inputs": [
        {
          "indexed": false,
          "name": "tag",
          "type": "address"
        }
      ],
      "name": "UpdatedTag",
      "type": "event"
    },
    {
      "anonymous": false,
      "inputs": [
        {
          "indexed": false,
          "name": "tag",
          "type": "address"
        }
      ],
      "name": "DeletedTag",
      "type": "event"
    },
    {
      "anonymous": false,
      "inputs": [
        {
          "indexed": false,
          "name": "employee",
          "type": "address"
        }
      ],
      "name": "CreatedEmployee",
      "type": "event"
    },
    {
      "anonymous": false,
      "inputs": [
        {
          "indexed": false,
          "name": "employee",
          "type": "address"
        }
      ],
      "name": "UpdatedEmployee",
      "type": "event"
    },
    {
      "anonymous": false,
      "inputs": [
        {
          "indexed": false,
          "name": "employee",
          "type": "address"
        }
      ],
      "name": "DeletedEmployee",
      "type": "event"
    }
  ],
  "bytecode": "0x608060405234801561001057600080fd5b50336000806101000a81548173ffffffffffffffffffffffffffffffffffffffff021916908373ffffffffffffffffffffffffffffffffffffffff16021790555033600460006101000a81548173ffffffffffffffffffffffffffffffffffffffff021916908373ffffffffffffffffffffffffffffffffffffffff16021790555033600860006101000a81548173ffffffffffffffffffffffffffffffffffffffff021916908373ffffffffffffffffffffffffffffffffffffffff16021790555033600c60006101000a81548173ffffffffffffffffffffffffffffffffffffffff021916908373ffffffffffffffffffffffffffffffffffffffff16021790555033601060006101000a81548173ffffffffffffffffffffffffffffffffffffffff021916908373ffffffffffffffffffffffffffffffffffffffff16021790555033601460006101000a81548173ffffffffffffffffffffffffffffffffffffffff021916908373ffffffffffffffffffffffffffffffffffffffff16021790555061adb580620001a66000396000f3fe60806040523480156200001157600080fd5b506004361062000225576000357c010000000000000000000000000000000000000000000000000000000090048063988c0bce116200013a578063cfbf266911620000ce578063e69dc4431162000098578063e69dc4431462000644578063e9f40be11462000664578063fa6669841462000684578063fcce407b14620006ba5762000225565b8063cfbf266914620005c0578063e0587b8614620005e2578063e3366fed1462000602578063e523752b14620006245762000225565b8063c1823dbb1162000110578063c1823dbb1462000528578063c23e5842146200054a578063c71f9a84146200056a578063ceed5f5a146200058a5762000225565b8063988c0bce146200049a578063ba127d0114620004bc578063bd4f2aa614620004f25762000225565b80634b3d267f11620001be5780637038f15711620001885780637038f1571462000402578063781bdb89146200042457806379f7461814620004445780638c6b8b5b14620004645762000225565b80634b3d267f146200036657806352fa49c1146200039c5780635b9f483514620003be578063604e17b814620003e05762000225565b80632b4cd06a11620002005780632b4cd06a14620002b85780632b7b6e1914620002ee578063315abd3e146200030e57806334a4430314620003445762000225565b80630615477d146200022a5780630eb167c11462000260578063163029141462000282575b600080fd5b62000248600480360362000242919081019062003cb6565b620006da565b60405162000257919062004aee565b60405180910390f35b6200026a620007ed565b60405162000279919062004ba2565b60405180910390f35b620002a060048036036200029a9190810190620040ee565b620007fa565b604051620002af919062004b5a565b60405180910390f35b620002d66004803603620002d0919081019062003cb6565b62000940565b604051620002e5919062004b36565b60405180910390f35b6200030c600480360362000306919081019062003e8b565b62000a53565b005b6200032c600480360362000326919081019062003cb6565b62000f03565b6040516200033b919062004b12565b60405180910390f35b6200034e62001016565b6040516200035d919062004ba2565b60405180910390f35b6200038460048036036200037e9190810190620040ee565b62001023565b60405162000393919062004b12565b60405180910390f35b620003a662001169565b604051620003b591906200496d565b60405180910390f35b620003c8620011f9565b604051620003d791906200496d565b60405180910390f35b620003ea62001289565b604051620003f991906200496d565b60405180910390f35b6200040c62001319565b6040516200041b91906200496d565b60405180910390f35b6200044260048036036200043c91908101906200430a565b620013a9565b005b6200046260048036036200045c9190810190620041ce565b620015fb565b005b6200048260048036036200047c919081019062003cb6565b62001853565b60405162000491919062004b7e565b60405180910390f35b620004a462001966565b604051620004b3919062004ba2565b60405180910390f35b620004da6004803603620004d4919081019062003cb6565b62001973565b604051620004e9919062004b5a565b60405180910390f35b6200051060048036036200050a9190810190620040ee565b62001a86565b6040516200051f919062004b36565b60405180910390f35b6200053262001bcc565b60405162000541919062004ba2565b60405180910390f35b6200056860048036036200056291908101906200429b565b62001bd9565b005b6200058860048036036200058291908101906200411a565b62001e2b565b005b620005a86004803603620005a29190810190620040ee565b62002083565b604051620005b7919062004aee565b60405180910390f35b620005ca620021c9565b604051620005d9919062004ba2565b60405180910390f35b620006006004803603620005fa919081019062003f10565b620021d6565b005b6200060c620025c0565b6040516200061b91906200496d565b60405180910390f35b6200064260048036036200063c919081019062003f10565b62002650565b005b6200066260048036036200065c919081019062003daa565b62002a3a565b005b6200068260048036036200067c91908101906200430a565b62002e2a565b005b620006a260048036036200069c9190810190620040ee565b6200307c565b604051620006b1919062004b7e565b60405180910390f35b620006d86004803603620006d2919081019062003ce2565b620031c2565b005b620006e4620035de565b600160008373ffffffffffffffffffffffffffffffffffffffff1673ffffffffffffffffffffffffffffffffffffffff16815260200190815260200160002060009054906101000a900473ffffffffffffffffffffffffffffffffffffffff1673ffffffffffffffffffffffffffffffffffffffff166397d6a5e06040518163ffffffff167c010000000000000000000000000000000000000000000000000000000002815260040160006040518083038186803b158015620007a657600080fd5b505afa158015620007bb573d6000803e3d6000fd5b505050506040513d6000823e3d601f19601f82011682018060405250620007e6919081019062003f95565b9050919050565b6000600b80549050905090565b6200080462003601565b601160006012600085815260200190815260200160002060009054906101000a900473ffffffffffffffffffffffffffffffffffffffff1673ffffffffffffffffffffffffffffffffffffffff1673ffffffffffffffffffffffffffffffffffffffff16815260200190815260200160002060009054906101000a900473ffffffffffffffffffffffffffffffffffffffff1673ffffffffffffffffffffffffffffffffffffffff1663d19bacb36040518163ffffffff167c010000000000000000000000000000000000000000000000000000000002815260040160006040518083038186803b158015620008f957600080fd5b505afa1580156200090e573d6000803e3d6000fd5b505050506040513d6000823e3d601f19601f8201168201806040525062000939919081019062004064565b9050919050565b6200094a62003624565b600d60008373ffffffffffffffffffffffffffffffffffffffff1673ffffffffffffffffffffffffffffffffffffffff16815260200190815260200160002060009054906101000a900473ffffffffffffffffffffffffffffffffffffffff1673ffffffffffffffffffffffffffffffffffffffff1663178d4e4b6040518163ffffffff167c010000000000000000000000000000000000000000000000000000000002815260040160006040518083038186803b15801562000a0c57600080fd5b505afa15801562000a21573d6000803e3d6000fd5b505050506040513d6000823e3d601f19601f8201168201806040525062000a4c91908101906200401f565b9050919050565b836000600160008373ffffffffffffffffffffffffffffffffffffffff1673ffffffffffffffffffffffffffffffffffffffff16815260200190815260200160002060009054906101000a900473ffffffffffffffffffffffffffffffffffffffff1673ffffffffffffffffffffffffffffffffffffffff166397d6a5e06040518163ffffffff167c010000000000000000000000000000000000000000000000000000000002815260040160006040518083038186803b15801562000b1857600080fd5b505afa15801562000b2d573d6000803e3d6000fd5b505050506040513d6000823e3d601f19601f8201168201806040525062000b58919081019062003f95565b60000151141562000ba0576040517f08c379a000000000000000000000000000000000000000000000000000000000815260040162000b979062004a22565b60405180910390fd5b3373ffffffffffffffffffffffffffffffffffffffff16601460009054906101000a900473ffffffffffffffffffffffffffffffffffffffff1673ffffffffffffffffffffffffffffffffffffffff161462000c33576040517f08c379a000000000000000000000000000000000000000000000000000000000815260040162000c2a9062004aaa565b60405180910390fd5b6000600160008773ffffffffffffffffffffffffffffffffffffffff1673ffffffffffffffffffffffffffffffffffffffff16815260200190815260200160002060009054906101000a900473ffffffffffffffffffffffffffffffffffffffff16905060008173ffffffffffffffffffffffffffffffffffffffff166397d6a5e06040518163ffffffff167c010000000000000000000000000000000000000000000000000000000002815260040160006040518083038186803b15801562000cfc57600080fd5b505afa15801562000d11573d6000803e3d6000fd5b505050506040513d6000823e3d601f19601f8201168201806040525062000d3c919081019062003f95565b60000151905060008290508273ffffffffffffffffffffffffffffffffffffffff1663b98348868888886040518463ffffffff167c010000000000000000000000000000000000000000000000000000000002815260040162000da29392919062004c9c565b600060405180830381600087803b15801562000dbd57600080fd5b505af115801562000dd2573d6000803e3d6000fd5b5050505082600160008a73ffffffffffffffffffffffffffffffffffffffff1673ffffffffffffffffffffffffffffffffffffffff16815260200190815260200160002060006101000a81548173ffffffffffffffffffffffffffffffffffffffff021916908373ffffffffffffffffffffffffffffffffffffffff16021790555060006002600084815260200190815260200160002060006101000a81548173ffffffffffffffffffffffffffffffffffffffff021916908373ffffffffffffffffffffffffffffffffffffffff160217905550806002600089815260200190815260200160002060006101000a81548173ffffffffffffffffffffffffffffffffffffffff021916908373ffffffffffffffffffffffffffffffffffffffff1602179055505050505050505050565b62000f0d6200367f565b600560008373ffffffffffffffffffffffffffffffffffffffff1673ffffffffffffffffffffffffffffffffffffffff16815260200190815260200160002060009054906101000a900473ffffffffffffffffffffffffffffffffffffffff1673ffffffffffffffffffffffffffffffffffffffff1663b11aa0456040518163ffffffff167c010000000000000000000000000000000000000000000000000000000002815260040160006040518083038186803b15801562000fcf57600080fd5b505afa15801562000fe4573d6000803e3d6000fd5b505050506040513d6000823e3d601f19601f820116820180604052506200100f919081019062003fda565b9050919050565b6000600f80549050905090565b6200102d6200367f565b600560006006600085815260200190815260200160002060009054906101000a900473ffffffffffffffffffffffffffffffffffffffff1673ffffffffffffffffffffffffffffffffffffffff1673ffffffffffffffffffffffffffffffffffffffff16815260200190815260200160002060009054906101000a900473ffffffffffffffffffffffffffffffffffffffff1673ffffffffffffffffffffffffffffffffffffffff1663b11aa0456040518163ffffffff167c010000000000000000000000000000000000000000000000000000000002815260040160006040518083038186803b1580156200112257600080fd5b505afa15801562001137573d6000803e3d6000fd5b505050506040513d6000823e3d601f19601f8201168201806040525062001162919081019062003fda565b9050919050565b6060600f805480602002602001604051908101604052809291908181526020018280548015620011ef57602002820191906000526020600020905b8160009054906101000a900473ffffffffffffffffffffffffffffffffffffffff1673ffffffffffffffffffffffffffffffffffffffff1681526020019060010190808311620011a4575b5050505050905090565b606060138054806020026020016040519081016040528092919081815260200182805480156200127f57602002820191906000526020600020905b8160009054906101000a900473ffffffffffffffffffffffffffffffffffffffff1673ffffffffffffffffffffffffffffffffffffffff168152602001906001019080831162001234575b5050505050905090565b6060600b8054806020026020016040519081016040528092919081815260200182805480156200130f57602002820191906000526020600020905b8160009054906101000a900473ffffffffffffffffffffffffffffffffffffffff1673ffffffffffffffffffffffffffffffffffffffff1681526020019060010190808311620012c4575b5050505050905090565b606060078054806020026020016040519081016040528092919081815260200182805480156200139f57602002820191906000526020600020905b8160009054906101000a900473ffffffffffffffffffffffffffffffffffffffff1673ffffffffffffffffffffffffffffffffffffffff168152602001906001019080831162001354575b5050505050905090565b3373ffffffffffffffffffffffffffffffffffffffff16601460009054906101000a900473ffffffffffffffffffffffffffffffffffffffff1673ffffffffffffffffffffffffffffffffffffffff16146200143c576040517f08c379a0000000000000000000000000000000000000000000000000000000008152600401620014339062004aaa565b60405180910390fd5b60008383836040516200144f90620036a2565b6200145d9392919062004ce0565b604051809103906000f0801580156200147a573d6000803e3d6000fd5b5090506000819050600160138290806001815401808255809150509060018203906000526020600020016000909192909190916101000a81548173ffffffffffffffffffffffffffffffffffffffff021916908373ffffffffffffffffffffffffffffffffffffffff160217905550505081601160008373ffffffffffffffffffffffffffffffffffffffff1673ffffffffffffffffffffffffffffffffffffffff16815260200190815260200160002060006101000a81548173ffffffffffffffffffffffffffffffffffffffff021916908373ffffffffffffffffffffffffffffffffffffffff160217905550806012600087815260200190815260200160002060006101000a81548173ffffffffffffffffffffffffffffffffffffffff021916908373ffffffffffffffffffffffffffffffffffffffff1602179055507f575ebd90c67598c1d051ad7743f108c93cce4071d10812685b3d19a95b023bce82604051620015ec9190620049e8565b60405180910390a15050505050565b3373ffffffffffffffffffffffffffffffffffffffff16601460009054906101000a900473ffffffffffffffffffffffffffffffffffffffff1673ffffffffffffffffffffffffffffffffffffffff16146200168e576040517f08c379a0000000000000000000000000000000000000000000000000000000008152600401620016859062004aaa565b60405180910390fd5b60008585858585604051620016a390620036b0565b620016b395949392919062004c2a565b604051809103906000f080158015620016d0573d6000803e3d6000fd5b50905060008190506001600b8290806001815401808255809150509060018203906000526020600020016000909192909190916101000a81548173ffffffffffffffffffffffffffffffffffffffff021916908373ffffffffffffffffffffffffffffffffffffffff160217905550505081600960008373ffffffffffffffffffffffffffffffffffffffff1673ffffffffffffffffffffffffffffffffffffffff16815260200190815260200160002060006101000a81548173ffffffffffffffffffffffffffffffffffffffff021916908373ffffffffffffffffffffffffffffffffffffffff16021790555080600a600089815260200190815260200160002060006101000a81548173ffffffffffffffffffffffffffffffffffffffff021916908373ffffffffffffffffffffffffffffffffffffffff1602179055507f7e5a347cbe1bdc8109196955c6172cc6c8f8211191a40456e0a81b43560cbf8e8260405162001842919062004a05565b60405180910390a150505050505050565b6200185d620036be565b600960008373ffffffffffffffffffffffffffffffffffffffff1673ffffffffffffffffffffffffffffffffffffffff16815260200190815260200160002060009054906101000a900473ffffffffffffffffffffffffffffffffffffffff1673ffffffffffffffffffffffffffffffffffffffff166397564bdb6040518163ffffffff167c010000000000000000000000000000000000000000000000000000000002815260040160006040518083038186803b1580156200191f57600080fd5b505afa15801562001934573d6000803e3d6000fd5b505050506040513d6000823e3d601f19601f820116820180604052506200195f9190810190620040a9565b9050919050565b6000600380549050905090565b6200197d62003601565b601160008373ffffffffffffffffffffffffffffffffffffffff1673ffffffffffffffffffffffffffffffffffffffff16815260200190815260200160002060009054906101000a900473ffffffffffffffffffffffffffffffffffffffff1673ffffffffffffffffffffffffffffffffffffffff1663d19bacb36040518163ffffffff167c010000000000000000000000000000000000000000000000000000000002815260040160006040518083038186803b15801562001a3f57600080fd5b505afa15801562001a54573d6000803e3d6000fd5b505050506040513d6000823e3d601f19601f8201168201806040525062001a7f919081019062004064565b9050919050565b62001a9062003624565b600d6000600e600085815260200190815260200160002060009054906101000a900473ffffffffffffffffffffffffffffffffffffffff1673ffffffffffffffffffffffffffffffffffffffff1673ffffffffffffffffffffffffffffffffffffffff16815260200190815260200160002060009054906101000a900473ffffffffffffffffffffffffffffffffffffffff1673ffffffffffffffffffffffffffffffffffffffff1663178d4e4b6040518163ffffffff167c010000000000000000000000000000000000000000000000000000000002815260040160006040518083038186803b15801562001b8557600080fd5b505afa15801562001b9a573d6000803e3d6000fd5b505050506040513d6000823e3d601f19601f8201168201806040525062001bc591908101906200401f565b9050919050565b6000600780549050905090565b3373ffffffffffffffffffffffffffffffffffffffff16601460009054906101000a900473ffffffffffffffffffffffffffffffffffffffff1673ffffffffffffffffffffffffffffffffffffffff161462001c6c576040517f08c379a000000000000000000000000000000000000000000000000000000000815260040162001c639062004aaa565b60405180910390fd5b600083838360405162001c7f9062003703565b62001c8d9392919062004c9c565b604051809103906000f08015801562001caa573d6000803e3d6000fd5b5090506000819050600160038290806001815401808255809150509060018203906000526020600020016000909192909190916101000a81548173ffffffffffffffffffffffffffffffffffffffff021916908373ffffffffffffffffffffffffffffffffffffffff160217905550505081600160008373ffffffffffffffffffffffffffffffffffffffff1673ffffffffffffffffffffffffffffffffffffffff16815260200190815260200160002060006101000a81548173ffffffffffffffffffffffffffffffffffffffff021916908373ffffffffffffffffffffffffffffffffffffffff160217905550806002600087815260200190815260200160002060006101000a81548173ffffffffffffffffffffffffffffffffffffffff021916908373ffffffffffffffffffffffffffffffffffffffff1602179055507fa3016ab20fc7191063f0a0c4f80402efc19b294421625c0564afe57379a2fdd48260405162001e1c919062004991565b60405180910390a15050505050565b3373ffffffffffffffffffffffffffffffffffffffff16601460009054906101000a900473ffffffffffffffffffffffffffffffffffffffff1673ffffffffffffffffffffffffffffffffffffffff161462001ebe576040517f08c379a000000000000000000000000000000000000000000000000000000000815260040162001eb59062004aaa565b60405180910390fd5b6000858585858560405162001ed39062003711565b62001ee395949392919062004bbf565b604051809103906000f08015801562001f00573d6000803e3d6000fd5b50905060008190506001600f8290806001815401808255809150509060018203906000526020600020016000909192909190916101000a81548173ffffffffffffffffffffffffffffffffffffffff021916908373ffffffffffffffffffffffffffffffffffffffff160217905550505081600d60008373ffffffffffffffffffffffffffffffffffffffff1673ffffffffffffffffffffffffffffffffffffffff16815260200190815260200160002060006101000a81548173ffffffffffffffffffffffffffffffffffffffff021916908373ffffffffffffffffffffffffffffffffffffffff16021790555080600e600089815260200190815260200160002060006101000a81548173ffffffffffffffffffffffffffffffffffffffff021916908373ffffffffffffffffffffffffffffffffffffffff1602179055507ffa0d8cd2ce9db69945da6968e4f6b0e2cc1bfff7e64f9b4686c501e09c69676d82604051620020729190620049cb565b60405180910390a150505050505050565b6200208d620035de565b600160006002600085815260200190815260200160002060009054906101000a900473ffffffffffffffffffffffffffffffffffffffff1673ffffffffffffffffffffffffffffffffffffffff1673ffffffffffffffffffffffffffffffffffffffff16815260200190815260200160002060009054906101000a900473ffffffffffffffffffffffffffffffffffffffff1673ffffffffffffffffffffffffffffffffffffffff166397d6a5e06040518163ffffffff167c010000000000000000000000000000000000000000000000000000000002815260040160006040518083038186803b1580156200218257600080fd5b505afa15801562002197573d6000803e3d6000fd5b505050506040513d6000823e3d601f19601f82011682018060405250620021c2919081019062003f95565b9050919050565b6000601380549050905090565b836000600560008373ffffffffffffffffffffffffffffffffffffffff1673ffffffffffffffffffffffffffffffffffffffff16815260200190815260200160002060009054906101000a900473ffffffffffffffffffffffffffffffffffffffff1673ffffffffffffffffffffffffffffffffffffffff1663b11aa0456040518163ffffffff167c010000000000000000000000000000000000000000000000000000000002815260040160006040518083038186803b1580156200229b57600080fd5b505afa158015620022b0573d6000803e3d6000fd5b505050506040513d6000823e3d601f19601f82011682018060405250620022db919081019062003fda565b60000151141562002323576040517f08c379a00000000000000000000000000000000000000000000000000000000081526004016200231a9062004a44565b60405180910390fd5b3373ffffffffffffffffffffffffffffffffffffffff16601460009054906101000a900473ffffffffffffffffffffffffffffffffffffffff1673ffffffffffffffffffffffffffffffffffffffff1614620023b6576040517f08c379a0000000000000000000000000000000000000000000000000000000008152600401620023ad9062004aaa565b60405180910390fd5b6000600560008773ffffffffffffffffffffffffffffffffffffffff1673ffffffffffffffffffffffffffffffffffffffff16815260200190815260200160002060009054906101000a900473ffffffffffffffffffffffffffffffffffffffff16905060008190508173ffffffffffffffffffffffffffffffffffffffff16634e3248478787876040518463ffffffff167c01000000000000000000000000000000000000000000000000000000000281526004016200247a9392919062004ce0565b600060405180830381600087803b1580156200249557600080fd5b505af1158015620024aa573d6000803e3d6000fd5b5050505081600560008973ffffffffffffffffffffffffffffffffffffffff1673ffffffffffffffffffffffffffffffffffffffff16815260200190815260200160002060006101000a81548173ffffffffffffffffffffffffffffffffffffffff021916908373ffffffffffffffffffffffffffffffffffffffff160217905550806006600088815260200190815260200160002060006101000a81548173ffffffffffffffffffffffffffffffffffffffff021916908373ffffffffffffffffffffffffffffffffffffffff1602179055507f85976bdbcdaf810a48665acdc54ded7a7c61ae9e72aa068c94ecc4dd57f57f5e82604051620025af9190620049ae565b60405180910390a150505050505050565b606060038054806020026020016040519081016040528092919081815260200182805480156200264657602002820191906000526020600020905b8160009054906101000a900473ffffffffffffffffffffffffffffffffffffffff1673ffffffffffffffffffffffffffffffffffffffff1681526020019060010190808311620025fb575b5050505050905090565b836000601160008373ffffffffffffffffffffffffffffffffffffffff1673ffffffffffffffffffffffffffffffffffffffff16815260200190815260200160002060009054906101000a900473ffffffffffffffffffffffffffffffffffffffff1673ffffffffffffffffffffffffffffffffffffffff1663d19bacb36040518163ffffffff167c010000000000000000000000000000000000000000000000000000000002815260040160006040518083038186803b1580156200271557600080fd5b505afa1580156200272a573d6000803e3d6000fd5b505050506040513d6000823e3d601f19601f8201168201806040525062002755919081019062004064565b6000015114156200279d576040517f08c379a0000000000000000000000000000000000000000000000000000000008152600401620027949062004acc565b60405180910390fd5b3373ffffffffffffffffffffffffffffffffffffffff16601460009054906101000a900473ffffffffffffffffffffffffffffffffffffffff1673ffffffffffffffffffffffffffffffffffffffff161462002830576040517f08c379a0000000000000000000000000000000000000000000000000000000008152600401620028279062004aaa565b60405180910390fd5b6000601160008773ffffffffffffffffffffffffffffffffffffffff1673ffffffffffffffffffffffffffffffffffffffff16815260200190815260200160002060009054906101000a900473ffffffffffffffffffffffffffffffffffffffff16905060008190508173ffffffffffffffffffffffffffffffffffffffff16634e3248478787876040518463ffffffff167c0100000000000000000000000000000000000000000000000000000000028152600401620028f49392919062004ce0565b600060405180830381600087803b1580156200290f57600080fd5b505af115801562002924573d6000803e3d6000fd5b5050505081601160008373ffffffffffffffffffffffffffffffffffffffff1673ffffffffffffffffffffffffffffffffffffffff16815260200190815260200160002060006101000a81548173ffffffffffffffffffffffffffffffffffffffff021916908373ffffffffffffffffffffffffffffffffffffffff160217905550806012600088815260200190815260200160002060006101000a81548173ffffffffffffffffffffffffffffffffffffffff021916908373ffffffffffffffffffffffffffffffffffffffff1602179055507f1a12fad462a7aadc1585c78da1f18996037a020b62c00c03a82dd8cda925d3738260405162002a299190620049e8565b60405180910390a150505050505050565b856000600960008373ffffffffffffffffffffffffffffffffffffffff1673ffffffffffffffffffffffffffffffffffffffff16815260200190815260200160002060009054906101000a900473ffffffffffffffffffffffffffffffffffffffff1673ffffffffffffffffffffffffffffffffffffffff166397564bdb6040518163ffffffff167c010000000000000000000000000000000000000000000000000000000002815260040160006040518083038186803b15801562002aff57600080fd5b505afa15801562002b14573d6000803e3d6000fd5b505050506040513d6000823e3d601f19601f8201168201806040525062002b3f9190810190620040a9565b60000151141562002b87576040517f08c379a000000000000000000000000000000000000000000000000000000000815260040162002b7e9062004a66565b60405180910390fd5b3373ffffffffffffffffffffffffffffffffffffffff16601460009054906101000a900473ffffffffffffffffffffffffffffffffffffffff1673ffffffffffffffffffffffffffffffffffffffff161462002c1a576040517f08c379a000000000000000000000000000000000000000000000000000000000815260040162002c119062004aaa565b60405180910390fd5b6000600960008973ffffffffffffffffffffffffffffffffffffffff1673ffffffffffffffffffffffffffffffffffffffff16815260200190815260200160002060009054906101000a900473ffffffffffffffffffffffffffffffffffffffff16905060008190508173ffffffffffffffffffffffffffffffffffffffff1663e048c22289898989896040518663ffffffff167c010000000000000000000000000000000000000000000000000000000002815260040162002ce295949392919062004c2a565b600060405180830381600087803b15801562002cfd57600080fd5b505af115801562002d12573d6000803e3d6000fd5b5050505081600960008373ffffffffffffffffffffffffffffffffffffffff1673ffffffffffffffffffffffffffffffffffffffff16815260200190815260200160002060006101000a81548173ffffffffffffffffffffffffffffffffffffffff021916908373ffffffffffffffffffffffffffffffffffffffff16021790555080600a60008a815260200190815260200160002060006101000a81548173ffffffffffffffffffffffffffffffffffffffff021916908373ffffffffffffffffffffffffffffffffffffffff1602179055507f99293e16000a5231b9227f10857f0ce6c495af18561a912e142d6c79f9bf49a18260405162002e17919062004a05565b60405180910390a1505050505050505050565b3373ffffffffffffffffffffffffffffffffffffffff16601460009054906101000a900473ffffffffffffffffffffffffffffffffffffffff1673ffffffffffffffffffffffffffffffffffffffff161462002ebd576040517f08c379a000000000000000000000000000000000000000000000000000000000815260040162002eb49062004aaa565b60405180910390fd5b600083838360405162002ed0906200371f565b62002ede9392919062004ce0565b604051809103906000f08015801562002efb573d6000803e3d6000fd5b5090506000819050600160078290806001815401808255809150509060018203906000526020600020016000909192909190916101000a81548173ffffffffffffffffffffffffffffffffffffffff021916908373ffffffffffffffffffffffffffffffffffffffff160217905550505081600560008373ffffffffffffffffffffffffffffffffffffffff1673ffffffffffffffffffffffffffffffffffffffff16815260200190815260200160002060006101000a81548173ffffffffffffffffffffffffffffffffffffffff021916908373ffffffffffffffffffffffffffffffffffffffff160217905550806006600087815260200190815260200160002060006101000a81548173ffffffffffffffffffffffffffffffffffffffff021916908373ffffffffffffffffffffffffffffffffffffffff1602179055507fd4aaf076ca264690b1357f851a1cb230e93e0b7f2f651b8bfd455c2ba29693f5826040516200306d9190620049ae565b60405180910390a15050505050565b62003086620036be565b60096000600a600085815260200190815260200160002060009054906101000a900473ffffffffffffffffffffffffffffffffffffffff1673ffffffffffffffffffffffffffffffffffffffff1673ffffffffffffffffffffffffffffffffffffffff16815260200190815260200160002060009054906101000a900473ffffffffffffffffffffffffffffffffffffffff1673ffffffffffffffffffffffffffffffffffffffff166397564bdb6040518163ffffffff167c010000000000000000000000000000000000000000000000000000000002815260040160006040518083038186803b1580156200317b57600080fd5b505afa15801562003190573d6000803e3d6000fd5b505050506040513d6000823e3d601f19601f82011682018060405250620031bb9190810190620040a9565b9050919050565b85600073ffffffffffffffffffffffffffffffffffffffff16600d60008373ffffffffffffffffffffffffffffffffffffffff1673ffffffffffffffffffffffffffffffffffffffff16815260200190815260200160002060009054906101000a900473ffffffffffffffffffffffffffffffffffffffff1673ffffffffffffffffffffffffffffffffffffffff1663178d4e4b6040518163ffffffff167c010000000000000000000000000000000000000000000000000000000002815260040160006040518083038186803b1580156200329d57600080fd5b505afa158015620032b2573d6000803e3d6000fd5b505050506040513d6000823e3d601f19601f82011682018060405250620032dd91908101906200401f565b6020015173ffffffffffffffffffffffffffffffffffffffff1614156200333b576040517f08c379a0000000000000000000000000000000000000000000000000000000008152600401620033329062004a88565b60405180910390fd5b3373ffffffffffffffffffffffffffffffffffffffff16601460009054906101000a900473ffffffffffffffffffffffffffffffffffffffff1673ffffffffffffffffffffffffffffffffffffffff1614620033ce576040517f08c379a0000000000000000000000000000000000000000000000000000000008152600401620033c59062004aaa565b60405180910390fd5b6000600d60008973ffffffffffffffffffffffffffffffffffffffff1673ffffffffffffffffffffffffffffffffffffffff16815260200190815260200160002060009054906101000a900473ffffffffffffffffffffffffffffffffffffffff16905060008190508173ffffffffffffffffffffffffffffffffffffffff1663a62428da89898989896040518663ffffffff167c01000000000000000000000000000000000000000000000000000000000281526004016200349695949392919062004bbf565b600060405180830381600087803b158015620034b157600080fd5b505af1158015620034c6573d6000803e3d6000fd5b5050505081600d60008373ffffffffffffffffffffffffffffffffffffffff1673ffffffffffffffffffffffffffffffffffffffff16815260200190815260200160002060006101000a81548173ffffffffffffffffffffffffffffffffffffffff021916908373ffffffffffffffffffffffffffffffffffffffff16021790555080600e60008a815260200190815260200160002060006101000a81548173ffffffffffffffffffffffffffffffffffffffff021916908373ffffffffffffffffffffffffffffffffffffffff1602179055507f64ba1c0174ce02f35f1fba2c31d5f67b32477756473aee668965724a83d4f9c282604051620035cb9190620049cb565b60405180910390a1505050505050505050565b604051806060016040528060008152602001600015158152602001606081525090565b604051806060016040528060008152602001606081526020016000151581525090565b6040518060a0016040528060008152602001600073ffffffffffffffffffffffffffffffffffffffff168152602001600073ffffffffffffffffffffffffffffffffffffffff16815260200160608152602001606081525090565b604051806060016040528060008152602001606081526020016000151581525090565b610f70806200505f83390190565b6119cb8062005fcf83390190565b6040518060a001604052806000815260200160608152602001600073ffffffffffffffffffffffffffffffffffffffff16815260200160608152602001606081525090565b610f70806200799a83390190565b6114f9806200890a83390190565b610f708062009e0383390190565b6000813590506200373e8162005010565b92915050565b600081519050620037558162005010565b92915050565b600082601f8301126200376d57600080fd5b8151620037846200377e8262004d52565b62004d24565b91508181835260208401935060208101905083856020840282011115620037aa57600080fd5b60005b83811015620037de5781620037c3888262003744565b845260208401935060208301925050600181019050620037ad565b5050505092915050565b600082601f830112620037fa57600080fd5b8135620038116200380b8262004d7b565b62004d24565b915081818352602084019350602081019050838560208402820111156200383757600080fd5b60005b838110156200386b57816200385088826200372d565b8452602084019350602083019250506001810190506200383a565b5050505092915050565b60008135905062003886816200502a565b92915050565b6000815190506200389d816200502a565b92915050565b600082601f830112620038b557600080fd5b8151620038cc620038c68262004da4565b62004d24565b91508082526020830160208301858383011115620038e957600080fd5b620038f683828462004fc9565b50505092915050565b600082601f8301126200391157600080fd5b813562003928620039228262004dd1565b62004d24565b915080825260208301602083018583830111156200394557600080fd5b6200395283828462004fba565b50505092915050565b6000606082840312156200396e57600080fd5b6200397a606062004d24565b905060006200398c8482850162003c9f565b6000830152506020620039a2848285016200388c565b602083015250604082015167ffffffffffffffff811115620039c357600080fd5b620039d184828501620038a3565b60408301525092915050565b600060608284031215620039f057600080fd5b620039fc606062004d24565b9050600062003a0e8482850162003c9f565b600083015250602082015167ffffffffffffffff81111562003a2f57600080fd5b62003a3d84828501620038a3565b602083015250604062003a53848285016200388c565b60408301525092915050565b600060a0828403121562003a7257600080fd5b62003a7e60a062004d24565b9050600062003a908482850162003c9f565b600083015250602062003aa68482850162003744565b602083015250604062003abc8482850162003744565b604083015250606082015167ffffffffffffffff81111562003add57600080fd5b62003aeb84828501620038a3565b606083015250608082015167ffffffffffffffff81111562003b0c57600080fd5b62003b1a84828501620038a3565b60808301525092915050565b60006060828403121562003b3957600080fd5b62003b45606062004d24565b9050600062003b578482850162003c9f565b600083015250602082015167ffffffffffffffff81111562003b7857600080fd5b62003b8684828501620038a3565b602083015250604062003b9c848285016200388c565b60408301525092915050565b600060a0828403121562003bbb57600080fd5b62003bc760a062004d24565b9050600062003bd98482850162003c9f565b600083015250602082015167ffffffffffffffff81111562003bfa57600080fd5b62003c08848285016200375b565b602083015250604062003c1e8482850162003744565b604083015250606082015167ffffffffffffffff81111562003c3f57600080fd5b62003c4d84828501620038a3565b606083015250608082015167ffffffffffffffff81111562003c6e57600080fd5b62003c7c84828501620038a3565b60808301525092915050565b60008135905062003c998162005044565b92915050565b60008151905062003cb08162005044565b92915050565b60006020828403121562003cc957600080fd5b600062003cd9848285016200372d565b91505092915050565b60008060008060008060c0878903121562003cfc57600080fd5b600062003d0c89828a016200372d565b965050602062003d1f89828a0162003c88565b955050604062003d3289828a016200372d565b945050606062003d4589828a016200372d565b935050608087013567ffffffffffffffff81111562003d6357600080fd5b62003d7189828a01620038ff565b92505060a087013567ffffffffffffffff81111562003d8f57600080fd5b62003d9d89828a01620038ff565b9150509295509295509295565b60008060008060008060c0878903121562003dc457600080fd5b600062003dd489828a016200372d565b965050602062003de789828a0162003c88565b955050604087013567ffffffffffffffff81111562003e0557600080fd5b62003e1389828a01620037e8565b945050606062003e2689828a016200372d565b935050608087013567ffffffffffffffff81111562003e4457600080fd5b62003e5289828a01620038ff565b92505060a087013567ffffffffffffffff81111562003e7057600080fd5b62003e7e89828a01620038ff565b9150509295509295509295565b6000806000806080858703121562003ea257600080fd5b600062003eb2878288016200372d565b945050602062003ec58782880162003c88565b935050604062003ed88782880162003875565b925050606085013567ffffffffffffffff81111562003ef657600080fd5b62003f0487828801620038ff565b91505092959194509250565b6000806000806080858703121562003f2757600080fd5b600062003f37878288016200372d565b945050602062003f4a8782880162003c88565b935050604085013567ffffffffffffffff81111562003f6857600080fd5b62003f7687828801620038ff565b925050606062003f898782880162003875565b91505092959194509250565b60006020828403121562003fa857600080fd5b600082015167ffffffffffffffff81111562003fc357600080fd5b62003fd1848285016200395b565b91505092915050565b60006020828403121562003fed57600080fd5b600082015167ffffffffffffffff8111156200400857600080fd5b6200401684828501620039dd565b91505092915050565b6000602082840312156200403257600080fd5b600082015167ffffffffffffffff8111156200404d57600080fd5b6200405b8482850162003a5f565b91505092915050565b6000602082840312156200407757600080fd5b600082015167ffffffffffffffff8111156200409257600080fd5b620040a08482850162003b26565b91505092915050565b600060208284031215620040bc57600080fd5b600082015167ffffffffffffffff811115620040d757600080fd5b620040e58482850162003ba8565b91505092915050565b6000602082840312156200410157600080fd5b6000620041118482850162003c88565b91505092915050565b600080600080600060a086880312156200413357600080fd5b6000620041438882890162003c88565b955050602062004156888289016200372d565b945050604062004169888289016200372d565b935050606086013567ffffffffffffffff8111156200418757600080fd5b6200419588828901620038ff565b925050608086013567ffffffffffffffff811115620041b357600080fd5b620041c188828901620038ff565b9150509295509295909350565b600080600080600060a08688031215620041e757600080fd5b6000620041f78882890162003c88565b955050602086013567ffffffffffffffff8111156200421557600080fd5b6200422388828901620037e8565b945050604062004236888289016200372d565b935050606086013567ffffffffffffffff8111156200425457600080fd5b6200426288828901620038ff565b925050608086013567ffffffffffffffff8111156200428057600080fd5b6200428e88828901620038ff565b9150509295509295909350565b600080600060608486031215620042b157600080fd5b6000620042c18682870162003c88565b9350506020620042d48682870162003875565b925050604084013567ffffffffffffffff811115620042f257600080fd5b6200430086828701620038ff565b9150509250925092565b6000806000606084860312156200432057600080fd5b6000620043308682870162003c88565b935050602084013567ffffffffffffffff8111156200434e57600080fd5b6200435c86828701620038ff565b92505060406200436f8682870162003875565b9150509250925092565b600062004387838362004393565b60208301905092915050565b6200439e8162004ea8565b82525050565b620043af8162004ea8565b82525050565b6000620043c28262004e29565b620043ce818562004e75565b9350620043db8362004e0e565b8060005b8381101562004412578151620043f6888262004379565b9750620044038362004e57565b925050600181019050620043df565b5085935050505092915050565b60006200442c8262004e1e565b62004438818562004e64565b9350620044458362004dfe565b8060005b838110156200447c57815162004460888262004379565b97506200446d8362004e4a565b92505060018101905062004449565b5085935050505092915050565b620044948162004ebc565b82525050565b620044a58162004ebc565b82525050565b620044b68162004ef2565b82525050565b620044c78162004f1a565b82525050565b620044d88162004f42565b82525050565b620044e98162004f6a565b82525050565b620044fa8162004f92565b82525050565b60006200450d8262004e3f565b62004519818562004e97565b93506200452b81856020860162004fc9565b620045368162004fff565b840191505092915050565b60006200454e8262004e34565b6200455a818562004e86565b93506200456c81856020860162004fc9565b620045778162004fff565b840191505092915050565b60006200459160168362004e97565b91507f456d706c6f7965652068617320746f20657869737421000000000000000000006000830152602082019050919050565b6000620045d360118362004e97565b91507f5461672068617320746f206578697374210000000000000000000000000000006000830152602082019050919050565b600062004615601b8362004e97565b91507f576f726b696e67206f726465722068617320746f2065786973742100000000006000830152602082019050919050565b60006200465760238362004e97565b91507f576f726b2073746174696f6e20656d706c6f7965652068617320746f2065786960008301527f73742100000000000000000000000000000000000000000000000000000000006020830152604082019050919050565b6000620046bf60208362004e97565b91507f4f776e61626c653a2063616c6c6572206973206e6f7420746865206f776e65726000830152602082019050919050565b600062004701601a8362004e97565b91507f576f726b2073746174696f6e2068617320746f206578697374210000000000006000830152602082019050919050565b60006060830160008301516200474e60008601826200494b565b50602083015162004763602086018262004489565b50604083015184820360408601526200477d828262004541565b9150508091505092915050565b6000606083016000830151620047a460008601826200494b565b5060208301518482036020860152620047be828262004541565b9150506040830151620047d5604086018262004489565b508091505092915050565b600060a083016000830151620047fa60008601826200494b565b5060208301516200480f602086018262004393565b50604083015162004824604086018262004393565b50606083015184820360608601526200483e828262004541565b915050608083015184820360808601526200485a828262004541565b9150508091505092915050565b60006060830160008301516200488160008601826200494b565b50602083015184820360208601526200489b828262004541565b9150506040830151620048b2604086018262004489565b508091505092915050565b600060a083016000830151620048d760008601826200494b565b5060208301518482036020860152620048f182826200441f565b915050604083015162004908604086018262004393565b506060830151848203606086015262004922828262004541565b915050608083015184820360808601526200493e828262004541565b9150508091505092915050565b620049568162004ee8565b82525050565b620049678162004ee8565b82525050565b60006020820190508181036000830152620049898184620043b5565b905092915050565b6000602082019050620049a86000830184620044ab565b92915050565b6000602082019050620049c56000830184620044bc565b92915050565b6000602082019050620049e26000830184620044cd565b92915050565b6000602082019050620049ff6000830184620044de565b92915050565b600060208201905062004a1c6000830184620044ef565b92915050565b6000602082019050818103600083015262004a3d8162004582565b9050919050565b6000602082019050818103600083015262004a5f81620045c4565b9050919050565b6000602082019050818103600083015262004a818162004606565b9050919050565b6000602082019050818103600083015262004aa38162004648565b9050919050565b6000602082019050818103600083015262004ac581620046b0565b9050919050565b6000602082019050818103600083015262004ae781620046f2565b9050919050565b6000602082019050818103600083015262004b0a818462004734565b905092915050565b6000602082019050818103600083015262004b2e81846200478a565b905092915050565b6000602082019050818103600083015262004b528184620047e0565b905092915050565b6000602082019050818103600083015262004b76818462004867565b905092915050565b6000602082019050818103600083015262004b9a8184620048bd565b905092915050565b600060208201905062004bb960008301846200495c565b92915050565b600060a08201905062004bd660008301886200495c565b62004be56020830187620043a4565b62004bf46040830186620043a4565b818103606083015262004c08818562004500565b9050818103608083015262004c1e818462004500565b90509695505050505050565b600060a08201905062004c4160008301886200495c565b818103602083015262004c558187620043b5565b905062004c666040830186620043a4565b818103606083015262004c7a818562004500565b9050818103608083015262004c90818462004500565b90509695505050505050565b600060608201905062004cb360008301866200495c565b62004cc260208301856200449a565b818103604083015262004cd6818462004500565b9050949350505050565b600060608201905062004cf760008301866200495c565b818103602083015262004d0b818562004500565b905062004d1c60408301846200449a565b949350505050565b6000604051905081810181811067ffffffffffffffff8211171562004d4857600080fd5b8060405250919050565b600067ffffffffffffffff82111562004d6a57600080fd5b602082029050602081019050919050565b600067ffffffffffffffff82111562004d9357600080fd5b602082029050602081019050919050565b600067ffffffffffffffff82111562004dbc57600080fd5b601f19601f8301169050602081019050919050565b600067ffffffffffffffff82111562004de957600080fd5b601f19601f8301169050602081019050919050565b6000819050602082019050919050565b6000819050602082019050919050565b600081519050919050565b600081519050919050565b600081519050919050565b600081519050919050565b6000602082019050919050565b6000602082019050919050565b600082825260208201905092915050565b600082825260208201905092915050565b600082825260208201905092915050565b600082825260208201905092915050565b600062004eb58262004ec8565b9050919050565b60008115159050919050565b600073ffffffffffffffffffffffffffffffffffffffff82169050919050565b6000819050919050565b600062004eff8262004f06565b9050919050565b600062004f138262004ec8565b9050919050565b600062004f278262004f2e565b9050919050565b600062004f3b8262004ec8565b9050919050565b600062004f4f8262004f56565b9050919050565b600062004f638262004ec8565b9050919050565b600062004f778262004f7e565b9050919050565b600062004f8b8262004ec8565b9050919050565b600062004f9f8262004fa6565b9050919050565b600062004fb38262004ec8565b9050919050565b82818337600083830152505050565b60005b8381101562004fe957808201518184015260208101905062004fcc565b8381111562004ff9576000848401525b50505050565b6000601f19601f8301169050919050565b6200501b8162004ea8565b81146200502757600080fd5b50565b620050358162004ebc565b81146200504157600080fd5b50565b6200504f8162004ee8565b81146200505b57600080fd5b5056fe60806040523480156200001157600080fd5b5060405162000f7038038062000f7083398181016040526200003791908101906200025e565b336000806101000a81548173ffffffffffffffffffffffffffffffffffffffff021916908373ffffffffffffffffffffffffffffffffffffffff16021790555060405180606001604052808481526020018381526020018215158152506001600082015181600001556020820151816001019080519060200190620000be92919062000125565b5060408201518160020160006101000a81548160ff0219169083151502179055509050507f48e9ac09fdfdafeb4140ef8e74687e011ca621b331bce38f23da2a8420c75bd66001604051620001149190620003fb565b60405180910390a150505062000580565b828054600181600116156101000203166002900490600052602060002090601f016020900481019282601f106200016857805160ff191683800117855562000199565b8280016001018555821562000199579182015b82811115620001985782518255916020019190600101906200017b565b5b509050620001a89190620001ac565b5090565b620001d191905b80821115620001cd576000816000905550600101620001b3565b5090565b90565b600081519050620001e5816200054c565b92915050565b600082601f830112620001fd57600080fd5b8151620002146200020e826200044d565b6200041f565b915080825260208301602083018583830111156200023157600080fd5b6200023e838284620004cd565b50505092915050565b600081519050620002588162000566565b92915050565b6000806000606084860312156200027457600080fd5b6000620002848682870162000247565b935050602084015167ffffffffffffffff811115620002a257600080fd5b620002b086828701620001eb565b9250506040620002c386828701620001d4565b9150509250925092565b620002d881620004b7565b82525050565b600081546001811660008114620002fe5760018114620003275762000371565b607f60028304166200031181876200048f565b955060ff19831686526020860193505062000371565b600282046200033781876200048f565b955062000344856200047a565b60005b82811015620003685781548189015260018201915060208101905062000347565b80880195505050505b505092915050565b6000606083016000808401549050620003928162000521565b620003a16000870182620003ea565b50600184018583036020870152620003ba8382620002de565b92505060028401549050620003cf8162000503565b620003de6040870182620002cd565b50819250505092915050565b620003f581620004c3565b82525050565b6000602082019050818103600083015262000417818462000379565b905092915050565b6000604051905081810181811067ffffffffffffffff821117156200044357600080fd5b8060405250919050565b600067ffffffffffffffff8211156200046557600080fd5b601f19601f8301169050602081019050919050565b60008190508160005260206000209050919050565b600082825260208201905092915050565b600060ff82169050919050565b6000819050919050565b60008115159050919050565b6000819050919050565b60005b83811015620004ed578082015181840152602081019050620004d0565b83811115620004fd576000848401525b50505050565b60006200051a62000514836200053f565b620004a0565b9050919050565b60006200053862000532836200053f565b620004ad565b9050919050565b6000600182049050919050565b6200055781620004b7565b81146200056357600080fd5b50565b6200057181620004c3565b81146200057d57600080fd5b50565b6109e080620005906000396000f3fe608060405234801561001057600080fd5b506004361061005e576000357c0100000000000000000000000000000000000000000000000000000000900480634e32484714610063578063bc6804891461007f578063d19bacb31461009f575b600080fd5b61007d600480360361007891908101906104d6565b6100bd565b005b6100876101f2565b604051610096939291906107d5565b60405180910390f35b6100a76102af565b6040516100b49190610791565b60405180910390f35b3373ffffffffffffffffffffffffffffffffffffffff166000809054906101000a900473ffffffffffffffffffffffffffffffffffffffff1673ffffffffffffffffffffffffffffffffffffffff161461014c576040517f08c379a000000000000000000000000000000000000000000000000000000000815260040161014390610771565b60405180910390fd5b60405180606001604052808481526020018381526020018215158152506001600082015181600001556020820151816001019080519060200190610191929190610390565b5060408201518160020160006101000a81548160ff0219169083151502179055509050507ff7637263742cdba2762a4e5ce14ed8f88e7b144ef2f82b1820454d56a2d8346660016040516101e591906107b3565b60405180910390a1505050565b6001806000015490806001018054600181600116156101000203166002900480601f0160208091040260200160405190810160405280929190818152602001828054600181600116156101000203166002900480156102925780601f1061026757610100808354040283529160200191610292565b820191906000526020600020905b81548152906001019060200180831161027557829003601f168201915b5050505050908060020160009054906101000a900460ff16905083565b6102b7610410565b600160405180606001604052908160008201548152602001600182018054600181600116156101000203166002900480601f0160208091040260200160405190810160405280929190818152602001828054600181600116156101000203166002900480156103675780601f1061033c57610100808354040283529160200191610367565b820191906000526020600020905b81548152906001019060200180831161034a57829003601f168201915b505050505081526020016002820160009054906101000a900460ff161515151581525050905090565b828054600181600116156101000203166002900490600052602060002090601f016020900481019282601f106103d157805160ff19168380011785556103ff565b828001600101855582156103ff579182015b828111156103fe5782518255916020019190600101906103e3565b5b50905061040c9190610433565b5090565b604051806060016040528060008152602001606081526020016000151581525090565b61045591905b80821115610451576000816000905550600101610439565b5090565b90565b6000813590506104678161096f565b92915050565b600082601f83011261047e57600080fd5b813561049161048c82610840565b610813565b915080825260208301602083018583830111156104ad57600080fd5b6104b88382846108db565b50505092915050565b6000813590506104d081610986565b92915050565b6000806000606084860312156104eb57600080fd5b60006104f9868287016104c1565b935050602084013567ffffffffffffffff81111561051657600080fd5b6105228682870161046d565b925050604061053386828701610458565b9150509250925092565b610546816108c5565b82525050565b610555816108c5565b82525050565b600061056682610881565b610570818561088c565b93506105808185602086016108ea565b61058981610951565b840191505092915050565b600061059f82610881565b6105a9818561089d565b93506105b98185602086016108ea565b6105c281610951565b840191505092915050565b6000815460018116600081146105ea576001811461061057610654565b607f60028304166105fb818761088c565b955060ff198316865260208601935050610654565b6002820461061e818761088c565b95506106298561086c565b60005b8281101561064b5781548189015260018201915060208101905061062c565b80880195505050505b505092915050565b600061066960208361089d565b91507f4f776e61626c653a2063616c6c6572206973206e6f7420746865206f776e65726000830152602082019050919050565b60006060830160008301516106b46000860182610753565b50602083015184820360208601526106cc828261055b565b91505060408301516106e1604086018261053d565b508091505092915050565b600060608301600080840154905061070381610937565b6107106000870182610753565b5060018401858303602087015261072783826105cd565b9250506002840154905061073a8161091d565b610747604087018261053d565b50819250505092915050565b61075c816108d1565b82525050565b61076b816108d1565b82525050565b6000602082019050818103600083015261078a8161065c565b9050919050565b600060208201905081810360008301526107ab818461069c565b905092915050565b600060208201905081810360008301526107cd81846106ec565b905092915050565b60006060820190506107ea6000830186610762565b81810360208301526107fc8185610594565b905061080b604083018461054c565b949350505050565b6000604051905081810181811067ffffffffffffffff8211171561083657600080fd5b8060405250919050565b600067ffffffffffffffff82111561085757600080fd5b601f19601f8301169050602081019050919050565b60008190508160005260206000209050919050565b600081519050919050565b600082825260208201905092915050565b600082825260208201905092915050565b600060ff82169050919050565b6000819050919050565b60008115159050919050565b6000819050919050565b82818337600083830152505050565b60005b838110156109085780820151818401526020810190506108ed565b83811115610917576000848401525b50505050565b600061093061092b83610962565b6108ae565b9050919050565b600061094a61094583610962565b6108bb565b9050919050565b6000601f19601f8301169050919050565b6000600182049050919050565b610978816108c5565b811461098357600080fd5b50565b61098f816108d1565b811461099a57600080fd5b5056fea365627a7a723058203084c7cf0dbd52f1a89a13c50092b5a176552e482663457a95dd3a74302e26856c6578706572696d656e74616cf564736f6c6343000509004060806040523480156200001157600080fd5b50604051620019cb380380620019cb833981810160405262000037919081019062000447565b336000806101000a81548173ffffffffffffffffffffffffffffffffffffffff021916908373ffffffffffffffffffffffffffffffffffffffff1602179055506040518060a001604052808681526020018581526020018473ffffffffffffffffffffffffffffffffffffffff168152602001838152602001828152506001600082015181600001556020820151816001019080519060200190620000de929190620001ac565b5060408201518160020160006101000a81548173ffffffffffffffffffffffffffffffffffffffff021916908373ffffffffffffffffffffffffffffffffffffffff1602179055506060820151816003019080519060200190620001449291906200023b565b506080820151816004019080519060200190620001639291906200023b565b509050507ffc04f83ce3cba9c08374f889767719b1d5a30b64673cfaacf47d54a0c312391f600160405162000199919062000705565b60405180910390a1505050505062000941565b82805482825590600052602060002090810192821562000228579160200282015b82811115620002275782518260006101000a81548173ffffffffffffffffffffffffffffffffffffffff021916908373ffffffffffffffffffffffffffffffffffffffff16021790555091602001919060010190620001cd565b5b509050620002379190620002c2565b5090565b828054600181600116156101000203166002900490600052602060002090601f016020900481019282601f106200027e57805160ff1916838001178555620002af565b82800160010185558215620002af579182015b82811115620002ae57825182559160200191906001019062000291565b5b509050620002be919062000308565b5090565b6200030591905b808211156200030157600081816101000a81549073ffffffffffffffffffffffffffffffffffffffff021916905550600101620002c9565b5090565b90565b6200032d91905b80821115620003295760008160009055506001016200030f565b5090565b90565b60008151905062000341816200090d565b92915050565b600082601f8301126200035957600080fd5b8151620003706200036a8262000757565b62000729565b915081818352602084019350602081019050838560208402820111156200039657600080fd5b60005b83811015620003ca5781620003af888262000330565b84526020840193506020830192505060018101905062000399565b5050505092915050565b600082601f830112620003e657600080fd5b8151620003fd620003f78262000780565b62000729565b915080825260208301602083018583830111156200041a57600080fd5b6200042783828462000879565b50505092915050565b600081519050620004418162000927565b92915050565b600080600080600060a086880312156200046057600080fd5b6000620004708882890162000430565b955050602086015167ffffffffffffffff8111156200048e57600080fd5b6200049c8882890162000347565b9450506040620004af8882890162000330565b935050606086015167ffffffffffffffff811115620004cd57600080fd5b620004db88828901620003d4565b925050608086015167ffffffffffffffff811115620004f957600080fd5b6200050788828901620003d4565b9150509295509295909350565b60006200052283836200052e565b60208301905092915050565b62000539816200083b565b82525050565b60006200054c82620007d7565b620005588185620007ef565b93506200056583620007ad565b8060005b83811015620005a5576200057d82620008eb565b62000589888262000514565b97506200059683620007e2565b92505060018101905062000569565b5085935050505092915050565b600081546001811660008114620005d25760018114620005fb5762000645565b607f6002830416620005e5818762000800565b955060ff19831686526020860193505062000645565b600282046200060b818762000800565b95506200061885620007c2565b60005b828110156200063c578154818901526001820191506020810190506200061b565b80880195505050505b505092915050565b600060a0830160008084015490506200066681620008cd565b620006756000870182620006f4565b506001840185830360208701526200068e83826200053f565b92505060028401549050620006a381620008af565b620006b260408701826200052e565b50600384018583036060870152620006cb8382620005b2565b925050600484018583036080870152620006e68382620005b2565b925050819250505092915050565b620006ff816200086f565b82525050565b600060208201905081810360008301526200072181846200064d565b905092915050565b6000604051905081810181811067ffffffffffffffff821117156200074d57600080fd5b8060405250919050565b600067ffffffffffffffff8211156200076f57600080fd5b602082029050602081019050919050565b600067ffffffffffffffff8211156200079857600080fd5b601f19601f8301169050602081019050919050565b60008190508160005260206000209050919050565b60008190508160005260206000209050919050565b600081549050919050565b6000600182019050919050565b600082825260208201905092915050565b600082825260208201905092915050565b600073ffffffffffffffffffffffffffffffffffffffff82169050919050565b6000819050919050565b600062000848826200084f565b9050919050565b600073ffffffffffffffffffffffffffffffffffffffff82169050919050565b6000819050919050565b60005b83811015620008995780820151818401526020810190506200087c565b83811115620008a9576000848401525b50505050565b6000620008c6620008c08362000900565b62000811565b9050919050565b6000620008e4620008de8362000900565b62000831565b9050919050565b6000620008f98254620008af565b9050919050565b6000600182049050919050565b62000918816200083b565b81146200092457600080fd5b50565b62000932816200086f565b81146200093e57600080fd5b50565b61107a80620009516000396000f3fe608060405234801561001057600080fd5b506004361061005e576000357c010000000000000000000000000000000000000000000000000000000090048063918692bd1461006357806397564bdb14610084578063e048c222146100a2575b600080fd5b61006b6100be565b60405161007b9493929190610d80565b60405180910390f35b61008c61022c565b6040516100999190610d3c565b60405180910390f35b6100bc60048036036100b791908101906108e8565b610478565b005b60018060000154908060020160009054906101000a900473ffffffffffffffffffffffffffffffffffffffff1690806003018054600181600116156101000203166002900480601f0160208091040260200160405190810160405280929190818152602001828054600181600116156101000203166002900480156101845780601f1061015957610100808354040283529160200191610184565b820191906000526020600020905b81548152906001019060200180831161016757829003601f168201915b505050505090806004018054600181600116156101000203166002900480601f0160208091040260200160405190810160405280929190818152602001828054600181600116156101000203166002900480156102225780601f106101f757610100808354040283529160200191610222565b820191906000526020600020905b81548152906001019060200180831161020557829003601f168201915b5050505050905084565b610234610630565b60016040518060a001604052908160008201548152602001600182018054806020026020016040519081016040528092919081815260200182805480156102d057602002820191906000526020600020905b8160009054906101000a900473ffffffffffffffffffffffffffffffffffffffff1673ffffffffffffffffffffffffffffffffffffffff1681526020019060010190808311610286575b505050505081526020016002820160009054906101000a900473ffffffffffffffffffffffffffffffffffffffff1673ffffffffffffffffffffffffffffffffffffffff1673ffffffffffffffffffffffffffffffffffffffff168152602001600382018054600181600116156101000203166002900480601f0160208091040260200160405190810160405280929190818152602001828054600181600116156101000203166002900480156103c85780601f1061039d576101008083540402835291602001916103c8565b820191906000526020600020905b8154815290600101906020018083116103ab57829003601f168201915b50505050508152602001600482018054600181600116156101000203166002900480601f01602080910402602001604051908101604052809291908181526020018280546001816001161561010002031660029004801561046a5780601f1061043f5761010080835404028352916020019161046a565b820191906000526020600020905b81548152906001019060200180831161044d57829003601f168201915b505050505081525050905090565b3373ffffffffffffffffffffffffffffffffffffffff166000809054906101000a900473ffffffffffffffffffffffffffffffffffffffff1673ffffffffffffffffffffffffffffffffffffffff1614610507576040517f08c379a00000000000000000000000000000000000000000000000000000000081526004016104fe90610d1c565b60405180910390fd5b6040518060a001604052808681526020018581526020018473ffffffffffffffffffffffffffffffffffffffff16815260200183815260200182815250600160008201518160000155602082015181600101908051906020019061056c929190610675565b5060408201518160020160006101000a81548173ffffffffffffffffffffffffffffffffffffffff021916908373ffffffffffffffffffffffffffffffffffffffff16021790555060608201518160030190805190602001906105d09291906106ff565b5060808201518160040190805190602001906105ed9291906106ff565b509050507faa90b7508aa0d8c66d1effa64f4d00ac2c1253aafd3a2fd056175cd252c9188e60016040516106219190610d5e565b60405180910390a15050505050565b6040518060a001604052806000815260200160608152602001600073ffffffffffffffffffffffffffffffffffffffff16815260200160608152602001606081525090565b8280548282559060005260206000209081019282156106ee579160200282015b828111156106ed5782518260006101000a81548173ffffffffffffffffffffffffffffffffffffffff021916908373ffffffffffffffffffffffffffffffffffffffff16021790555091602001919060010190610695565b5b5090506106fb919061077f565b5090565b828054600181600116156101000203166002900490600052602060002090601f016020900481019282601f1061074057805160ff191683800117855561076e565b8280016001018555821561076e579182015b8281111561076d578251825591602001919060010190610752565b5b50905061077b91906107c2565b5090565b6107bf91905b808211156107bb57600081816101000a81549073ffffffffffffffffffffffffffffffffffffffff021916905550600101610785565b5090565b90565b6107e491905b808211156107e05760008160009055506001016107c8565b5090565b90565b6000813590506107f681611009565b92915050565b600082601f83011261080d57600080fd5b813561082061081b82610e00565b610dd3565b9150818183526020840193506020810190508385602084028201111561084557600080fd5b60005b83811015610875578161085b88826107e7565b845260208401935060208301925050600181019050610848565b5050505092915050565b600082601f83011261089057600080fd5b81356108a361089e82610e28565b610dd3565b915080825260208301602083018583830111156108bf57600080fd5b6108ca838284610f62565b50505092915050565b6000813590506108e281611020565b92915050565b600080600080600060a0868803121561090057600080fd5b600061090e888289016108d3565b955050602086013567ffffffffffffffff81111561092b57600080fd5b610937888289016107fc565b9450506040610948888289016107e7565b935050606086013567ffffffffffffffff81111561096557600080fd5b6109718882890161087f565b925050608086013567ffffffffffffffff81111561098e57600080fd5b61099a8882890161087f565b9150509295509295909350565b60006109b383836109bf565b60208301905092915050565b6109c881610f26565b82525050565b6109d781610f26565b82525050565b60006109e882610e8e565b6109f28185610ec9565b93506109fd83610e54565b8060005b83811015610a2e578151610a1588826109a7565b9750610a2083610eaf565b925050600181019050610a01565b5085935050505092915050565b6000610a4682610e99565b610a508185610ec9565b9350610a5b83610e64565b8060005b83811015610a9357610a7082610fd8565b610a7a88826109a7565b9750610a8583610ebc565b925050600181019050610a5f565b5085935050505092915050565b6000610aab82610ea4565b610ab58185610eda565b9350610ac5818560208601610f71565b610ace81610feb565b840191505092915050565b6000610ae482610ea4565b610aee8185610eeb565b9350610afe818560208601610f71565b610b0781610feb565b840191505092915050565b600081546001811660008114610b2f5760018114610b5557610b99565b607f6002830416610b408187610eda565b955060ff198316865260208601935050610b99565b60028204610b638187610eda565b9550610b6e85610e79565b60005b82811015610b9057815481890152600182019150602081019050610b71565b80880195505050505b505092915050565b6000610bae602083610eeb565b91507f4f776e61626c653a2063616c6c6572206973206e6f7420746865206f776e65726000830152602082019050919050565b600060a083016000830151610bf96000860182610cfe565b5060208301518482036020860152610c1182826109dd565b9150506040830151610c2660408601826109bf565b5060608301518482036060860152610c3e8282610aa0565b91505060808301518482036080860152610c588282610aa0565b9150508091505092915050565b600060a083016000808401549050610c7c81610fbe565b610c896000870182610cfe565b50600184018583036020870152610ca08382610a3b565b92505060028401549050610cb381610fa4565b610cc060408701826109bf565b50600384018583036060870152610cd78382610b12565b925050600484018583036080870152610cf08382610b12565b925050819250505092915050565b610d0781610f58565b82525050565b610d1681610f58565b82525050565b60006020820190508181036000830152610d3581610ba1565b9050919050565b60006020820190508181036000830152610d568184610be1565b905092915050565b60006020820190508181036000830152610d788184610c65565b905092915050565b6000608082019050610d956000830187610d0d565b610da260208301866109ce565b8181036040830152610db48185610ad9565b90508181036060830152610dc88184610ad9565b905095945050505050565b6000604051905081810181811067ffffffffffffffff82111715610df657600080fd5b8060405250919050565b600067ffffffffffffffff821115610e1757600080fd5b602082029050602081019050919050565b600067ffffffffffffffff821115610e3f57600080fd5b601f19601f8301169050602081019050919050565b6000819050602082019050919050565b60008190508160005260206000209050919050565b60008190508160005260206000209050919050565b600081519050919050565b600081549050919050565b600081519050919050565b6000602082019050919050565b6000600182019050919050565b600082825260208201905092915050565b600082825260208201905092915050565b600082825260208201905092915050565b600073ffffffffffffffffffffffffffffffffffffffff82169050919050565b6000819050919050565b6000610f3182610f38565b9050919050565b600073ffffffffffffffffffffffffffffffffffffffff82169050919050565b6000819050919050565b82818337600083830152505050565b60005b83811015610f8f578082015181840152602081019050610f74565b83811115610f9e576000848401525b50505050565b6000610fb7610fb283610ffc565b610efc565b9050919050565b6000610fd1610fcc83610ffc565b610f1c565b9050919050565b6000610fe48254610fa4565b9050919050565b6000601f19601f8301169050919050565b6000600182049050919050565b61101281610f26565b811461101d57600080fd5b50565b61102981610f58565b811461103457600080fd5b5056fea365627a7a72305820bf9f4c29db163a7a8a350ae24f1359455468683262165e3c6f77a8adf51baef96c6578706572696d656e74616cf564736f6c6343000509004060806040523480156200001157600080fd5b5060405162000f7038038062000f7083398181016040526200003791908101906200025e565b336000806101000a81548173ffffffffffffffffffffffffffffffffffffffff021916908373ffffffffffffffffffffffffffffffffffffffff160217905550604051806060016040528084815260200183151581526020018281525060016000820151816000015560208201518160010160006101000a81548160ff0219169083151502179055506040820151816002019080519060200190620000de92919062000125565b509050507fab01c77628db722f9bee598738589abf28e3878c23787c9467e0e75c800653e56001604051620001149190620003fb565b60405180910390a150505062000580565b828054600181600116156101000203166002900490600052602060002090601f016020900481019282601f106200016857805160ff191683800117855562000199565b8280016001018555821562000199579182015b82811115620001985782518255916020019190600101906200017b565b5b509050620001a89190620001ac565b5090565b620001d191905b80821115620001cd576000816000905550600101620001b3565b5090565b90565b600081519050620001e5816200054c565b92915050565b600082601f830112620001fd57600080fd5b8151620002146200020e826200044d565b6200041f565b915080825260208301602083018583830111156200023157600080fd5b6200023e838284620004cd565b50505092915050565b600081519050620002588162000566565b92915050565b6000806000606084860312156200027457600080fd5b6000620002848682870162000247565b93505060206200029786828701620001d4565b925050604084015167ffffffffffffffff811115620002b557600080fd5b620002c386828701620001eb565b9150509250925092565b620002d881620004b7565b82525050565b600081546001811660008114620002fe5760018114620003275762000371565b607f60028304166200031181876200048f565b955060ff19831686526020860193505062000371565b600282046200033781876200048f565b955062000344856200047a565b60005b82811015620003685781548189015260018201915060208101905062000347565b80880195505050505b505092915050565b6000606083016000808401549050620003928162000521565b620003a16000870182620003ea565b5060018401549050620003b48162000503565b620003c36020870182620002cd565b50600284018583036040870152620003dc8382620002de565b925050819250505092915050565b620003f581620004c3565b82525050565b6000602082019050818103600083015262000417818462000379565b905092915050565b6000604051905081810181811067ffffffffffffffff821117156200044357600080fd5b8060405250919050565b600067ffffffffffffffff8211156200046557600080fd5b601f19601f8301169050602081019050919050565b60008190508160005260206000209050919050565b600082825260208201905092915050565b600060ff82169050919050565b6000819050919050565b60008115159050919050565b6000819050919050565b60005b83811015620004ed578082015181840152602081019050620004d0565b83811115620004fd576000848401525b50505050565b60006200051a62000514836200053f565b620004a0565b9050919050565b60006200053862000532836200053f565b620004ad565b9050919050565b6000600182049050919050565b6200055781620004b7565b81146200056357600080fd5b50565b6200057181620004c3565b81146200057d57600080fd5b50565b6109e080620005906000396000f3fe608060405234801561001057600080fd5b506004361061005e576000357c01000000000000000000000000000000000000000000000000000000009004806397d6a5e014610063578063b983488614610081578063e3e2e6921461009d575b600080fd5b61006b6100bd565b6040516100789190610791565b60405180910390f35b61009b600480360361009691908101906104d6565b61019e565b005b6100a56102d3565b6040516100b4939291906107d5565b60405180910390f35b6100c5610390565b6001604051806060016040529081600082015481526020016001820160009054906101000a900460ff16151515158152602001600282018054600181600116156101000203166002900480601f0160208091040260200160405190810160405280929190818152602001828054600181600116156101000203166002900480156101905780601f1061016557610100808354040283529160200191610190565b820191906000526020600020905b81548152906001019060200180831161017357829003601f168201915b505050505081525050905090565b3373ffffffffffffffffffffffffffffffffffffffff166000809054906101000a900473ffffffffffffffffffffffffffffffffffffffff1673ffffffffffffffffffffffffffffffffffffffff161461022d576040517f08c379a000000000000000000000000000000000000000000000000000000000815260040161022490610771565b60405180910390fd5b604051806060016040528084815260200183151581526020018281525060016000820151816000015560208201518160010160006101000a81548160ff02191690831515021790555060408201518160020190805190602001906102929291906103b3565b509050507fa7b8deb5e1c3251e0a08b8ae887f23970beb70cec1244ee40e64005c5b8e77ce60016040516102c691906107b3565b60405180910390a1505050565b60018060000154908060010160009054906101000a900460ff1690806002018054600181600116156101000203166002900480601f0160208091040260200160405190810160405280929190818152602001828054600181600116156101000203166002900480156103865780601f1061035b57610100808354040283529160200191610386565b820191906000526020600020905b81548152906001019060200180831161036957829003601f168201915b5050505050905083565b604051806060016040528060008152602001600015158152602001606081525090565b828054600181600116156101000203166002900490600052602060002090601f016020900481019282601f106103f457805160ff1916838001178555610422565b82800160010185558215610422579182015b82811115610421578251825591602001919060010190610406565b5b50905061042f9190610433565b5090565b61045591905b80821115610451576000816000905550600101610439565b5090565b90565b6000813590506104678161096f565b92915050565b600082601f83011261047e57600080fd5b813561049161048c82610840565b610813565b915080825260208301602083018583830111156104ad57600080fd5b6104b88382846108db565b50505092915050565b6000813590506104d081610986565b92915050565b6000806000606084860312156104eb57600080fd5b60006104f9868287016104c1565b935050602061050a86828701610458565b925050604084013567ffffffffffffffff81111561052757600080fd5b6105338682870161046d565b9150509250925092565b610546816108c5565b82525050565b610555816108c5565b82525050565b600061056682610881565b610570818561088c565b93506105808185602086016108ea565b61058981610951565b840191505092915050565b600061059f82610881565b6105a9818561089d565b93506105b98185602086016108ea565b6105c281610951565b840191505092915050565b6000815460018116600081146105ea576001811461061057610654565b607f60028304166105fb818761088c565b955060ff198316865260208601935050610654565b6002820461061e818761088c565b95506106298561086c565b60005b8281101561064b5781548189015260018201915060208101905061062c565b80880195505050505b505092915050565b600061066960208361089d565b91507f4f776e61626c653a2063616c6c6572206973206e6f7420746865206f776e65726000830152602082019050919050565b60006060830160008301516106b46000860182610753565b5060208301516106c7602086018261053d565b50604083015184820360408601526106df828261055b565b9150508091505092915050565b600060608301600080840154905061070381610937565b6107106000870182610753565b50600184015490506107218161091d565b61072e602087018261053d565b5060028401858303604087015261074583826105cd565b925050819250505092915050565b61075c816108d1565b82525050565b61076b816108d1565b82525050565b6000602082019050818103600083015261078a8161065c565b9050919050565b600060208201905081810360008301526107ab818461069c565b905092915050565b600060208201905081810360008301526107cd81846106ec565b905092915050565b60006060820190506107ea6000830186610762565b6107f7602083018561054c565b81810360408301526108098184610594565b9050949350505050565b6000604051905081810181811067ffffffffffffffff8211171561083657600080fd5b8060405250919050565b600067ffffffffffffffff82111561085757600080fd5b601f19601f8301169050602081019050919050565b60008190508160005260206000209050919050565b600081519050919050565b600082825260208201905092915050565b600082825260208201905092915050565b600060ff82169050919050565b6000819050919050565b60008115159050919050565b6000819050919050565b82818337600083830152505050565b60005b838110156109085780820151818401526020810190506108ed565b83811115610917576000848401525b50505050565b600061093061092b83610962565b6108ae565b9050919050565b600061094a61094583610962565b6108bb565b9050919050565b6000601f19601f8301169050919050565b6000600182049050919050565b610978816108c5565b811461098357600080fd5b50565b61098f816108d1565b811461099a57600080fd5b5056fea365627a7a7230582058e8ccff9b4b20b8cd24cc74b6235ef2c0bc426a3419ec042931721e289b1acf6c6578706572696d656e74616cf564736f6c6343000509004060806040523480156200001157600080fd5b50604051620014f9380380620014f9833981810160405262000037919081019062000323565b336000806101000a81548173ffffffffffffffffffffffffffffffffffffffff021916908373ffffffffffffffffffffffffffffffffffffffff1602179055506040518060a001604052808681526020018573ffffffffffffffffffffffffffffffffffffffff1681526020018473ffffffffffffffffffffffffffffffffffffffff1681526020018381526020018281525060016000820151816000015560208201518160010160006101000a81548173ffffffffffffffffffffffffffffffffffffffff021916908373ffffffffffffffffffffffffffffffffffffffff16021790555060408201518160020160006101000a81548173ffffffffffffffffffffffffffffffffffffffff021916908373ffffffffffffffffffffffffffffffffffffffff160217905550606082015181600301908051906020019062000182929190620001ea565b506080820151816004019080519060200190620001a1929190620001ea565b509050507f338b479f1bf5bbfeef4ab03fa2df643460cd92088c6df504e7df0f6c3f07a5916001604051620001d7919062000542565b60405180910390a1505050505062000702565b828054600181600116156101000203166002900490600052602060002090601f016020900481019282601f106200022d57805160ff19168380011785556200025e565b828001600101855582156200025e579182015b828111156200025d57825182559160200191906001019062000240565b5b5090506200026d919062000271565b5090565b6200029691905b808211156200029257600081600090555060010162000278565b5090565b90565b600081519050620002aa81620006ce565b92915050565b600082601f830112620002c257600080fd5b8151620002d9620002d38262000594565b62000566565b91508082526020830160208301858383011115620002f657600080fd5b620003038382846200064f565b50505092915050565b6000815190506200031d81620006e8565b92915050565b600080600080600060a086880312156200033c57600080fd5b60006200034c888289016200030c565b95505060206200035f8882890162000299565b9450506040620003728882890162000299565b935050606086015167ffffffffffffffff8111156200039057600080fd5b6200039e88828901620002b0565b925050608086015167ffffffffffffffff811115620003bc57600080fd5b620003ca88828901620002b0565b9150509295509295909350565b620003e28162000611565b82525050565b60008154600181166000811462000408576001811462000431576200047b565b607f60028304166200041b8187620005d6565b955060ff1983168652602086019350506200047b565b60028204620004418187620005d6565b95506200044e85620005c1565b60005b82811015620004725781548189015260018201915060208101905062000451565b80880195505050505b505092915050565b600060a0830160008084015490506200049c81620006a3565b620004ab600087018262000531565b5060018401549050620004be8162000685565b620004cd6020870182620003d7565b5060028401549050620004e08162000685565b620004ef6040870182620003d7565b50600384018583036060870152620005088382620003e8565b925050600484018583036080870152620005238382620003e8565b925050819250505092915050565b6200053c8162000645565b82525050565b600060208201905081810360008301526200055e818462000483565b905092915050565b6000604051905081810181811067ffffffffffffffff821117156200058a57600080fd5b8060405250919050565b600067ffffffffffffffff821115620005ac57600080fd5b601f19601f8301169050602081019050919050565b60008190508160005260206000209050919050565b600082825260208201905092915050565b600073ffffffffffffffffffffffffffffffffffffffff82169050919050565b6000819050919050565b60006200061e8262000625565b9050919050565b600073ffffffffffffffffffffffffffffffffffffffff82169050919050565b6000819050919050565b60005b838110156200066f57808201518184015260208101905062000652565b838111156200067f576000848401525b50505050565b60006200069c6200069683620006c1565b620005e7565b9050919050565b6000620006ba620006b483620006c1565b62000607565b9050919050565b6000600182049050919050565b620006d98162000611565b8114620006e557600080fd5b50565b620006f38162000645565b8114620006ff57600080fd5b50565b610de780620007126000396000f3fe608060405234801561001057600080fd5b506004361061005e576000357c0100000000000000000000000000000000000000000000000000000000900480630bda63ec14610063578063178d4e4b14610085578063a62428da146100a3575b600080fd5b61006b6100bf565b60405161007c959493929190610b80565b60405180910390f35b61008d610253565b60405161009a9190610b3c565b60405180910390f35b6100bd60048036036100b891908101906107dd565b610467565b005b60018060000154908060010160009054906101000a900473ffffffffffffffffffffffffffffffffffffffff16908060020160009054906101000a900473ffffffffffffffffffffffffffffffffffffffff1690806003018054600181600116156101000203166002900480601f0160208091040260200160405190810160405280929190818152602001828054600181600116156101000203166002900480156101ab5780601f10610180576101008083540402835291602001916101ab565b820191906000526020600020905b81548152906001019060200180831161018e57829003601f168201915b505050505090806004018054600181600116156101000203166002900480601f0160208091040260200160405190810160405280929190818152602001828054600181600116156101000203166002900480156102495780601f1061021e57610100808354040283529160200191610249565b820191906000526020600020905b81548152906001019060200180831161022c57829003601f168201915b5050505050905085565b61025b61065f565b60016040518060a0016040529081600082015481526020016001820160009054906101000a900473ffffffffffffffffffffffffffffffffffffffff1673ffffffffffffffffffffffffffffffffffffffff1673ffffffffffffffffffffffffffffffffffffffff1681526020016002820160009054906101000a900473ffffffffffffffffffffffffffffffffffffffff1673ffffffffffffffffffffffffffffffffffffffff1673ffffffffffffffffffffffffffffffffffffffff168152602001600382018054600181600116156101000203166002900480601f0160208091040260200160405190810160405280929190818152602001828054600181600116156101000203166002900480156103b75780601f1061038c576101008083540402835291602001916103b7565b820191906000526020600020905b81548152906001019060200180831161039a57829003601f168201915b50505050508152602001600482018054600181600116156101000203166002900480601f0160208091040260200160405190810160405280929190818152602001828054600181600116156101000203166002900480156104595780601f1061042e57610100808354040283529160200191610459565b820191906000526020600020905b81548152906001019060200180831161043c57829003601f168201915b505050505081525050905090565b3373ffffffffffffffffffffffffffffffffffffffff166000809054906101000a900473ffffffffffffffffffffffffffffffffffffffff1673ffffffffffffffffffffffffffffffffffffffff16146104f6576040517f08c379a00000000000000000000000000000000000000000000000000000000081526004016104ed90610b1c565b60405180910390fd5b6040518060a001604052808681526020018573ffffffffffffffffffffffffffffffffffffffff1681526020018473ffffffffffffffffffffffffffffffffffffffff1681526020018381526020018281525060016000820151816000015560208201518160010160006101000a81548173ffffffffffffffffffffffffffffffffffffffff021916908373ffffffffffffffffffffffffffffffffffffffff16021790555060408201518160020160006101000a81548173ffffffffffffffffffffffffffffffffffffffff021916908373ffffffffffffffffffffffffffffffffffffffff16021790555060608201518160030190805190602001906105ff9291906106ba565b50608082015181600401908051906020019061061c9291906106ba565b509050507fdbf03950089b60a5a275a9aaeb5f5f22a387395b509bb21a216246d5f1970d0760016040516106509190610b5e565b60405180910390a15050505050565b6040518060a0016040528060008152602001600073ffffffffffffffffffffffffffffffffffffffff168152602001600073ffffffffffffffffffffffffffffffffffffffff16815260200160608152602001606081525090565b828054600181600116156101000203166002900490600052602060002090601f016020900481019282601f106106fb57805160ff1916838001178555610729565b82800160010185558215610729579182015b8281111561072857825182559160200191906001019061070d565b5b509050610736919061073a565b5090565b61075c91905b80821115610758576000816000905550600101610740565b5090565b90565b60008135905061076e81610d76565b92915050565b600082601f83011261078557600080fd5b813561079861079382610c0e565b610be1565b915080825260208301602083018583830111156107b457600080fd5b6107bf838284610ce2565b50505092915050565b6000813590506107d781610d8d565b92915050565b600080600080600060a086880312156107f557600080fd5b6000610803888289016107c8565b95505060206108148882890161075f565b94505060406108258882890161075f565b935050606086013567ffffffffffffffff81111561084257600080fd5b61084e88828901610774565b925050608086013567ffffffffffffffff81111561086b57600080fd5b61087788828901610774565b9150509295509295909350565b61088d81610ca6565b82525050565b61089c81610ca6565b82525050565b60006108ad82610c4f565b6108b78185610c5a565b93506108c7818560208601610cf1565b6108d081610d58565b840191505092915050565b60006108e682610c4f565b6108f08185610c6b565b9350610900818560208601610cf1565b61090981610d58565b840191505092915050565b60008154600181166000811461093157600181146109575761099b565b607f60028304166109428187610c5a565b955060ff19831686526020860193505061099b565b600282046109658187610c5a565b955061097085610c3a565b60005b8281101561099257815481890152600182019150602081019050610973565b80880195505050505b505092915050565b60006109b0602083610c6b565b91507f4f776e61626c653a2063616c6c6572206973206e6f7420746865206f776e65726000830152602082019050919050565b600060a0830160008301516109fb6000860182610afe565b506020830151610a0e6020860182610884565b506040830151610a216040860182610884565b5060608301518482036060860152610a3982826108a2565b91505060808301518482036080860152610a5382826108a2565b9150508091505092915050565b600060a083016000808401549050610a7781610d3e565b610a846000870182610afe565b5060018401549050610a9581610d24565b610aa26020870182610884565b5060028401549050610ab381610d24565b610ac06040870182610884565b50600384018583036060870152610ad78382610914565b925050600484018583036080870152610af08382610914565b925050819250505092915050565b610b0781610cd8565b82525050565b610b1681610cd8565b82525050565b60006020820190508181036000830152610b35816109a3565b9050919050565b60006020820190508181036000830152610b5681846109e3565b905092915050565b60006020820190508181036000830152610b788184610a60565b905092915050565b600060a082019050610b956000830188610b0d565b610ba26020830187610893565b610baf6040830186610893565b8181036060830152610bc181856108db565b90508181036080830152610bd581846108db565b90509695505050505050565b6000604051905081810181811067ffffffffffffffff82111715610c0457600080fd5b8060405250919050565b600067ffffffffffffffff821115610c2557600080fd5b601f19601f8301169050602081019050919050565b60008190508160005260206000209050919050565b600081519050919050565b600082825260208201905092915050565b600082825260208201905092915050565b600073ffffffffffffffffffffffffffffffffffffffff82169050919050565b6000819050919050565b6000610cb182610cb8565b9050919050565b600073ffffffffffffffffffffffffffffffffffffffff82169050919050565b6000819050919050565b82818337600083830152505050565b60005b83811015610d0f578082015181840152602081019050610cf4565b83811115610d1e576000848401525b50505050565b6000610d37610d3283610d69565b610c7c565b9050919050565b6000610d51610d4c83610d69565b610c9c565b9050919050565b6000601f19601f8301169050919050565b6000600182049050919050565b610d7f81610ca6565b8114610d8a57600080fd5b50565b610d9681610cd8565b8114610da157600080fd5b5056fea365627a7a723058207828205bf4692f078c3895e3b418b9145ef99ddfd9c0007acac160b53ee74e226c6578706572696d656e74616cf564736f6c6343000509004060806040523480156200001157600080fd5b5060405162000f7038038062000f7083398181016040526200003791908101906200025e565b336000806101000a81548173ffffffffffffffffffffffffffffffffffffffff021916908373ffffffffffffffffffffffffffffffffffffffff16021790555060405180606001604052808481526020018381526020018215158152506001600082015181600001556020820151816001019080519060200190620000be92919062000125565b5060408201518160020160006101000a81548160ff0219169083151502179055509050507f17a23c2f19d397f6f9b046c8c35f2eeb65861a4adc456487abfca6ea80956d306001604051620001149190620003fb565b60405180910390a150505062000580565b828054600181600116156101000203166002900490600052602060002090601f016020900481019282601f106200016857805160ff191683800117855562000199565b8280016001018555821562000199579182015b82811115620001985782518255916020019190600101906200017b565b5b509050620001a89190620001ac565b5090565b620001d191905b80821115620001cd576000816000905550600101620001b3565b5090565b90565b600081519050620001e5816200054c565b92915050565b600082601f830112620001fd57600080fd5b8151620002146200020e826200044d565b6200041f565b915080825260208301602083018583830111156200023157600080fd5b6200023e838284620004cd565b50505092915050565b600081519050620002588162000566565b92915050565b6000806000606084860312156200027457600080fd5b6000620002848682870162000247565b935050602084015167ffffffffffffffff811115620002a257600080fd5b620002b086828701620001eb565b9250506040620002c386828701620001d4565b9150509250925092565b620002d881620004b7565b82525050565b600081546001811660008114620002fe5760018114620003275762000371565b607f60028304166200031181876200048f565b955060ff19831686526020860193505062000371565b600282046200033781876200048f565b955062000344856200047a565b60005b82811015620003685781548189015260018201915060208101905062000347565b80880195505050505b505092915050565b6000606083016000808401549050620003928162000521565b620003a16000870182620003ea565b50600184018583036020870152620003ba8382620002de565b92505060028401549050620003cf8162000503565b620003de6040870182620002cd565b50819250505092915050565b620003f581620004c3565b82525050565b6000602082019050818103600083015262000417818462000379565b905092915050565b6000604051905081810181811067ffffffffffffffff821117156200044357600080fd5b8060405250919050565b600067ffffffffffffffff8211156200046557600080fd5b601f19601f8301169050602081019050919050565b60008190508160005260206000209050919050565b600082825260208201905092915050565b600060ff82169050919050565b6000819050919050565b60008115159050919050565b6000819050919050565b60005b83811015620004ed578082015181840152602081019050620004d0565b83811115620004fd576000848401525b50505050565b60006200051a62000514836200053f565b620004a0565b9050919050565b60006200053862000532836200053f565b620004ad565b9050919050565b6000600182049050919050565b6200055781620004b7565b81146200056357600080fd5b50565b6200057181620004c3565b81146200057d57600080fd5b50565b6109e080620005906000396000f3fe608060405234801561001057600080fd5b506004361061005e576000357c0100000000000000000000000000000000000000000000000000000000900480634e3248471461006357806360c332141461007f578063b11aa0451461009f575b600080fd5b61007d600480360361007891908101906104d6565b6100bd565b005b6100876101f2565b604051610096939291906107d5565b60405180910390f35b6100a76102af565b6040516100b49190610791565b60405180910390f35b3373ffffffffffffffffffffffffffffffffffffffff166000809054906101000a900473ffffffffffffffffffffffffffffffffffffffff1673ffffffffffffffffffffffffffffffffffffffff161461014c576040517f08c379a000000000000000000000000000000000000000000000000000000000815260040161014390610771565b60405180910390fd5b60405180606001604052808481526020018381526020018215158152506001600082015181600001556020820151816001019080519060200190610191929190610390565b5060408201518160020160006101000a81548160ff0219169083151502179055509050507f336a1c29470bfb9610b11294a56d10f15651766f047527493093e810a319a48560016040516101e591906107b3565b60405180910390a1505050565b6001806000015490806001018054600181600116156101000203166002900480601f0160208091040260200160405190810160405280929190818152602001828054600181600116156101000203166002900480156102925780601f1061026757610100808354040283529160200191610292565b820191906000526020600020905b81548152906001019060200180831161027557829003601f168201915b5050505050908060020160009054906101000a900460ff16905083565b6102b7610410565b600160405180606001604052908160008201548152602001600182018054600181600116156101000203166002900480601f0160208091040260200160405190810160405280929190818152602001828054600181600116156101000203166002900480156103675780601f1061033c57610100808354040283529160200191610367565b820191906000526020600020905b81548152906001019060200180831161034a57829003601f168201915b505050505081526020016002820160009054906101000a900460ff161515151581525050905090565b828054600181600116156101000203166002900490600052602060002090601f016020900481019282601f106103d157805160ff19168380011785556103ff565b828001600101855582156103ff579182015b828111156103fe5782518255916020019190600101906103e3565b5b50905061040c9190610433565b5090565b604051806060016040528060008152602001606081526020016000151581525090565b61045591905b80821115610451576000816000905550600101610439565b5090565b90565b6000813590506104678161096f565b92915050565b600082601f83011261047e57600080fd5b813561049161048c82610840565b610813565b915080825260208301602083018583830111156104ad57600080fd5b6104b88382846108db565b50505092915050565b6000813590506104d081610986565b92915050565b6000806000606084860312156104eb57600080fd5b60006104f9868287016104c1565b935050602084013567ffffffffffffffff81111561051657600080fd5b6105228682870161046d565b925050604061053386828701610458565b9150509250925092565b610546816108c5565b82525050565b610555816108c5565b82525050565b600061056682610881565b610570818561088c565b93506105808185602086016108ea565b61058981610951565b840191505092915050565b600061059f82610881565b6105a9818561089d565b93506105b98185602086016108ea565b6105c281610951565b840191505092915050565b6000815460018116600081146105ea576001811461061057610654565b607f60028304166105fb818761088c565b955060ff198316865260208601935050610654565b6002820461061e818761088c565b95506106298561086c565b60005b8281101561064b5781548189015260018201915060208101905061062c565b80880195505050505b505092915050565b600061066960208361089d565b91507f4f776e61626c653a2063616c6c6572206973206e6f7420746865206f776e65726000830152602082019050919050565b60006060830160008301516106b46000860182610753565b50602083015184820360208601526106cc828261055b565b91505060408301516106e1604086018261053d565b508091505092915050565b600060608301600080840154905061070381610937565b6107106000870182610753565b5060018401858303602087015261072783826105cd565b9250506002840154905061073a8161091d565b610747604087018261053d565b50819250505092915050565b61075c816108d1565b82525050565b61076b816108d1565b82525050565b6000602082019050818103600083015261078a8161065c565b9050919050565b600060208201905081810360008301526107ab818461069c565b905092915050565b600060208201905081810360008301526107cd81846106ec565b905092915050565b60006060820190506107ea6000830186610762565b81810360208301526107fc8185610594565b905061080b604083018461054c565b949350505050565b6000604051905081810181811067ffffffffffffffff8211171561083657600080fd5b8060405250919050565b600067ffffffffffffffff82111561085757600080fd5b601f19601f8301169050602081019050919050565b60008190508160005260206000209050919050565b600081519050919050565b600082825260208201905092915050565b600082825260208201905092915050565b600060ff82169050919050565b6000819050919050565b60008115159050919050565b6000819050919050565b82818337600083830152505050565b60005b838110156109085780820151818401526020810190506108ed565b83811115610917576000848401525b50505050565b600061093061092b83610962565b6108ae565b9050919050565b600061094a61094583610962565b6108bb565b9050919050565b6000601f19601f8301169050919050565b6000600182049050919050565b610978816108c5565b811461098357600080fd5b50565b61098f816108d1565b811461099a57600080fd5b5056fea365627a7a72305820c7134c440c5fd7724155ef772f7df1d4a295fe40b78c3dedf933fa8f3cbc3edc6c6578706572696d656e74616cf564736f6c63430005090040a365627a7a723058208ea6c210ac75f4bbadf4df0a055da786e0ce8335010ea3912e91c1ae22d09b926c6578706572696d656e74616cf564736f6c63430005090040",
  "source": "pragma solidity ^0.5.9;\npragma experimental ABIEncoderV2;\n\nimport \"./router/EmployeeRouter.sol\";\nimport \"./router/TagRouter.sol\";\nimport \"./router/WorkingOrderRouter.sol\";\nimport \"./router/WorkStationRouter.sol\";\nimport \"./router/WorkStationEmployeeRouter.sol\";\n\n\n//TODO: exceedes maximum gas limit that can be used to deploy contract :) Will not be used.\ncontract Handler is EmployeeRouter, TagRouter, WorkingOrderRouter, WorkStationEmployeeRouter, WorkStationRouter {\n\n    address manager;\n\n    constructor() public {\n        manager = msg.sender;\n    }\n\n    modifier onlyOwner() {\n        require(manager == msg.sender, \"Ownable: caller is not the owner\");\n        _;\n    }\n\n}",
  "sourcePath": "/home/user/Programming/FIRME/PHD/factory-work-optimisation-nfc-raspberrypi-ethererum/blockchain/contracts/Handler.sol",
  "compiler": {
    "name": "solc",
    "version": "0.5.9+commit.e560f70d.Emscripten.clang"
  },
  "schemaVersion": "3.0.2",
  "updatedAt": "2019-06-20T22:41:24.866Z",
  "devdoc": {
    "methods": {}
  },
  "userdoc": {
    "methods": {}
  }
}