{
  "contractName": "TagRouter",
  "abi": [
    {
      "inputs": [],
      "payable": false,
      "stateMutability": "nonpayable",
      "type": "constructor",
      "signature": "constructor"
    },
    {
      "anonymous": false,
      "inputs": [
        {
          "indexed": false,
          "name": "tag",
          "type": "address"
        }
      ],
      "name": "CreatedTag",
      "type": "event",
      "signature": "0xd4aaf076ca264690b1357f851a1cb230e93e0b7f2f651b8bfd455c2ba29693f5"
    },
    {
      "anonymous": false,
      "inputs": [
        {
          "indexed": false,
          "name": "tag",
          "type": "address"
        }
      ],
      "name": "UpdatedTag",
      "type": "event",
      "signature": "0x85976bdbcdaf810a48665acdc54ded7a7c61ae9e72aa068c94ecc4dd57f57f5e"
    },
    {
      "anonymous": false,
      "inputs": [
        {
          "indexed": false,
          "name": "tag",
          "type": "address"
        }
      ],
      "name": "DeletedTag",
      "type": "event",
      "signature": "0x1979555875b8d2875ab27bd5c9613c023b8c96b2fa34a9a016dda7d586b79156"
    },
    {
      "constant": false,
      "inputs": [
        {
          "name": "_id",
          "type": "uint256"
        },
        {
          "name": "_description",
          "type": "string"
        },
        {
          "name": "_active",
          "type": "bool"
        }
      ],
      "name": "addNewTag",
      "outputs": [],
      "payable": false,
      "stateMutability": "nonpayable",
      "type": "function",
      "signature": "0xe9f40be1"
    },
    {
      "constant": false,
      "inputs": [
        {
          "name": "_address",
          "type": "address"
        },
        {
          "name": "_id",
          "type": "uint256"
        },
        {
          "name": "_description",
          "type": "string"
        },
        {
          "name": "_active",
          "type": "bool"
        }
      ],
      "name": "updateTag",
      "outputs": [],
      "payable": false,
      "stateMutability": "nonpayable",
      "type": "function",
      "signature": "0xe0587b86"
    },
    {
      "constant": true,
      "inputs": [],
      "name": "getAllTags",
      "outputs": [
        {
          "name": "",
          "type": "address[]"
        }
      ],
      "payable": false,
      "stateMutability": "view",
      "type": "function",
      "signature": "0x7038f157"
    },
    {
      "constant": true,
      "inputs": [
        {
          "name": "_address",
          "type": "address"
        }
      ],
      "name": "getTagByAddress",
      "outputs": [
        {
          "components": [
            {
              "name": "id",
              "type": "uint256"
            },
            {
              "name": "description",
              "type": "string"
            },
            {
              "name": "active",
              "type": "bool"
            }
          ],
          "name": "",
          "type": "tuple"
        }
      ],
      "payable": false,
      "stateMutability": "view",
      "type": "function",
      "signature": "0x315abd3e"
    },
    {
      "constant": true,
      "inputs": [
        {
          "name": "_id",
          "type": "uint256"
        }
      ],
      "name": "getTagById",
      "outputs": [
        {
          "components": [
            {
              "name": "id",
              "type": "uint256"
            },
            {
              "name": "description",
              "type": "string"
            },
            {
              "name": "active",
              "type": "bool"
            }
          ],
          "name": "",
          "type": "tuple"
        }
      ],
      "payable": false,
      "stateMutability": "view",
      "type": "function",
      "signature": "0x4b3d267f"
    },
    {
      "constant": true,
      "inputs": [],
      "name": "countTags",
      "outputs": [
        {
          "name": "",
          "type": "uint256"
        }
      ],
      "payable": false,
      "stateMutability": "view",
      "type": "function",
      "signature": "0xc1823dbb"
    }
  ],
  "bytecode": "0x608060405234801561001057600080fd5b50336000806101000a81548173ffffffffffffffffffffffffffffffffffffffff021916908373ffffffffffffffffffffffffffffffffffffffff16021790555061232d806100606000396000f3fe60806040523480156200001157600080fd5b506004361062000087576000357c010000000000000000000000000000000000000000000000000000000090048063315abd3e146200008c5780634b3d267f14620000c25780637038f15714620000f8578063c1823dbb146200011a578063e0587b86146200013c578063e9f40be1146200015c575b600080fd5b620000aa6004803603620000a4919081019062000c8a565b6200017c565b604051620000b99190620010e6565b60405180910390f35b620000e06004803603620000da919081019062000d80565b6200028f565b604051620000ef9190620010e6565b60405180910390f35b62000102620003d5565b60405162000111919062001061565b60405180910390f35b6200012462000465565b6040516200013391906200110a565b60405180910390f35b6200015a600480360362000154919081019062000cb6565b62000472565b005b6200017a600480360362000174919081019062000dac565b6200085b565b005b6200018662000aac565b600160008373ffffffffffffffffffffffffffffffffffffffff1673ffffffffffffffffffffffffffffffffffffffff16815260200190815260200160002060009054906101000a900473ffffffffffffffffffffffffffffffffffffffff1673ffffffffffffffffffffffffffffffffffffffff1663b11aa0456040518163ffffffff167c010000000000000000000000000000000000000000000000000000000002815260040160006040518083038186803b1580156200024857600080fd5b505afa1580156200025d573d6000803e3d6000fd5b505050506040513d6000823e3d601f19601f8201168201806040525062000288919081019062000d3b565b9050919050565b6200029962000aac565b600160006002600085815260200190815260200160002060009054906101000a900473ffffffffffffffffffffffffffffffffffffffff1673ffffffffffffffffffffffffffffffffffffffff1673ffffffffffffffffffffffffffffffffffffffff16815260200190815260200160002060009054906101000a900473ffffffffffffffffffffffffffffffffffffffff1673ffffffffffffffffffffffffffffffffffffffff1663b11aa0456040518163ffffffff167c010000000000000000000000000000000000000000000000000000000002815260040160006040518083038186803b1580156200038e57600080fd5b505afa158015620003a3573d6000803e3d6000fd5b505050506040513d6000823e3d601f19601f82011682018060405250620003ce919081019062000d3b565b9050919050565b606060038054806020026020016040519081016040528092919081815260200182805480156200045b57602002820191906000526020600020905b8160009054906101000a900473ffffffffffffffffffffffffffffffffffffffff1673ffffffffffffffffffffffffffffffffffffffff168152602001906001019080831162000410575b5050505050905090565b6000600380549050905090565b836000600160008373ffffffffffffffffffffffffffffffffffffffff1673ffffffffffffffffffffffffffffffffffffffff16815260200190815260200160002060009054906101000a900473ffffffffffffffffffffffffffffffffffffffff1673ffffffffffffffffffffffffffffffffffffffff1663b11aa0456040518163ffffffff167c010000000000000000000000000000000000000000000000000000000002815260040160006040518083038186803b1580156200053757600080fd5b505afa1580156200054c573d6000803e3d6000fd5b505050506040513d6000823e3d601f19601f8201168201806040525062000577919081019062000d3b565b600001511415620005bf576040517f08c379a0000000000000000000000000000000000000000000000000000000008152600401620005b690620010a2565b60405180910390fd5b3373ffffffffffffffffffffffffffffffffffffffff166000809054906101000a900473ffffffffffffffffffffffffffffffffffffffff1673ffffffffffffffffffffffffffffffffffffffff161462000651576040517f08c379a00000000000000000000000000000000000000000000000000000000081526004016200064890620010c4565b60405180910390fd5b6000600160008773ffffffffffffffffffffffffffffffffffffffff1673ffffffffffffffffffffffffffffffffffffffff16815260200190815260200160002060009054906101000a900473ffffffffffffffffffffffffffffffffffffffff16905060008190508173ffffffffffffffffffffffffffffffffffffffff16634e3248478787876040518463ffffffff167c0100000000000000000000000000000000000000000000000000000000028152600401620007159392919062001127565b600060405180830381600087803b1580156200073057600080fd5b505af115801562000745573d6000803e3d6000fd5b5050505081600160008973ffffffffffffffffffffffffffffffffffffffff1673ffffffffffffffffffffffffffffffffffffffff16815260200190815260200160002060006101000a81548173ffffffffffffffffffffffffffffffffffffffff021916908373ffffffffffffffffffffffffffffffffffffffff160217905550806002600088815260200190815260200160002060006101000a81548173ffffffffffffffffffffffffffffffffffffffff021916908373ffffffffffffffffffffffffffffffffffffffff1602179055507f85976bdbcdaf810a48665acdc54ded7a7c61ae9e72aa068c94ecc4dd57f57f5e826040516200084a919062001085565b60405180910390a150505050505050565b3373ffffffffffffffffffffffffffffffffffffffff166000809054906101000a900473ffffffffffffffffffffffffffffffffffffffff1673ffffffffffffffffffffffffffffffffffffffff1614620008ed576040517f08c379a0000000000000000000000000000000000000000000000000000000008152600401620008e490620010c4565b60405180910390fd5b6000838383604051620009009062000acf565b6200090e9392919062001127565b604051809103906000f0801580156200092b573d6000803e3d6000fd5b5090506000819050600160038290806001815401808255809150509060018203906000526020600020016000909192909190916101000a81548173ffffffffffffffffffffffffffffffffffffffff021916908373ffffffffffffffffffffffffffffffffffffffff160217905550505081600160008373ffffffffffffffffffffffffffffffffffffffff1673ffffffffffffffffffffffffffffffffffffffff16815260200190815260200160002060006101000a81548173ffffffffffffffffffffffffffffffffffffffff021916908373ffffffffffffffffffffffffffffffffffffffff160217905550806002600087815260200190815260200160002060006101000a81548173ffffffffffffffffffffffffffffffffffffffff021916908373ffffffffffffffffffffffffffffffffffffffff1602179055507fd4aaf076ca264690b1357f851a1cb230e93e0b7f2f651b8bfd455c2ba29693f58260405162000a9d919062001085565b60405180910390a15050505050565b604051806060016040528060008152602001606081526020016000151581525090565b610f70806200137b83390190565b60008135905062000aee816200132c565b92915050565b60008135905062000b058162001346565b92915050565b60008151905062000b1c8162001346565b92915050565b600082601f83011262000b3457600080fd5b815162000b4b62000b458262001199565b6200116b565b9150808252602083016020830185838301111562000b6857600080fd5b62000b75838284620012e5565b50505092915050565b600082601f83011262000b9057600080fd5b813562000ba762000ba182620011c6565b6200116b565b9150808252602083016020830185838301111562000bc457600080fd5b62000bd1838284620012d6565b50505092915050565b60006060828403121562000bed57600080fd5b62000bf960606200116b565b9050600062000c0b8482850162000c73565b600083015250602082015167ffffffffffffffff81111562000c2c57600080fd5b62000c3a8482850162000b22565b602083015250604062000c508482850162000b0b565b60408301525092915050565b60008135905062000c6d8162001360565b92915050565b60008151905062000c848162001360565b92915050565b60006020828403121562000c9d57600080fd5b600062000cad8482850162000add565b91505092915050565b6000806000806080858703121562000ccd57600080fd5b600062000cdd8782880162000add565b945050602062000cf08782880162000c5c565b935050604085013567ffffffffffffffff81111562000d0e57600080fd5b62000d1c8782880162000b7e565b925050606062000d2f8782880162000af4565b91505092959194509250565b60006020828403121562000d4e57600080fd5b600082015167ffffffffffffffff81111562000d6957600080fd5b62000d778482850162000bda565b91505092915050565b60006020828403121562000d9357600080fd5b600062000da38482850162000c5c565b91505092915050565b60008060006060848603121562000dc257600080fd5b600062000dd28682870162000c5c565b935050602084013567ffffffffffffffff81111562000df057600080fd5b62000dfe8682870162000b7e565b925050604062000e118682870162000af4565b9150509250925092565b600062000e29838362000e35565b60208301905092915050565b62000e408162001264565b82525050565b600062000e538262001203565b62000e5f818562001231565b935062000e6c83620011f3565b8060005b8381101562000ea357815162000e87888262000e1b565b975062000e948362001224565b92505060018101905062000e70565b5085935050505092915050565b62000ebb8162001278565b82525050565b62000ecc8162001278565b82525050565b62000edd81620012ae565b82525050565b600062000ef08262001219565b62000efc818562001253565b935062000f0e818560208601620012e5565b62000f19816200131b565b840191505092915050565b600062000f31826200120e565b62000f3d818562001242565b935062000f4f818560208601620012e5565b62000f5a816200131b565b840191505092915050565b600062000f7460118362001253565b91507f5461672068617320746f206578697374210000000000000000000000000000006000830152602082019050919050565b600062000fb660208362001253565b91507f4f776e61626c653a2063616c6c6572206973206e6f7420746865206f776e65726000830152602082019050919050565b60006060830160008301516200100360008601826200103f565b50602083015184820360208601526200101d828262000f24565b915050604083015162001034604086018262000eb0565b508091505092915050565b6200104a81620012a4565b82525050565b6200105b81620012a4565b82525050565b600060208201905081810360008301526200107d818462000e46565b905092915050565b60006020820190506200109c600083018462000ed2565b92915050565b60006020820190508181036000830152620010bd8162000f65565b9050919050565b60006020820190508181036000830152620010df8162000fa7565b9050919050565b6000602082019050818103600083015262001102818462000fe9565b905092915050565b600060208201905062001121600083018462001050565b92915050565b60006060820190506200113e600083018662001050565b818103602083015262001152818562000ee3565b905062001163604083018462000ec1565b949350505050565b6000604051905081810181811067ffffffffffffffff821117156200118f57600080fd5b8060405250919050565b600067ffffffffffffffff821115620011b157600080fd5b601f19601f8301169050602081019050919050565b600067ffffffffffffffff821115620011de57600080fd5b601f19601f8301169050602081019050919050565b6000819050602082019050919050565b600081519050919050565b600081519050919050565b600081519050919050565b6000602082019050919050565b600082825260208201905092915050565b600082825260208201905092915050565b600082825260208201905092915050565b6000620012718262001284565b9050919050565b60008115159050919050565b600073ffffffffffffffffffffffffffffffffffffffff82169050919050565b6000819050919050565b6000620012bb82620012c2565b9050919050565b6000620012cf8262001284565b9050919050565b82818337600083830152505050565b60005b8381101562001305578082015181840152602081019050620012e8565b8381111562001315576000848401525b50505050565b6000601f19601f8301169050919050565b620013378162001264565b81146200134357600080fd5b50565b620013518162001278565b81146200135d57600080fd5b50565b6200136b81620012a4565b81146200137757600080fd5b5056fe60806040523480156200001157600080fd5b5060405162000f7038038062000f7083398181016040526200003791908101906200025e565b336000806101000a81548173ffffffffffffffffffffffffffffffffffffffff021916908373ffffffffffffffffffffffffffffffffffffffff16021790555060405180606001604052808481526020018381526020018215158152506001600082015181600001556020820151816001019080519060200190620000be92919062000125565b5060408201518160020160006101000a81548160ff0219169083151502179055509050507f17a23c2f19d397f6f9b046c8c35f2eeb65861a4adc456487abfca6ea80956d306001604051620001149190620003fb565b60405180910390a150505062000580565b828054600181600116156101000203166002900490600052602060002090601f016020900481019282601f106200016857805160ff191683800117855562000199565b8280016001018555821562000199579182015b82811115620001985782518255916020019190600101906200017b565b5b509050620001a89190620001ac565b5090565b620001d191905b80821115620001cd576000816000905550600101620001b3565b5090565b90565b600081519050620001e5816200054c565b92915050565b600082601f830112620001fd57600080fd5b8151620002146200020e826200044d565b6200041f565b915080825260208301602083018583830111156200023157600080fd5b6200023e838284620004cd565b50505092915050565b600081519050620002588162000566565b92915050565b6000806000606084860312156200027457600080fd5b6000620002848682870162000247565b935050602084015167ffffffffffffffff811115620002a257600080fd5b620002b086828701620001eb565b9250506040620002c386828701620001d4565b9150509250925092565b620002d881620004b7565b82525050565b600081546001811660008114620002fe5760018114620003275762000371565b607f60028304166200031181876200048f565b955060ff19831686526020860193505062000371565b600282046200033781876200048f565b955062000344856200047a565b60005b82811015620003685781548189015260018201915060208101905062000347565b80880195505050505b505092915050565b6000606083016000808401549050620003928162000521565b620003a16000870182620003ea565b50600184018583036020870152620003ba8382620002de565b92505060028401549050620003cf8162000503565b620003de6040870182620002cd565b50819250505092915050565b620003f581620004c3565b82525050565b6000602082019050818103600083015262000417818462000379565b905092915050565b6000604051905081810181811067ffffffffffffffff821117156200044357600080fd5b8060405250919050565b600067ffffffffffffffff8211156200046557600080fd5b601f19601f8301169050602081019050919050565b60008190508160005260206000209050919050565b600082825260208201905092915050565b600060ff82169050919050565b6000819050919050565b60008115159050919050565b6000819050919050565b60005b83811015620004ed578082015181840152602081019050620004d0565b83811115620004fd576000848401525b50505050565b60006200051a62000514836200053f565b620004a0565b9050919050565b60006200053862000532836200053f565b620004ad565b9050919050565b6000600182049050919050565b6200055781620004b7565b81146200056357600080fd5b50565b6200057181620004c3565b81146200057d57600080fd5b50565b6109e080620005906000396000f3fe608060405234801561001057600080fd5b506004361061005e576000357c0100000000000000000000000000000000000000000000000000000000900480634e3248471461006357806360c332141461007f578063b11aa0451461009f575b600080fd5b61007d600480360361007891908101906104d6565b6100bd565b005b6100876101f2565b604051610096939291906107d5565b60405180910390f35b6100a76102af565b6040516100b49190610791565b60405180910390f35b3373ffffffffffffffffffffffffffffffffffffffff166000809054906101000a900473ffffffffffffffffffffffffffffffffffffffff1673ffffffffffffffffffffffffffffffffffffffff161461014c576040517f08c379a000000000000000000000000000000000000000000000000000000000815260040161014390610771565b60405180910390fd5b60405180606001604052808481526020018381526020018215158152506001600082015181600001556020820151816001019080519060200190610191929190610390565b5060408201518160020160006101000a81548160ff0219169083151502179055509050507f336a1c29470bfb9610b11294a56d10f15651766f047527493093e810a319a48560016040516101e591906107b3565b60405180910390a1505050565b6001806000015490806001018054600181600116156101000203166002900480601f0160208091040260200160405190810160405280929190818152602001828054600181600116156101000203166002900480156102925780601f1061026757610100808354040283529160200191610292565b820191906000526020600020905b81548152906001019060200180831161027557829003601f168201915b5050505050908060020160009054906101000a900460ff16905083565b6102b7610410565b600160405180606001604052908160008201548152602001600182018054600181600116156101000203166002900480601f0160208091040260200160405190810160405280929190818152602001828054600181600116156101000203166002900480156103675780601f1061033c57610100808354040283529160200191610367565b820191906000526020600020905b81548152906001019060200180831161034a57829003601f168201915b505050505081526020016002820160009054906101000a900460ff161515151581525050905090565b828054600181600116156101000203166002900490600052602060002090601f016020900481019282601f106103d157805160ff19168380011785556103ff565b828001600101855582156103ff579182015b828111156103fe5782518255916020019190600101906103e3565b5b50905061040c9190610433565b5090565b604051806060016040528060008152602001606081526020016000151581525090565b61045591905b80821115610451576000816000905550600101610439565b5090565b90565b6000813590506104678161096f565b92915050565b600082601f83011261047e57600080fd5b813561049161048c82610840565b610813565b915080825260208301602083018583830111156104ad57600080fd5b6104b88382846108db565b50505092915050565b6000813590506104d081610986565b92915050565b6000806000606084860312156104eb57600080fd5b60006104f9868287016104c1565b935050602084013567ffffffffffffffff81111561051657600080fd5b6105228682870161046d565b925050604061053386828701610458565b9150509250925092565b610546816108c5565b82525050565b610555816108c5565b82525050565b600061056682610881565b610570818561088c565b93506105808185602086016108ea565b61058981610951565b840191505092915050565b600061059f82610881565b6105a9818561089d565b93506105b98185602086016108ea565b6105c281610951565b840191505092915050565b6000815460018116600081146105ea576001811461061057610654565b607f60028304166105fb818761088c565b955060ff198316865260208601935050610654565b6002820461061e818761088c565b95506106298561086c565b60005b8281101561064b5781548189015260018201915060208101905061062c565b80880195505050505b505092915050565b600061066960208361089d565b91507f4f776e61626c653a2063616c6c6572206973206e6f7420746865206f776e65726000830152602082019050919050565b60006060830160008301516106b46000860182610753565b50602083015184820360208601526106cc828261055b565b91505060408301516106e1604086018261053d565b508091505092915050565b600060608301600080840154905061070381610937565b6107106000870182610753565b5060018401858303602087015261072783826105cd565b9250506002840154905061073a8161091d565b610747604087018261053d565b50819250505092915050565b61075c816108d1565b82525050565b61076b816108d1565b82525050565b6000602082019050818103600083015261078a8161065c565b9050919050565b600060208201905081810360008301526107ab818461069c565b905092915050565b600060208201905081810360008301526107cd81846106ec565b905092915050565b60006060820190506107ea6000830186610762565b81810360208301526107fc8185610594565b905061080b604083018461054c565b949350505050565b6000604051905081810181811067ffffffffffffffff8211171561083657600080fd5b8060405250919050565b600067ffffffffffffffff82111561085757600080fd5b601f19601f8301169050602081019050919050565b60008190508160005260206000209050919050565b600081519050919050565b600082825260208201905092915050565b600082825260208201905092915050565b600060ff82169050919050565b6000819050919050565b60008115159050919050565b6000819050919050565b82818337600083830152505050565b60005b838110156109085780820151818401526020810190506108ed565b83811115610917576000848401525b50505050565b600061093061092b83610962565b6108ae565b9050919050565b600061094a61094583610962565b6108bb565b9050919050565b6000601f19601f8301169050919050565b6000600182049050919050565b610978816108c5565b811461098357600080fd5b50565b61098f816108d1565b811461099a57600080fd5b5056fea365627a7a72305820c7134c440c5fd7724155ef772f7df1d4a295fe40b78c3dedf933fa8f3cbc3edc6c6578706572696d656e74616cf564736f6c63430005090040a365627a7a72305820dd968dde3471890a9e2055527e1d2f3d769347bf32d0ad9b9e474fa41c8063976c6578706572696d656e74616cf564736f6c63430005090040",
  "source": "pragma solidity ^0.5.9;\npragma experimental ABIEncoderV2;\n\nimport '../entity/Tag.sol';\n\ncontract TagRouter {\n\n    address manager;\n\n    constructor() public {\n        manager = msg.sender;\n    }\n\n    modifier onlyOwner() {\n        require(manager == msg.sender, \"Ownable: caller is not the owner\");\n        _;\n    }\n\n    //=================================================================================\n    //Tag handler\n    //=================================================================================\n\n    mapping(address => Tag) private tags;\n    mapping(uint => address) private tagIDs;\n    address[] private tagList;\n\n    event CreatedTag(Tag tag);\n    event UpdatedTag(Tag tag);\n    event DeletedTag(Tag tag);\n\n    modifier tagExists(address _address){\n        require(tags[_address].getTagData().id != 0, 'Tag has to exist!');\n        _;\n    }\n\n    function addNewTag(uint _id, string memory _description, bool _active) public onlyOwner {\n        Tag tag = new Tag(_id, _description, _active);\n        address tagAddress = address(tag);\n        tagList.push(tagAddress) - 1;\n        tags[tagAddress] = tag;\n        tagIDs[_id] = tagAddress;\n        emit CreatedTag(tag);\n    }\n\n    function updateTag(address _address, uint _id, string memory _description, bool _active) public tagExists(_address) onlyOwner {\n        Tag tag = tags[_address];\n        address tagAddress = address(tag);\n        tag.update(_id, _description, _active);\n        tags[_address] = tag;\n        tagIDs[_id] = tagAddress;\n        emit UpdatedTag(tag);\n    }\n\n    function getAllTags() public view returns (address[] memory)  {\n        return tagList;\n    }\n\n    function getTagByAddress(address _address) public view returns (Tag.tag memory){\n        return tags[_address].getTagData();\n    }\n\n    function getTagById(uint _id) public view returns (Tag.tag memory){\n        return tags[tagIDs[_id]].getTagData();\n    }\n\n    function countTags() public view returns (uint) {\n        return tagList.length;\n    }\n}\n",
  "sourcePath": "/home/user/Programming/FIRME/PHD/factory-work-optimisation-nfc-raspberrypi-ethererum/blockchain/contracts/router/TagRouter.sol",
  "compiler": {
    "name": "solc",
    "version": "0.5.9+commit.e560f70d.Emscripten.clang"
  },
  "schemaVersion": "3.0.2",
  "updatedAt": "2019-06-20T22:48:15.031Z",
  "devdoc": {
    "methods": {}
  },
  "userdoc": {
    "methods": {}
  }
}