{
  "contractName": "WorkStationEmployeeRouter",
  "abi": [
    {
      "inputs": [],
      "payable": false,
      "stateMutability": "nonpayable",
      "type": "constructor"
    },
    {
      "anonymous": false,
      "inputs": [
        {
          "indexed": false,
          "name": "workStationEmployee",
          "type": "address"
        }
      ],
      "name": "CreatedWorkStationEmployee",
      "type": "event"
    },
    {
      "anonymous": false,
      "inputs": [
        {
          "indexed": false,
          "name": "workStationEmployee",
          "type": "address"
        }
      ],
      "name": "UpdatedWorkStationEmployee",
      "type": "event"
    },
    {
      "anonymous": false,
      "inputs": [
        {
          "indexed": false,
          "name": "workStationEmployee",
          "type": "address"
        }
      ],
      "name": "DeletedWorkStationEmployee",
      "type": "event"
    },
    {
      "constant": false,
      "inputs": [
        {
          "name": "_id",
          "type": "uint256"
        },
        {
          "name": "_employeeAddress",
          "type": "address"
        },
        {
          "name": "_workStationAddress",
          "type": "address"
        },
        {
          "name": "_timeStart",
          "type": "string"
        },
        {
          "name": "_timeEnd",
          "type": "string"
        }
      ],
      "name": "addNewWorkStationEmployee",
      "outputs": [],
      "payable": false,
      "stateMutability": "nonpayable",
      "type": "function"
    },
    {
      "constant": false,
      "inputs": [
        {
          "name": "_address",
          "type": "address"
        },
        {
          "name": "_id",
          "type": "uint256"
        },
        {
          "name": "_employeeAddress",
          "type": "address"
        },
        {
          "name": "_workStationAddress",
          "type": "address"
        },
        {
          "name": "_timeStart",
          "type": "string"
        },
        {
          "name": "_timeEnd",
          "type": "string"
        }
      ],
      "name": "updateWorkStationEmployee",
      "outputs": [],
      "payable": false,
      "stateMutability": "nonpayable",
      "type": "function"
    },
    {
      "constant": true,
      "inputs": [],
      "name": "getAllWorkStationEmployees",
      "outputs": [
        {
          "name": "",
          "type": "address[]"
        }
      ],
      "payable": false,
      "stateMutability": "view",
      "type": "function"
    },
    {
      "constant": true,
      "inputs": [
        {
          "name": "_address",
          "type": "address"
        }
      ],
      "name": "getWorkStationEmployeeByAddress",
      "outputs": [
        {
          "components": [
            {
              "name": "id",
              "type": "uint256"
            },
            {
              "name": "employeeAddress",
              "type": "address"
            },
            {
              "name": "workStationAddress",
              "type": "address"
            },
            {
              "name": "timeStart",
              "type": "string"
            },
            {
              "name": "timeEnd",
              "type": "string"
            }
          ],
          "name": "",
          "type": "tuple"
        }
      ],
      "payable": false,
      "stateMutability": "view",
      "type": "function"
    },
    {
      "constant": true,
      "inputs": [
        {
          "name": "_id",
          "type": "uint256"
        }
      ],
      "name": "getWorkStationEmployeeById",
      "outputs": [
        {
          "components": [
            {
              "name": "id",
              "type": "uint256"
            },
            {
              "name": "employeeAddress",
              "type": "address"
            },
            {
              "name": "workStationAddress",
              "type": "address"
            },
            {
              "name": "timeStart",
              "type": "string"
            },
            {
              "name": "timeEnd",
              "type": "string"
            }
          ],
          "name": "",
          "type": "tuple"
        }
      ],
      "payable": false,
      "stateMutability": "view",
      "type": "function"
    },
    {
      "constant": true,
      "inputs": [],
      "name": "countWorkStationEmployees",
      "outputs": [
        {
          "name": "",
          "type": "uint256"
        }
      ],
      "payable": false,
      "stateMutability": "view",
      "type": "function"
    }
  ],
  "bytecode": "0x608060405234801561001057600080fd5b50336000806101000a81548173ffffffffffffffffffffffffffffffffffffffff021916908373ffffffffffffffffffffffffffffffffffffffff160217905550612a23806100606000396000f3fe60806040523480156200001157600080fd5b506004361062000087576000357c0100000000000000000000000000000000000000000000000000000000900480632b4cd06a146200008c57806334a4430314620000c257806352fa49c114620000e4578063bd4f2aa61462000106578063c71f9a84146200013c578063fcce407b146200015c575b600080fd5b620000aa6004803603620000a4919081019062000d28565b6200017c565b604051620000b9919062001252565b60405180910390f35b620000cc6200028f565b604051620000db919062001276565b60405180910390f35b620000ee6200029c565b604051620000fd9190620011cd565b60405180910390f35b6200012460048036036200011e919081019062000e61565b6200032c565b60405162000133919062001252565b60405180910390f35b6200015a600480360362000154919081019062000e8d565b62000472565b005b6200017a600480360362000174919081019062000d54565b620006c9565b005b6200018662000ae4565b600160008373ffffffffffffffffffffffffffffffffffffffff1673ffffffffffffffffffffffffffffffffffffffff16815260200190815260200160002060009054906101000a900473ffffffffffffffffffffffffffffffffffffffff1673ffffffffffffffffffffffffffffffffffffffff1663178d4e4b6040518163ffffffff167c010000000000000000000000000000000000000000000000000000000002815260040160006040518083038186803b1580156200024857600080fd5b505afa1580156200025d573d6000803e3d6000fd5b505050506040513d6000823e3d601f19601f8201168201806040525062000288919081019062000e1c565b9050919050565b6000600380549050905090565b606060038054806020026020016040519081016040528092919081815260200182805480156200032257602002820191906000526020600020905b8160009054906101000a900473ffffffffffffffffffffffffffffffffffffffff1673ffffffffffffffffffffffffffffffffffffffff1681526020019060010190808311620002d7575b5050505050905090565b6200033662000ae4565b600160006002600085815260200190815260200160002060009054906101000a900473ffffffffffffffffffffffffffffffffffffffff1673ffffffffffffffffffffffffffffffffffffffff1673ffffffffffffffffffffffffffffffffffffffff16815260200190815260200160002060009054906101000a900473ffffffffffffffffffffffffffffffffffffffff1673ffffffffffffffffffffffffffffffffffffffff1663178d4e4b6040518163ffffffff167c010000000000000000000000000000000000000000000000000000000002815260040160006040518083038186803b1580156200042b57600080fd5b505afa15801562000440573d6000803e3d6000fd5b505050506040513d6000823e3d601f19601f820116820180604052506200046b919081019062000e1c565b9050919050565b3373ffffffffffffffffffffffffffffffffffffffff166000809054906101000a900473ffffffffffffffffffffffffffffffffffffffff1673ffffffffffffffffffffffffffffffffffffffff161462000504576040517f08c379a0000000000000000000000000000000000000000000000000000000008152600401620004fb9062001230565b60405180910390fd5b60008585858585604051620005199062000b3f565b6200052995949392919062001293565b604051809103906000f08015801562000546573d6000803e3d6000fd5b5090506000819050600160038290806001815401808255809150509060018203906000526020600020016000909192909190916101000a81548173ffffffffffffffffffffffffffffffffffffffff021916908373ffffffffffffffffffffffffffffffffffffffff160217905550505081600160008373ffffffffffffffffffffffffffffffffffffffff1673ffffffffffffffffffffffffffffffffffffffff16815260200190815260200160002060006101000a81548173ffffffffffffffffffffffffffffffffffffffff021916908373ffffffffffffffffffffffffffffffffffffffff160217905550806002600089815260200190815260200160002060006101000a81548173ffffffffffffffffffffffffffffffffffffffff021916908373ffffffffffffffffffffffffffffffffffffffff1602179055507ffa0d8cd2ce9db69945da6968e4f6b0e2cc1bfff7e64f9b4686c501e09c69676d82604051620006b89190620011f1565b60405180910390a150505050505050565b85600073ffffffffffffffffffffffffffffffffffffffff16600160008373ffffffffffffffffffffffffffffffffffffffff1673ffffffffffffffffffffffffffffffffffffffff16815260200190815260200160002060009054906101000a900473ffffffffffffffffffffffffffffffffffffffff1673ffffffffffffffffffffffffffffffffffffffff1663178d4e4b6040518163ffffffff167c010000000000000000000000000000000000000000000000000000000002815260040160006040518083038186803b158015620007a457600080fd5b505afa158015620007b9573d6000803e3d6000fd5b505050506040513d6000823e3d601f19601f82011682018060405250620007e4919081019062000e1c565b6020015173ffffffffffffffffffffffffffffffffffffffff16141562000842576040517f08c379a000000000000000000000000000000000000000000000000000000000815260040162000839906200120e565b60405180910390fd5b3373ffffffffffffffffffffffffffffffffffffffff166000809054906101000a900473ffffffffffffffffffffffffffffffffffffffff1673ffffffffffffffffffffffffffffffffffffffff1614620008d4576040517f08c379a0000000000000000000000000000000000000000000000000000000008152600401620008cb9062001230565b60405180910390fd5b6000600160008973ffffffffffffffffffffffffffffffffffffffff1673ffffffffffffffffffffffffffffffffffffffff16815260200190815260200160002060009054906101000a900473ffffffffffffffffffffffffffffffffffffffff16905060008190508173ffffffffffffffffffffffffffffffffffffffff1663a62428da89898989896040518663ffffffff167c01000000000000000000000000000000000000000000000000000000000281526004016200099c95949392919062001293565b600060405180830381600087803b158015620009b757600080fd5b505af1158015620009cc573d6000803e3d6000fd5b5050505081600160008373ffffffffffffffffffffffffffffffffffffffff1673ffffffffffffffffffffffffffffffffffffffff16815260200190815260200160002060006101000a81548173ffffffffffffffffffffffffffffffffffffffff021916908373ffffffffffffffffffffffffffffffffffffffff16021790555080600260008a815260200190815260200160002060006101000a81548173ffffffffffffffffffffffffffffffffffffffff021916908373ffffffffffffffffffffffffffffffffffffffff1602179055507f64ba1c0174ce02f35f1fba2c31d5f67b32477756473aee668965724a83d4f9c28260405162000ad19190620011f1565b60405180910390a1505050505050505050565b6040518060a0016040528060008152602001600073ffffffffffffffffffffffffffffffffffffffff168152602001600073ffffffffffffffffffffffffffffffffffffffff16815260200160608152602001606081525090565b6114f980620014e883390190565b60008135905062000b5e81620014b3565b92915050565b60008151905062000b7581620014b3565b92915050565b600082601f83011262000b8d57600080fd5b815162000ba462000b9e826200132c565b620012fe565b9150808252602083016020830185838301111562000bc157600080fd5b62000bce8382846200146c565b50505092915050565b600082601f83011262000be957600080fd5b813562000c0062000bfa8262001359565b620012fe565b9150808252602083016020830185838301111562000c1d57600080fd5b62000c2a8382846200145d565b50505092915050565b600060a0828403121562000c4657600080fd5b62000c5260a0620012fe565b9050600062000c648482850162000d11565b600083015250602062000c7a8482850162000b64565b602083015250604062000c908482850162000b64565b604083015250606082015167ffffffffffffffff81111562000cb157600080fd5b62000cbf8482850162000b7b565b606083015250608082015167ffffffffffffffff81111562000ce057600080fd5b62000cee8482850162000b7b565b60808301525092915050565b60008135905062000d0b81620014cd565b92915050565b60008151905062000d2281620014cd565b92915050565b60006020828403121562000d3b57600080fd5b600062000d4b8482850162000b4d565b91505092915050565b60008060008060008060c0878903121562000d6e57600080fd5b600062000d7e89828a0162000b4d565b965050602062000d9189828a0162000cfa565b955050604062000da489828a0162000b4d565b945050606062000db789828a0162000b4d565b935050608087013567ffffffffffffffff81111562000dd557600080fd5b62000de389828a0162000bd7565b92505060a087013567ffffffffffffffff81111562000e0157600080fd5b62000e0f89828a0162000bd7565b9150509295509295509295565b60006020828403121562000e2f57600080fd5b600082015167ffffffffffffffff81111562000e4a57600080fd5b62000e588482850162000c33565b91505092915050565b60006020828403121562000e7457600080fd5b600062000e848482850162000cfa565b91505092915050565b600080600080600060a0868803121562000ea657600080fd5b600062000eb68882890162000cfa565b955050602062000ec98882890162000b4d565b945050604062000edc8882890162000b4d565b935050606086013567ffffffffffffffff81111562000efa57600080fd5b62000f088882890162000bd7565b925050608086013567ffffffffffffffff81111562000f2657600080fd5b62000f348882890162000bd7565b9150509295509295909350565b600062000f4f838362000f5b565b60208301905092915050565b62000f6681620013f7565b82525050565b62000f7781620013f7565b82525050565b600062000f8a8262001396565b62000f968185620013c4565b935062000fa38362001386565b8060005b8381101562000fda57815162000fbe888262000f41565b975062000fcb83620013b7565b92505060018101905062000fa7565b5085935050505092915050565b62000ff28162001435565b82525050565b60006200100582620013ac565b620010118185620013e6565b9350620010238185602086016200146c565b6200102e81620014a2565b840191505092915050565b60006200104682620013a1565b620010528185620013d5565b9350620010648185602086016200146c565b6200106f81620014a2565b840191505092915050565b600062001089602383620013e6565b91507f576f726b2073746174696f6e20656d706c6f7965652068617320746f2065786960008301527f73742100000000000000000000000000000000000000000000000000000000006020830152604082019050919050565b6000620010f1602083620013e6565b91507f4f776e61626c653a2063616c6c6572206973206e6f7420746865206f776e65726000830152602082019050919050565b600060a0830160008301516200113e6000860182620011ab565b50602083015162001153602086018262000f5b565b50604083015162001168604086018262000f5b565b506060830151848203606086015262001182828262001039565b915050608083015184820360808601526200119e828262001039565b9150508091505092915050565b620011b6816200142b565b82525050565b620011c7816200142b565b82525050565b60006020820190508181036000830152620011e9818462000f7d565b905092915050565b600060208201905062001208600083018462000fe7565b92915050565b6000602082019050818103600083015262001229816200107a565b9050919050565b600060208201905081810360008301526200124b81620010e2565b9050919050565b600060208201905081810360008301526200126e818462001124565b905092915050565b60006020820190506200128d6000830184620011bc565b92915050565b600060a082019050620012aa6000830188620011bc565b620012b9602083018762000f6c565b620012c8604083018662000f6c565b8181036060830152620012dc818562000ff8565b90508181036080830152620012f2818462000ff8565b90509695505050505050565b6000604051905081810181811067ffffffffffffffff821117156200132257600080fd5b8060405250919050565b600067ffffffffffffffff8211156200134457600080fd5b601f19601f8301169050602081019050919050565b600067ffffffffffffffff8211156200137157600080fd5b601f19601f8301169050602081019050919050565b6000819050602082019050919050565b600081519050919050565b600081519050919050565b600081519050919050565b6000602082019050919050565b600082825260208201905092915050565b600082825260208201905092915050565b600082825260208201905092915050565b600062001404826200140b565b9050919050565b600073ffffffffffffffffffffffffffffffffffffffff82169050919050565b6000819050919050565b6000620014428262001449565b9050919050565b600062001456826200140b565b9050919050565b82818337600083830152505050565b60005b838110156200148c5780820151818401526020810190506200146f565b838111156200149c576000848401525b50505050565b6000601f19601f8301169050919050565b620014be81620013f7565b8114620014ca57600080fd5b50565b620014d8816200142b565b8114620014e457600080fd5b5056fe60806040523480156200001157600080fd5b50604051620014f9380380620014f9833981810160405262000037919081019062000323565b336000806101000a81548173ffffffffffffffffffffffffffffffffffffffff021916908373ffffffffffffffffffffffffffffffffffffffff1602179055506040518060a001604052808681526020018573ffffffffffffffffffffffffffffffffffffffff1681526020018473ffffffffffffffffffffffffffffffffffffffff1681526020018381526020018281525060016000820151816000015560208201518160010160006101000a81548173ffffffffffffffffffffffffffffffffffffffff021916908373ffffffffffffffffffffffffffffffffffffffff16021790555060408201518160020160006101000a81548173ffffffffffffffffffffffffffffffffffffffff021916908373ffffffffffffffffffffffffffffffffffffffff160217905550606082015181600301908051906020019062000182929190620001ea565b506080820151816004019080519060200190620001a1929190620001ea565b509050507f338b479f1bf5bbfeef4ab03fa2df643460cd92088c6df504e7df0f6c3f07a5916001604051620001d7919062000542565b60405180910390a1505050505062000702565b828054600181600116156101000203166002900490600052602060002090601f016020900481019282601f106200022d57805160ff19168380011785556200025e565b828001600101855582156200025e579182015b828111156200025d57825182559160200191906001019062000240565b5b5090506200026d919062000271565b5090565b6200029691905b808211156200029257600081600090555060010162000278565b5090565b90565b600081519050620002aa81620006ce565b92915050565b600082601f830112620002c257600080fd5b8151620002d9620002d38262000594565b62000566565b91508082526020830160208301858383011115620002f657600080fd5b620003038382846200064f565b50505092915050565b6000815190506200031d81620006e8565b92915050565b600080600080600060a086880312156200033c57600080fd5b60006200034c888289016200030c565b95505060206200035f8882890162000299565b9450506040620003728882890162000299565b935050606086015167ffffffffffffffff8111156200039057600080fd5b6200039e88828901620002b0565b925050608086015167ffffffffffffffff811115620003bc57600080fd5b620003ca88828901620002b0565b9150509295509295909350565b620003e28162000611565b82525050565b60008154600181166000811462000408576001811462000431576200047b565b607f60028304166200041b8187620005d6565b955060ff1983168652602086019350506200047b565b60028204620004418187620005d6565b95506200044e85620005c1565b60005b82811015620004725781548189015260018201915060208101905062000451565b80880195505050505b505092915050565b600060a0830160008084015490506200049c81620006a3565b620004ab600087018262000531565b5060018401549050620004be8162000685565b620004cd6020870182620003d7565b5060028401549050620004e08162000685565b620004ef6040870182620003d7565b50600384018583036060870152620005088382620003e8565b925050600484018583036080870152620005238382620003e8565b925050819250505092915050565b6200053c8162000645565b82525050565b600060208201905081810360008301526200055e818462000483565b905092915050565b6000604051905081810181811067ffffffffffffffff821117156200058a57600080fd5b8060405250919050565b600067ffffffffffffffff821115620005ac57600080fd5b601f19601f8301169050602081019050919050565b60008190508160005260206000209050919050565b600082825260208201905092915050565b600073ffffffffffffffffffffffffffffffffffffffff82169050919050565b6000819050919050565b60006200061e8262000625565b9050919050565b600073ffffffffffffffffffffffffffffffffffffffff82169050919050565b6000819050919050565b60005b838110156200066f57808201518184015260208101905062000652565b838111156200067f576000848401525b50505050565b60006200069c6200069683620006c1565b620005e7565b9050919050565b6000620006ba620006b483620006c1565b62000607565b9050919050565b6000600182049050919050565b620006d98162000611565b8114620006e557600080fd5b50565b620006f38162000645565b8114620006ff57600080fd5b50565b610de780620007126000396000f3fe608060405234801561001057600080fd5b506004361061005e576000357c0100000000000000000000000000000000000000000000000000000000900480630bda63ec14610063578063178d4e4b14610085578063a62428da146100a3575b600080fd5b61006b6100bf565b60405161007c959493929190610b80565b60405180910390f35b61008d610253565b60405161009a9190610b3c565b60405180910390f35b6100bd60048036036100b891908101906107dd565b610467565b005b60018060000154908060010160009054906101000a900473ffffffffffffffffffffffffffffffffffffffff16908060020160009054906101000a900473ffffffffffffffffffffffffffffffffffffffff1690806003018054600181600116156101000203166002900480601f0160208091040260200160405190810160405280929190818152602001828054600181600116156101000203166002900480156101ab5780601f10610180576101008083540402835291602001916101ab565b820191906000526020600020905b81548152906001019060200180831161018e57829003601f168201915b505050505090806004018054600181600116156101000203166002900480601f0160208091040260200160405190810160405280929190818152602001828054600181600116156101000203166002900480156102495780601f1061021e57610100808354040283529160200191610249565b820191906000526020600020905b81548152906001019060200180831161022c57829003601f168201915b5050505050905085565b61025b61065f565b60016040518060a0016040529081600082015481526020016001820160009054906101000a900473ffffffffffffffffffffffffffffffffffffffff1673ffffffffffffffffffffffffffffffffffffffff1673ffffffffffffffffffffffffffffffffffffffff1681526020016002820160009054906101000a900473ffffffffffffffffffffffffffffffffffffffff1673ffffffffffffffffffffffffffffffffffffffff1673ffffffffffffffffffffffffffffffffffffffff168152602001600382018054600181600116156101000203166002900480601f0160208091040260200160405190810160405280929190818152602001828054600181600116156101000203166002900480156103b75780601f1061038c576101008083540402835291602001916103b7565b820191906000526020600020905b81548152906001019060200180831161039a57829003601f168201915b50505050508152602001600482018054600181600116156101000203166002900480601f0160208091040260200160405190810160405280929190818152602001828054600181600116156101000203166002900480156104595780601f1061042e57610100808354040283529160200191610459565b820191906000526020600020905b81548152906001019060200180831161043c57829003601f168201915b505050505081525050905090565b3373ffffffffffffffffffffffffffffffffffffffff166000809054906101000a900473ffffffffffffffffffffffffffffffffffffffff1673ffffffffffffffffffffffffffffffffffffffff16146104f6576040517f08c379a00000000000000000000000000000000000000000000000000000000081526004016104ed90610b1c565b60405180910390fd5b6040518060a001604052808681526020018573ffffffffffffffffffffffffffffffffffffffff1681526020018473ffffffffffffffffffffffffffffffffffffffff1681526020018381526020018281525060016000820151816000015560208201518160010160006101000a81548173ffffffffffffffffffffffffffffffffffffffff021916908373ffffffffffffffffffffffffffffffffffffffff16021790555060408201518160020160006101000a81548173ffffffffffffffffffffffffffffffffffffffff021916908373ffffffffffffffffffffffffffffffffffffffff16021790555060608201518160030190805190602001906105ff9291906106ba565b50608082015181600401908051906020019061061c9291906106ba565b509050507fdbf03950089b60a5a275a9aaeb5f5f22a387395b509bb21a216246d5f1970d0760016040516106509190610b5e565b60405180910390a15050505050565b6040518060a0016040528060008152602001600073ffffffffffffffffffffffffffffffffffffffff168152602001600073ffffffffffffffffffffffffffffffffffffffff16815260200160608152602001606081525090565b828054600181600116156101000203166002900490600052602060002090601f016020900481019282601f106106fb57805160ff1916838001178555610729565b82800160010185558215610729579182015b8281111561072857825182559160200191906001019061070d565b5b509050610736919061073a565b5090565b61075c91905b80821115610758576000816000905550600101610740565b5090565b90565b60008135905061076e81610d76565b92915050565b600082601f83011261078557600080fd5b813561079861079382610c0e565b610be1565b915080825260208301602083018583830111156107b457600080fd5b6107bf838284610ce2565b50505092915050565b6000813590506107d781610d8d565b92915050565b600080600080600060a086880312156107f557600080fd5b6000610803888289016107c8565b95505060206108148882890161075f565b94505060406108258882890161075f565b935050606086013567ffffffffffffffff81111561084257600080fd5b61084e88828901610774565b925050608086013567ffffffffffffffff81111561086b57600080fd5b61087788828901610774565b9150509295509295909350565b61088d81610ca6565b82525050565b61089c81610ca6565b82525050565b60006108ad82610c4f565b6108b78185610c5a565b93506108c7818560208601610cf1565b6108d081610d58565b840191505092915050565b60006108e682610c4f565b6108f08185610c6b565b9350610900818560208601610cf1565b61090981610d58565b840191505092915050565b60008154600181166000811461093157600181146109575761099b565b607f60028304166109428187610c5a565b955060ff19831686526020860193505061099b565b600282046109658187610c5a565b955061097085610c3a565b60005b8281101561099257815481890152600182019150602081019050610973565b80880195505050505b505092915050565b60006109b0602083610c6b565b91507f4f776e61626c653a2063616c6c6572206973206e6f7420746865206f776e65726000830152602082019050919050565b600060a0830160008301516109fb6000860182610afe565b506020830151610a0e6020860182610884565b506040830151610a216040860182610884565b5060608301518482036060860152610a3982826108a2565b91505060808301518482036080860152610a5382826108a2565b9150508091505092915050565b600060a083016000808401549050610a7781610d3e565b610a846000870182610afe565b5060018401549050610a9581610d24565b610aa26020870182610884565b5060028401549050610ab381610d24565b610ac06040870182610884565b50600384018583036060870152610ad78382610914565b925050600484018583036080870152610af08382610914565b925050819250505092915050565b610b0781610cd8565b82525050565b610b1681610cd8565b82525050565b60006020820190508181036000830152610b35816109a3565b9050919050565b60006020820190508181036000830152610b5681846109e3565b905092915050565b60006020820190508181036000830152610b788184610a60565b905092915050565b600060a082019050610b956000830188610b0d565b610ba26020830187610893565b610baf6040830186610893565b8181036060830152610bc181856108db565b90508181036080830152610bd581846108db565b90509695505050505050565b6000604051905081810181811067ffffffffffffffff82111715610c0457600080fd5b8060405250919050565b600067ffffffffffffffff821115610c2557600080fd5b601f19601f8301169050602081019050919050565b60008190508160005260206000209050919050565b600081519050919050565b600082825260208201905092915050565b600082825260208201905092915050565b600073ffffffffffffffffffffffffffffffffffffffff82169050919050565b6000819050919050565b6000610cb182610cb8565b9050919050565b600073ffffffffffffffffffffffffffffffffffffffff82169050919050565b6000819050919050565b82818337600083830152505050565b60005b83811015610d0f578082015181840152602081019050610cf4565b83811115610d1e576000848401525b50505050565b6000610d37610d3283610d69565b610c7c565b9050919050565b6000610d51610d4c83610d69565b610c9c565b9050919050565b6000601f19601f8301169050919050565b6000600182049050919050565b610d7f81610ca6565b8114610d8a57600080fd5b50565b610d9681610cd8565b8114610da157600080fd5b5056fea365627a7a723058207828205bf4692f078c3895e3b418b9145ef99ddfd9c0007acac160b53ee74e226c6578706572696d656e74616cf564736f6c63430005090040a365627a7a7230582002923357bf5712744a08e9ac6f5efa5e5964dc8f670dbcb661f2ff9690140b366c6578706572696d656e74616cf564736f6c63430005090040",
  "source": "pragma solidity ^0.5.9;\npragma experimental ABIEncoderV2;\n\nimport \"../entity/WorkStationEmployee.sol\";\n\ncontract WorkStationEmployeeRouter {\n\n    address manager;\n\n    constructor() public {\n        manager = msg.sender;\n    }\n\n    modifier onlyOwner() {\n        require(manager == msg.sender, \"Ownable: caller is not the owner\");\n        _;\n    }\n\n    //=================================================================================\n    // WorkStationEmployee handler\n    //=================================================================================\n\n    mapping(address => WorkStationEmployee) private workStationEmployees;\n    mapping(uint => address) private workStationEmployeeIDs;\n    address[] private workStationEmployeeList;\n\n    event CreatedWorkStationEmployee(WorkStationEmployee workStationEmployee);\n    event UpdatedWorkStationEmployee(WorkStationEmployee workStationEmployee);\n    event DeletedWorkStationEmployee(WorkStationEmployee workStationEmployee);\n\n    modifier workStationEmployeeExists(address _address){\n        require(workStationEmployees[_address].getWorkStationEmployeeData().employeeAddress != address(0), 'Work station employee has to exist!');\n        _;\n    }\n\n    function addNewWorkStationEmployee(uint _id, address _employeeAddress, address _workStationAddress, string memory _timeStart, string memory _timeEnd) public onlyOwner {\n        WorkStationEmployee workStationEmployee = new WorkStationEmployee(_id, _employeeAddress, _workStationAddress, _timeStart, _timeEnd);\n        address workStationEmployeeAddress = address(workStationEmployee);\n        workStationEmployeeList.push(workStationEmployeeAddress) - 1;\n        workStationEmployees[workStationEmployeeAddress] = workStationEmployee;\n        workStationEmployeeIDs[_id] = workStationEmployeeAddress;\n        emit CreatedWorkStationEmployee(workStationEmployee);\n    }\n\n    function updateWorkStationEmployee(address _address, uint _id, address _employeeAddress, address _workStationAddress, string memory _timeStart, string memory _timeEnd) public workStationEmployeeExists(_address) onlyOwner {\n        WorkStationEmployee workStationEmployee = workStationEmployees[_address];\n        address workStationEmployeeAddress = address(workStationEmployee);\n        workStationEmployee.update(_id, _employeeAddress, _workStationAddress, _timeStart, _timeEnd);\n        workStationEmployees[workStationEmployeeAddress] = workStationEmployee;\n        workStationEmployeeIDs[_id] = workStationEmployeeAddress;\n        emit UpdatedWorkStationEmployee(workStationEmployee);\n    }\n\n    function getAllWorkStationEmployees() public view returns (address[] memory)  {\n        return workStationEmployeeList;\n    }\n\n    function getWorkStationEmployeeByAddress(address _address) public view returns (WorkStationEmployee.workStationEmployee memory){\n        return workStationEmployees[_address].getWorkStationEmployeeData();\n    }\n\n    function getWorkStationEmployeeById(uint _id) public view returns (WorkStationEmployee.workStationEmployee memory) {\n        return workStationEmployees[workStationEmployeeIDs[_id]].getWorkStationEmployeeData();\n    }\n\n    function countWorkStationEmployees() public view returns (uint) {\n        return workStationEmployeeList.length;\n    }\n\n}",
  "sourcePath": "/home/user/Programming/FIRME/PHD/factory-work-optimisation-nfc-raspberrypi-ethererum/blockchain/contracts/router/WorkStationEmployeeRouter.sol",
  "compiler": {
    "name": "solc",
    "version": "0.5.9+commit.e560f70d.Emscripten.clang"
  },
  "schemaVersion": "3.0.2",
  "updatedAt": "2019-06-20T21:46:22.682Z",
  "devdoc": {
    "methods": {}
  },
  "userdoc": {
    "methods": {}
  }
}