{
  "contractName": "WorkingOrder",
  "abi": [
    {
      "constant": true,
      "inputs": [],
      "name": "workingOrderData",
      "outputs": [
        {
          "name": "id",
          "type": "uint256"
        },
        {
          "name": "outputTag",
          "type": "address"
        },
        {
          "name": "status",
          "type": "string"
        },
        {
          "name": "statusDescription",
          "type": "string"
        }
      ],
      "payable": false,
      "stateMutability": "view",
      "type": "function"
    },
    {
      "inputs": [
        {
          "name": "_id",
          "type": "uint256"
        },
        {
          "name": "_inputTags",
          "type": "address[]"
        },
        {
          "name": "_outputTag",
          "type": "address"
        },
        {
          "name": "_status",
          "type": "string"
        },
        {
          "name": "_statusDescription",
          "type": "string"
        }
      ],
      "payable": false,
      "stateMutability": "nonpayable",
      "type": "constructor"
    },
    {
      "anonymous": false,
      "inputs": [
        {
          "components": [
            {
              "name": "id",
              "type": "uint256"
            },
            {
              "name": "inputTags",
              "type": "address[]"
            },
            {
              "name": "outputTag",
              "type": "address"
            },
            {
              "name": "status",
              "type": "string"
            },
            {
              "name": "statusDescription",
              "type": "string"
            }
          ],
          "indexed": false,
          "name": "_value",
          "type": "tuple"
        }
      ],
      "name": "CreatedWorkingOrder",
      "type": "event"
    },
    {
      "anonymous": false,
      "inputs": [
        {
          "components": [
            {
              "name": "id",
              "type": "uint256"
            },
            {
              "name": "inputTags",
              "type": "address[]"
            },
            {
              "name": "outputTag",
              "type": "address"
            },
            {
              "name": "status",
              "type": "string"
            },
            {
              "name": "statusDescription",
              "type": "string"
            }
          ],
          "indexed": false,
          "name": "_value",
          "type": "tuple"
        }
      ],
      "name": "UpdatedWorkingOrder",
      "type": "event"
    },
    {
      "constant": false,
      "inputs": [
        {
          "name": "_id",
          "type": "uint256"
        },
        {
          "name": "_inputTags",
          "type": "address[]"
        },
        {
          "name": "_outputTag",
          "type": "address"
        },
        {
          "name": "_status",
          "type": "string"
        },
        {
          "name": "_statusDescription",
          "type": "string"
        }
      ],
      "name": "update",
      "outputs": [],
      "payable": false,
      "stateMutability": "nonpayable",
      "type": "function"
    },
    {
      "constant": true,
      "inputs": [],
      "name": "getWorkingOrderData",
      "outputs": [
        {
          "components": [
            {
              "name": "id",
              "type": "uint256"
            },
            {
              "name": "inputTags",
              "type": "address[]"
            },
            {
              "name": "outputTag",
              "type": "address"
            },
            {
              "name": "status",
              "type": "string"
            },
            {
              "name": "statusDescription",
              "type": "string"
            }
          ],
          "name": "",
          "type": "tuple"
        }
      ],
      "payable": false,
      "stateMutability": "view",
      "type": "function"
    }
  ],
  "bytecode": "0x60806040523480156200001157600080fd5b50604051620019cb380380620019cb833981810160405262000037919081019062000447565b336000806101000a81548173ffffffffffffffffffffffffffffffffffffffff021916908373ffffffffffffffffffffffffffffffffffffffff1602179055506040518060a001604052808681526020018581526020018473ffffffffffffffffffffffffffffffffffffffff168152602001838152602001828152506001600082015181600001556020820151816001019080519060200190620000de929190620001ac565b5060408201518160020160006101000a81548173ffffffffffffffffffffffffffffffffffffffff021916908373ffffffffffffffffffffffffffffffffffffffff1602179055506060820151816003019080519060200190620001449291906200023b565b506080820151816004019080519060200190620001639291906200023b565b509050507ffc04f83ce3cba9c08374f889767719b1d5a30b64673cfaacf47d54a0c312391f600160405162000199919062000705565b60405180910390a1505050505062000941565b82805482825590600052602060002090810192821562000228579160200282015b82811115620002275782518260006101000a81548173ffffffffffffffffffffffffffffffffffffffff021916908373ffffffffffffffffffffffffffffffffffffffff16021790555091602001919060010190620001cd565b5b509050620002379190620002c2565b5090565b828054600181600116156101000203166002900490600052602060002090601f016020900481019282601f106200027e57805160ff1916838001178555620002af565b82800160010185558215620002af579182015b82811115620002ae57825182559160200191906001019062000291565b5b509050620002be919062000308565b5090565b6200030591905b808211156200030157600081816101000a81549073ffffffffffffffffffffffffffffffffffffffff021916905550600101620002c9565b5090565b90565b6200032d91905b80821115620003295760008160009055506001016200030f565b5090565b90565b60008151905062000341816200090d565b92915050565b600082601f8301126200035957600080fd5b8151620003706200036a8262000757565b62000729565b915081818352602084019350602081019050838560208402820111156200039657600080fd5b60005b83811015620003ca5781620003af888262000330565b84526020840193506020830192505060018101905062000399565b5050505092915050565b600082601f830112620003e657600080fd5b8151620003fd620003f78262000780565b62000729565b915080825260208301602083018583830111156200041a57600080fd5b6200042783828462000879565b50505092915050565b600081519050620004418162000927565b92915050565b600080600080600060a086880312156200046057600080fd5b6000620004708882890162000430565b955050602086015167ffffffffffffffff8111156200048e57600080fd5b6200049c8882890162000347565b9450506040620004af8882890162000330565b935050606086015167ffffffffffffffff811115620004cd57600080fd5b620004db88828901620003d4565b925050608086015167ffffffffffffffff811115620004f957600080fd5b6200050788828901620003d4565b9150509295509295909350565b60006200052283836200052e565b60208301905092915050565b62000539816200083b565b82525050565b60006200054c82620007d7565b620005588185620007ef565b93506200056583620007ad565b8060005b83811015620005a5576200057d82620008eb565b62000589888262000514565b97506200059683620007e2565b92505060018101905062000569565b5085935050505092915050565b600081546001811660008114620005d25760018114620005fb5762000645565b607f6002830416620005e5818762000800565b955060ff19831686526020860193505062000645565b600282046200060b818762000800565b95506200061885620007c2565b60005b828110156200063c578154818901526001820191506020810190506200061b565b80880195505050505b505092915050565b600060a0830160008084015490506200066681620008cd565b620006756000870182620006f4565b506001840185830360208701526200068e83826200053f565b92505060028401549050620006a381620008af565b620006b260408701826200052e565b50600384018583036060870152620006cb8382620005b2565b925050600484018583036080870152620006e68382620005b2565b925050819250505092915050565b620006ff816200086f565b82525050565b600060208201905081810360008301526200072181846200064d565b905092915050565b6000604051905081810181811067ffffffffffffffff821117156200074d57600080fd5b8060405250919050565b600067ffffffffffffffff8211156200076f57600080fd5b602082029050602081019050919050565b600067ffffffffffffffff8211156200079857600080fd5b601f19601f8301169050602081019050919050565b60008190508160005260206000209050919050565b60008190508160005260206000209050919050565b600081549050919050565b6000600182019050919050565b600082825260208201905092915050565b600082825260208201905092915050565b600073ffffffffffffffffffffffffffffffffffffffff82169050919050565b6000819050919050565b600062000848826200084f565b9050919050565b600073ffffffffffffffffffffffffffffffffffffffff82169050919050565b6000819050919050565b60005b83811015620008995780820151818401526020810190506200087c565b83811115620008a9576000848401525b50505050565b6000620008c6620008c08362000900565b62000811565b9050919050565b6000620008e4620008de8362000900565b62000831565b9050919050565b6000620008f98254620008af565b9050919050565b6000600182049050919050565b62000918816200083b565b81146200092457600080fd5b50565b62000932816200086f565b81146200093e57600080fd5b50565b61107a80620009516000396000f3fe608060405234801561001057600080fd5b506004361061005e576000357c010000000000000000000000000000000000000000000000000000000090048063918692bd1461006357806397564bdb14610084578063e048c222146100a2575b600080fd5b61006b6100be565b60405161007b9493929190610d80565b60405180910390f35b61008c61022c565b6040516100999190610d3c565b60405180910390f35b6100bc60048036036100b791908101906108e8565b610478565b005b60018060000154908060020160009054906101000a900473ffffffffffffffffffffffffffffffffffffffff1690806003018054600181600116156101000203166002900480601f0160208091040260200160405190810160405280929190818152602001828054600181600116156101000203166002900480156101845780601f1061015957610100808354040283529160200191610184565b820191906000526020600020905b81548152906001019060200180831161016757829003601f168201915b505050505090806004018054600181600116156101000203166002900480601f0160208091040260200160405190810160405280929190818152602001828054600181600116156101000203166002900480156102225780601f106101f757610100808354040283529160200191610222565b820191906000526020600020905b81548152906001019060200180831161020557829003601f168201915b5050505050905084565b610234610630565b60016040518060a001604052908160008201548152602001600182018054806020026020016040519081016040528092919081815260200182805480156102d057602002820191906000526020600020905b8160009054906101000a900473ffffffffffffffffffffffffffffffffffffffff1673ffffffffffffffffffffffffffffffffffffffff1681526020019060010190808311610286575b505050505081526020016002820160009054906101000a900473ffffffffffffffffffffffffffffffffffffffff1673ffffffffffffffffffffffffffffffffffffffff1673ffffffffffffffffffffffffffffffffffffffff168152602001600382018054600181600116156101000203166002900480601f0160208091040260200160405190810160405280929190818152602001828054600181600116156101000203166002900480156103c85780601f1061039d576101008083540402835291602001916103c8565b820191906000526020600020905b8154815290600101906020018083116103ab57829003601f168201915b50505050508152602001600482018054600181600116156101000203166002900480601f01602080910402602001604051908101604052809291908181526020018280546001816001161561010002031660029004801561046a5780601f1061043f5761010080835404028352916020019161046a565b820191906000526020600020905b81548152906001019060200180831161044d57829003601f168201915b505050505081525050905090565b3373ffffffffffffffffffffffffffffffffffffffff166000809054906101000a900473ffffffffffffffffffffffffffffffffffffffff1673ffffffffffffffffffffffffffffffffffffffff1614610507576040517f08c379a00000000000000000000000000000000000000000000000000000000081526004016104fe90610d1c565b60405180910390fd5b6040518060a001604052808681526020018581526020018473ffffffffffffffffffffffffffffffffffffffff16815260200183815260200182815250600160008201518160000155602082015181600101908051906020019061056c929190610675565b5060408201518160020160006101000a81548173ffffffffffffffffffffffffffffffffffffffff021916908373ffffffffffffffffffffffffffffffffffffffff16021790555060608201518160030190805190602001906105d09291906106ff565b5060808201518160040190805190602001906105ed9291906106ff565b509050507faa90b7508aa0d8c66d1effa64f4d00ac2c1253aafd3a2fd056175cd252c9188e60016040516106219190610d5e565b60405180910390a15050505050565b6040518060a001604052806000815260200160608152602001600073ffffffffffffffffffffffffffffffffffffffff16815260200160608152602001606081525090565b8280548282559060005260206000209081019282156106ee579160200282015b828111156106ed5782518260006101000a81548173ffffffffffffffffffffffffffffffffffffffff021916908373ffffffffffffffffffffffffffffffffffffffff16021790555091602001919060010190610695565b5b5090506106fb919061077f565b5090565b828054600181600116156101000203166002900490600052602060002090601f016020900481019282601f1061074057805160ff191683800117855561076e565b8280016001018555821561076e579182015b8281111561076d578251825591602001919060010190610752565b5b50905061077b91906107c2565b5090565b6107bf91905b808211156107bb57600081816101000a81549073ffffffffffffffffffffffffffffffffffffffff021916905550600101610785565b5090565b90565b6107e491905b808211156107e05760008160009055506001016107c8565b5090565b90565b6000813590506107f681611009565b92915050565b600082601f83011261080d57600080fd5b813561082061081b82610e00565b610dd3565b9150818183526020840193506020810190508385602084028201111561084557600080fd5b60005b83811015610875578161085b88826107e7565b845260208401935060208301925050600181019050610848565b5050505092915050565b600082601f83011261089057600080fd5b81356108a361089e82610e28565b610dd3565b915080825260208301602083018583830111156108bf57600080fd5b6108ca838284610f62565b50505092915050565b6000813590506108e281611020565b92915050565b600080600080600060a0868803121561090057600080fd5b600061090e888289016108d3565b955050602086013567ffffffffffffffff81111561092b57600080fd5b610937888289016107fc565b9450506040610948888289016107e7565b935050606086013567ffffffffffffffff81111561096557600080fd5b6109718882890161087f565b925050608086013567ffffffffffffffff81111561098e57600080fd5b61099a8882890161087f565b9150509295509295909350565b60006109b383836109bf565b60208301905092915050565b6109c881610f26565b82525050565b6109d781610f26565b82525050565b60006109e882610e8e565b6109f28185610ec9565b93506109fd83610e54565b8060005b83811015610a2e578151610a1588826109a7565b9750610a2083610eaf565b925050600181019050610a01565b5085935050505092915050565b6000610a4682610e99565b610a508185610ec9565b9350610a5b83610e64565b8060005b83811015610a9357610a7082610fd8565b610a7a88826109a7565b9750610a8583610ebc565b925050600181019050610a5f565b5085935050505092915050565b6000610aab82610ea4565b610ab58185610eda565b9350610ac5818560208601610f71565b610ace81610feb565b840191505092915050565b6000610ae482610ea4565b610aee8185610eeb565b9350610afe818560208601610f71565b610b0781610feb565b840191505092915050565b600081546001811660008114610b2f5760018114610b5557610b99565b607f6002830416610b408187610eda565b955060ff198316865260208601935050610b99565b60028204610b638187610eda565b9550610b6e85610e79565b60005b82811015610b9057815481890152600182019150602081019050610b71565b80880195505050505b505092915050565b6000610bae602083610eeb565b91507f4f776e61626c653a2063616c6c6572206973206e6f7420746865206f776e65726000830152602082019050919050565b600060a083016000830151610bf96000860182610cfe565b5060208301518482036020860152610c1182826109dd565b9150506040830151610c2660408601826109bf565b5060608301518482036060860152610c3e8282610aa0565b91505060808301518482036080860152610c588282610aa0565b9150508091505092915050565b600060a083016000808401549050610c7c81610fbe565b610c896000870182610cfe565b50600184018583036020870152610ca08382610a3b565b92505060028401549050610cb381610fa4565b610cc060408701826109bf565b50600384018583036060870152610cd78382610b12565b925050600484018583036080870152610cf08382610b12565b925050819250505092915050565b610d0781610f58565b82525050565b610d1681610f58565b82525050565b60006020820190508181036000830152610d3581610ba1565b9050919050565b60006020820190508181036000830152610d568184610be1565b905092915050565b60006020820190508181036000830152610d788184610c65565b905092915050565b6000608082019050610d956000830187610d0d565b610da260208301866109ce565b8181036040830152610db48185610ad9565b90508181036060830152610dc88184610ad9565b905095945050505050565b6000604051905081810181811067ffffffffffffffff82111715610df657600080fd5b8060405250919050565b600067ffffffffffffffff821115610e1757600080fd5b602082029050602081019050919050565b600067ffffffffffffffff821115610e3f57600080fd5b601f19601f8301169050602081019050919050565b6000819050602082019050919050565b60008190508160005260206000209050919050565b60008190508160005260206000209050919050565b600081519050919050565b600081549050919050565b600081519050919050565b6000602082019050919050565b6000600182019050919050565b600082825260208201905092915050565b600082825260208201905092915050565b600082825260208201905092915050565b600073ffffffffffffffffffffffffffffffffffffffff82169050919050565b6000819050919050565b6000610f3182610f38565b9050919050565b600073ffffffffffffffffffffffffffffffffffffffff82169050919050565b6000819050919050565b82818337600083830152505050565b60005b83811015610f8f578082015181840152602081019050610f74565b83811115610f9e576000848401525b50505050565b6000610fb7610fb283610ffc565b610efc565b9050919050565b6000610fd1610fcc83610ffc565b610f1c565b9050919050565b6000610fe48254610fa4565b9050919050565b6000601f19601f8301169050919050565b6000600182049050919050565b61101281610f26565b811461101d57600080fd5b50565b61102981610f58565b811461103457600080fd5b5056fea365627a7a72305820bf9f4c29db163a7a8a350ae24f1359455468683262165e3c6f77a8adf51baef96c6578706572696d656e74616cf564736f6c63430005090040",
  "source": "pragma solidity ^0.5.9;\npragma experimental ABIEncoderV2;\n\nimport \"./Tag.sol\";\n\ncontract WorkingOrder {\n\n    address manager;\n    workingOrder public workingOrderData;\n\n    struct workingOrder {\n        uint id;\n        address[] inputTags;\n        address outputTag;\n        string status;\n        string statusDescription;\n    }\n\n    modifier onlyOwner() {\n        require(manager == msg.sender, \"Ownable: caller is not the owner\");\n        _;\n    }\n\n    event CreatedWorkingOrder(\n        workingOrder _value\n    );\n\n    event UpdatedWorkingOrder(\n        workingOrder _value\n    );\n\n    constructor(uint _id, address[] memory _inputTags, address _outputTag, string memory _status, string memory _statusDescription) public {\n        manager = msg.sender;\n        workingOrderData = workingOrder({\n            id : _id,\n            inputTags : _inputTags,\n            outputTag : _outputTag,\n            status: _status,\n            statusDescription: _statusDescription\n            });\n\n        emit CreatedWorkingOrder(workingOrderData);\n    }\n\n    function update(uint _id, address[] memory _inputTags, address _outputTag, string memory _status, string memory _statusDescription) public onlyOwner {\n        workingOrderData = workingOrder({\n            id : _id,\n            inputTags : _inputTags,\n            outputTag : _outputTag,\n            status: _status,\n            statusDescription: _statusDescription\n            });\n\n\n        emit UpdatedWorkingOrder(workingOrderData);\n    }\n\n    function getWorkingOrderData() public view returns(workingOrder memory) {\n        return workingOrderData;\n    }\n\n}\n",
  "sourcePath": "/home/user/Programming/FIRME/PHD/factory-work-optimisation-nfc-raspberrypi-ethererum/blockchain/contracts/entity/WorkingOrder.sol",
  "compiler": {
    "name": "solc",
    "version": "0.5.9+commit.e560f70d.Emscripten.clang"
  },
  "schemaVersion": "3.0.2",
  "updatedAt": "2019-06-20T21:46:22.679Z",
  "devdoc": {
    "methods": {}
  },
  "userdoc": {
    "methods": {}
  }
}