{
  "contractName": "WorkStation",
  "abi": [
    {
      "constant": true,
      "inputs": [],
      "name": "workStationData",
      "outputs": [
        {
          "name": "id",
          "type": "uint256"
        },
        {
          "name": "description",
          "type": "string"
        },
        {
          "name": "active",
          "type": "bool"
        }
      ],
      "payable": false,
      "stateMutability": "view",
      "type": "function"
    },
    {
      "inputs": [
        {
          "name": "_id",
          "type": "uint256"
        },
        {
          "name": "_description_",
          "type": "string"
        },
        {
          "name": "_active",
          "type": "bool"
        }
      ],
      "payable": false,
      "stateMutability": "nonpayable",
      "type": "constructor"
    },
    {
      "anonymous": false,
      "inputs": [
        {
          "components": [
            {
              "name": "id",
              "type": "uint256"
            },
            {
              "name": "description",
              "type": "string"
            },
            {
              "name": "active",
              "type": "bool"
            }
          ],
          "indexed": false,
          "name": "_value",
          "type": "tuple"
        }
      ],
      "name": "CreatedWorkStation",
      "type": "event"
    },
    {
      "anonymous": false,
      "inputs": [
        {
          "components": [
            {
              "name": "id",
              "type": "uint256"
            },
            {
              "name": "description",
              "type": "string"
            },
            {
              "name": "active",
              "type": "bool"
            }
          ],
          "indexed": false,
          "name": "_value",
          "type": "tuple"
        }
      ],
      "name": "UpdatedWorkStation",
      "type": "event"
    },
    {
      "constant": false,
      "inputs": [
        {
          "name": "_id",
          "type": "uint256"
        },
        {
          "name": "_description",
          "type": "string"
        },
        {
          "name": "_active",
          "type": "bool"
        }
      ],
      "name": "update",
      "outputs": [],
      "payable": false,
      "stateMutability": "nonpayable",
      "type": "function"
    },
    {
      "constant": true,
      "inputs": [],
      "name": "getWorkStationData",
      "outputs": [
        {
          "components": [
            {
              "name": "id",
              "type": "uint256"
            },
            {
              "name": "description",
              "type": "string"
            },
            {
              "name": "active",
              "type": "bool"
            }
          ],
          "name": "",
          "type": "tuple"
        }
      ],
      "payable": false,
      "stateMutability": "view",
      "type": "function"
    }
  ],
  "bytecode": "0x60806040523480156200001157600080fd5b5060405162000f7038038062000f7083398181016040526200003791908101906200025e565b336000806101000a81548173ffffffffffffffffffffffffffffffffffffffff021916908373ffffffffffffffffffffffffffffffffffffffff16021790555060405180606001604052808481526020018381526020018215158152506001600082015181600001556020820151816001019080519060200190620000be92919062000125565b5060408201518160020160006101000a81548160ff0219169083151502179055509050507f48e9ac09fdfdafeb4140ef8e74687e011ca621b331bce38f23da2a8420c75bd66001604051620001149190620003fb565b60405180910390a150505062000580565b828054600181600116156101000203166002900490600052602060002090601f016020900481019282601f106200016857805160ff191683800117855562000199565b8280016001018555821562000199579182015b82811115620001985782518255916020019190600101906200017b565b5b509050620001a89190620001ac565b5090565b620001d191905b80821115620001cd576000816000905550600101620001b3565b5090565b90565b600081519050620001e5816200054c565b92915050565b600082601f830112620001fd57600080fd5b8151620002146200020e826200044d565b6200041f565b915080825260208301602083018583830111156200023157600080fd5b6200023e838284620004cd565b50505092915050565b600081519050620002588162000566565b92915050565b6000806000606084860312156200027457600080fd5b6000620002848682870162000247565b935050602084015167ffffffffffffffff811115620002a257600080fd5b620002b086828701620001eb565b9250506040620002c386828701620001d4565b9150509250925092565b620002d881620004b7565b82525050565b600081546001811660008114620002fe5760018114620003275762000371565b607f60028304166200031181876200048f565b955060ff19831686526020860193505062000371565b600282046200033781876200048f565b955062000344856200047a565b60005b82811015620003685781548189015260018201915060208101905062000347565b80880195505050505b505092915050565b6000606083016000808401549050620003928162000521565b620003a16000870182620003ea565b50600184018583036020870152620003ba8382620002de565b92505060028401549050620003cf8162000503565b620003de6040870182620002cd565b50819250505092915050565b620003f581620004c3565b82525050565b6000602082019050818103600083015262000417818462000379565b905092915050565b6000604051905081810181811067ffffffffffffffff821117156200044357600080fd5b8060405250919050565b600067ffffffffffffffff8211156200046557600080fd5b601f19601f8301169050602081019050919050565b60008190508160005260206000209050919050565b600082825260208201905092915050565b600060ff82169050919050565b6000819050919050565b60008115159050919050565b6000819050919050565b60005b83811015620004ed578082015181840152602081019050620004d0565b83811115620004fd576000848401525b50505050565b60006200051a62000514836200053f565b620004a0565b9050919050565b60006200053862000532836200053f565b620004ad565b9050919050565b6000600182049050919050565b6200055781620004b7565b81146200056357600080fd5b50565b6200057181620004c3565b81146200057d57600080fd5b50565b6109e080620005906000396000f3fe608060405234801561001057600080fd5b506004361061005e576000357c0100000000000000000000000000000000000000000000000000000000900480634e32484714610063578063bc6804891461007f578063d19bacb31461009f575b600080fd5b61007d600480360361007891908101906104d6565b6100bd565b005b6100876101f2565b604051610096939291906107d5565b60405180910390f35b6100a76102af565b6040516100b49190610791565b60405180910390f35b3373ffffffffffffffffffffffffffffffffffffffff166000809054906101000a900473ffffffffffffffffffffffffffffffffffffffff1673ffffffffffffffffffffffffffffffffffffffff161461014c576040517f08c379a000000000000000000000000000000000000000000000000000000000815260040161014390610771565b60405180910390fd5b60405180606001604052808481526020018381526020018215158152506001600082015181600001556020820151816001019080519060200190610191929190610390565b5060408201518160020160006101000a81548160ff0219169083151502179055509050507ff7637263742cdba2762a4e5ce14ed8f88e7b144ef2f82b1820454d56a2d8346660016040516101e591906107b3565b60405180910390a1505050565b6001806000015490806001018054600181600116156101000203166002900480601f0160208091040260200160405190810160405280929190818152602001828054600181600116156101000203166002900480156102925780601f1061026757610100808354040283529160200191610292565b820191906000526020600020905b81548152906001019060200180831161027557829003601f168201915b5050505050908060020160009054906101000a900460ff16905083565b6102b7610410565b600160405180606001604052908160008201548152602001600182018054600181600116156101000203166002900480601f0160208091040260200160405190810160405280929190818152602001828054600181600116156101000203166002900480156103675780601f1061033c57610100808354040283529160200191610367565b820191906000526020600020905b81548152906001019060200180831161034a57829003601f168201915b505050505081526020016002820160009054906101000a900460ff161515151581525050905090565b828054600181600116156101000203166002900490600052602060002090601f016020900481019282601f106103d157805160ff19168380011785556103ff565b828001600101855582156103ff579182015b828111156103fe5782518255916020019190600101906103e3565b5b50905061040c9190610433565b5090565b604051806060016040528060008152602001606081526020016000151581525090565b61045591905b80821115610451576000816000905550600101610439565b5090565b90565b6000813590506104678161096f565b92915050565b600082601f83011261047e57600080fd5b813561049161048c82610840565b610813565b915080825260208301602083018583830111156104ad57600080fd5b6104b88382846108db565b50505092915050565b6000813590506104d081610986565b92915050565b6000806000606084860312156104eb57600080fd5b60006104f9868287016104c1565b935050602084013567ffffffffffffffff81111561051657600080fd5b6105228682870161046d565b925050604061053386828701610458565b9150509250925092565b610546816108c5565b82525050565b610555816108c5565b82525050565b600061056682610881565b610570818561088c565b93506105808185602086016108ea565b61058981610951565b840191505092915050565b600061059f82610881565b6105a9818561089d565b93506105b98185602086016108ea565b6105c281610951565b840191505092915050565b6000815460018116600081146105ea576001811461061057610654565b607f60028304166105fb818761088c565b955060ff198316865260208601935050610654565b6002820461061e818761088c565b95506106298561086c565b60005b8281101561064b5781548189015260018201915060208101905061062c565b80880195505050505b505092915050565b600061066960208361089d565b91507f4f776e61626c653a2063616c6c6572206973206e6f7420746865206f776e65726000830152602082019050919050565b60006060830160008301516106b46000860182610753565b50602083015184820360208601526106cc828261055b565b91505060408301516106e1604086018261053d565b508091505092915050565b600060608301600080840154905061070381610937565b6107106000870182610753565b5060018401858303602087015261072783826105cd565b9250506002840154905061073a8161091d565b610747604087018261053d565b50819250505092915050565b61075c816108d1565b82525050565b61076b816108d1565b82525050565b6000602082019050818103600083015261078a8161065c565b9050919050565b600060208201905081810360008301526107ab818461069c565b905092915050565b600060208201905081810360008301526107cd81846106ec565b905092915050565b60006060820190506107ea6000830186610762565b81810360208301526107fc8185610594565b905061080b604083018461054c565b949350505050565b6000604051905081810181811067ffffffffffffffff8211171561083657600080fd5b8060405250919050565b600067ffffffffffffffff82111561085757600080fd5b601f19601f8301169050602081019050919050565b60008190508160005260206000209050919050565b600081519050919050565b600082825260208201905092915050565b600082825260208201905092915050565b600060ff82169050919050565b6000819050919050565b60008115159050919050565b6000819050919050565b82818337600083830152505050565b60005b838110156109085780820151818401526020810190506108ed565b83811115610917576000848401525b50505050565b600061093061092b83610962565b6108ae565b9050919050565b600061094a61094583610962565b6108bb565b9050919050565b6000601f19601f8301169050919050565b6000600182049050919050565b610978816108c5565b811461098357600080fd5b50565b61098f816108d1565b811461099a57600080fd5b5056fea365627a7a723058203084c7cf0dbd52f1a89a13c50092b5a176552e482663457a95dd3a74302e26856c6578706572696d656e74616cf564736f6c63430005090040",
  "source": "pragma solidity ^0.5.9;\npragma experimental ABIEncoderV2;\n\ncontract WorkStation {\n\n    address manager;\n    workStation public workStationData;\n\n    struct workStation {\n        uint id;\n        string description;\n        bool active;\n    }\n\n    modifier onlyOwner() {\n        require(manager == msg.sender, \"Ownable: caller is not the owner\");\n        _;\n    }\n\n    event CreatedWorkStation(\n        workStation _value\n    );\n\n    event UpdatedWorkStation(\n        workStation _value\n    );\n\n    constructor(uint _id, string memory _description_, bool _active) public {\n        manager = msg.sender;\n        workStationData = workStation({\n            id : _id,\n            description : _description_,\n            active : _active\n            });\n\n        emit CreatedWorkStation(workStationData);\n    }\n\n    function update(uint _id, string memory _description, bool _active) public onlyOwner {\n        workStationData = workStation({\n            id : _id,\n            description : _description,\n            active : _active\n            });\n\n        emit UpdatedWorkStation(workStationData);\n    }\n\n    function getWorkStationData() public view returns(workStation memory) {\n        return workStationData;\n    }\n}\n",
  "sourcePath": "/home/user/Programming/FIRME/PHD/factory-work-optimisation-nfc-raspberrypi-ethererum/blockchain/contracts/entity/WorkStation.sol",
  "compiler": {
    "name": "solc",
    "version": "0.5.9+commit.e560f70d.Emscripten.clang"
  },
  "schemaVersion": "3.0.2",
  "updatedAt": "2019-06-20T21:46:22.678Z",
  "devdoc": {
    "methods": {}
  },
  "userdoc": {
    "methods": {}
  }
}